:040000000C94440018
:14005400C0CFA4B0999282F8809001020304050607080910C3
:1400680011121314151617181920212223242526272829302A
:14007C00313234431010013443101001CFE5D4E0CDBFDEBF4C
:14009000C051D0400AEA08830024E4E9F0E010E0E839F107F2
:1400A40011F00192FBCF0083E4E5F0E0A0E6B0E010E0E838A8
:1400B800F10721F0C89531960D92F9CF0E949101FFCF4A93C1
:1400CC005A934427552702C04F5F5F4F40175107D8F3442749
:1400E000552702C04F5F5F4F40175107D8F359914991089597
:1400F4000E944302AA2444270DC007FF02C0C29A01C0C298CC
:14010800000FAA0CC69AB49B01C0A394C6984395483088F34E
:14011C000A2D0C944802AA92BA92A02EC7980A2DE3DF0027D9
:14013000E1DFA02EC79AB990A99008950E943E02C22EA02E0D
:14014400C7980A2DD5DFA02E0C2DD2DFC79A0A2D0C942C023F
:140158000E944D026901A02EC7980A2DC7DFA02EBB24442716
:14016C00552708C00027C0DFFA01EC0DFD1D00834F5F5F4F88
:140180002E803324421553059CF3C79A0A2D0C9454020E94F8
:140194003C027901A02EC7980A2DAADFA02ECC2405C0F70137
:1401A80001917F01A3DFC3940E80C014C0F3C79A0A2D0C940B
:1401BC003102C598C59A08EE13E081DF08950E94430258011A
:1401D0002197442707E0A5DF0093970006FF07C0C59880E2D8
:1401E4008883950101E6B6DF41E02091970007E2A3DF042FE3
:1401F80021960C944802AA92BA9258012197C59885E08883EC
:14020C002AE830E00AE2BFDF80E28883950100EABADF2EE09E
:1402200000E28CDFC59A08E512E04FDF2196B990A99008953B
:140234002197C598C79AC69885E088832AE830E000E3A5DFE9
:1402480085E088832FE830E00AE29FDF21E001E271DF21E06C
:14025C0002E26EDF222705E26BDF20E201E368DF27E006E2C7
:1402700065DF2FE000E262DF00E717E126DF219608952AE0C2
:1402840030E00091940011270E94F601F80180E690E0E80F9A
:14029800F91F208025BADC9ADB9ADA9AD99800E510E00FDF28
:1402AC00D99A2AE030E00091940011270E94F201F80180E660
:1402C00090E0E80FF91F208025BADA9800E510E0FCDEDA9A97
:1402D4002AE030E00091950011270E94F601F80180E690E036
:1402E800E80FF91F208025BADB9800E510E0E9DEDB9A2AE0E6
:1402FC0030E00091950011270E94F201F80180E690E0E80F25
:14031000F91F208025BADC9800E510E0D6DEDC9A0895A097FB
:1403240084EE87BB8FEF84BB8EE18ABB82EB81BB22242BBACC
:140338008FEB85BB959A9798DC98DB98DA98D99875DF49C072
:14034C0038DF8E013CDF002309F440C08881813129F48091D3
:1403600095008F5F809395008881813229F4809195008E5FF2
:14037400809395008881813329F4809195008D5F80939500B9
:140388008881813429F4809194008F5F80939400888181358D
:14039C0029F4809194008E5F809394008881813629F4809109
:1403B00094008D5F809394008881813729F4809195008150BD
:1403C400809395008881813929F48091940081508093940080
:1403D80054DF22242882B6CFA09608956894DA92D12E04C06B
:1403EC00E894DA92D12ED32617FF04C0109500950F5F1F4F2D
:1404000037FF04C0309520952F5F3F4F0E941302D7FE04C008
:14041400109500950F5F1F4FD9900895689401C0E894EA9203
:14042800FA928A93EE24FF2480E1000F111FEE1CFF1CE21625
:14043C00F30618F0E21AF30A03958A95A1F716F40E2D1F2DD2
:140450008991F990E9900895A990B990C990D9900895A990C5
:14046400B990C990D990E990F99008957A936A935A934A9306
:14047800FA92EA92DA92CA92BA92AA9208955A934A93BA9265
:14048C00AA920895A990B9904991599108955A934A93DA926A
:1404A000CA92BA92AA920895A990B990C990D99049915991BF
:0204B4000895A9
:00000001FF
