:020000020000FC
:10000000AAC11895189518951895189518951895CA
:10001000189518951895BDC01895189518951895A8
:1000200018951895B7C0189518951895189518959E
:100030001895189544004001E8032D9A2B9A5B9A75
:1000400050985398519A259A239A089504E0009362
:10005000890002EE0093880000E000938500009381
:100060008400009380000BE00093810000E0009387
:10007000820007E206BB02E000936F0008957CD186
:100080008FEF9FEF00000000000000000197D1F704
:10009000D4DFDCDF28D1FF24E2E073C169D10CB5E5
:1000A00000650CBD01E00DBDEADF2D9A2B9A789416
:1000B00072D00FE6402E01E0502E35992AC066D04E
:1000C00061D0BAD0359925C001C0A895359BFDCF28
:1000D00073D08FEF9FEFA0E0B0E0A89581509040E3
:1000E000A040B0404B9907C08201D5D0AFD0F201FB
:1000F0000181002331F4082F092B0A2B0B2B69F700
:1001000008C000E0018B2D982B9A34D02D9A2B98A3
:1001100031D0349915C03AD0349912C037D001C0CB
:10012000A895349BFDCF2ED007C027D0033510F003
:1001300000E0048B1CD040D0359B02C03399F5CF32
:100140003399BBCF23D03399B8CF20D001C0A89525
:10015000339BFDCF17D0359BB0CF349BAECF2CD087
:100160000CD0043510F000E0048B01D0F4CF0091E6
:10017000830162C000E61AEED6C0F201048903953D
:10018000048B089500E000938301089504E110E0DA
:10019000CAC0189518953D983C983B98459A449A42
:1001A000439A089500E010E0F801E05CFE4F0183FF
:1001B00003950431C0F308952D9804E100934001A4
:1001C000F1DF00E0E0E4F1E010E0E00FF11F118169
:1001D000138F03950431B0F332D00BE511E068D0F2
:1001E0003ED004EF11E09FD035D02D9A08955C9851
:1001F000289A5D98549A209A559A569A5798089535
:100200000EBD0DB507FFFDCF08950DB507FFFDCF5E
:100210000EB511E01DBD08958A93812F28980F71A6
:100220000062EEDF082F35D08991089528980F716C
:10023000E7DFEBDF289A0895102F05E0EDCF5C98FB
:1002400000E0F4DF0D7F102F00E0E6CF5C9868D06F
:100250005C9A089513D01C791362F6DFF9CF0ED0A3
:100260001C781264F1DF5C9A00E1000000000000DD
:100270000000000000000A95C1F708955C9850D076
:1002800000E0D4DF102F0895289801EE02C02898CE
:1002900002EEB6DFCFCF6ED0D801289801E6B0DFEE
:1002A00084E1B3DF0D938A95E1F7289AE4E067C013
:1002B00061D0D801289800EAA3DF84E10D91A0DF86
:1002C0008A95E1F7F2CF289800E302C028980AE265
:1002D00097DF06E495DF05E493DF09E491DF0BE4A3
:1002E0008FDF01E4D6CF83DF15E0AEDF10E001E061
:1002F00093DF11E002E090DF13E003E08DDF10E117
:1003000004E08ADF1FE006E087DF0AD0DFDFDBDF03
:1003100014E101E181DFB8DFBADF00E08DDF9ACFC1
:1003200010E707E079CF0EC0A8950000000000009C
:1003300000000000000000000000000000000000BD
:1003400000000000980101501040232B69F7089528
:1003500000008895FECF0FE30DBF01E00EBFC0E2A5
:10036000D1E018D0002309F025D098DEF1DFF0CFDE
:100370005A924A92BA93AA939A938A930895BB8108
:10038000AA8199818881F0E00FB6F894CE0FDF1F23
:100390000FBE089501E0089520E006D0E9F7089522
:1003A000259102D0E9F708952D9301501040202F98
:1003B000212B089584E390E0FC0105911491FC0148
:1003C0003296A591B491FC01349625913491422F37
:1003D000432B19F0F901E4DF01C0DEDF069610E0DF
:1003E0008A33910748F3089500AA00000000000036
:1003F00000000000000000000000000000000000FD
:10040000000000494500000000000000000000005E
:1004100000000000000000AA000000000000000032
:0C042000000000000000000000000000D0
:0400000300000000F9
:00000001FF
