:020000040800F2
:10000000380C0020A10100084F330008C32B000862
:100010004D33000833140008A13B00080000000025
:10002000000000000000000000000000DB360008B7
:100030003514000800000000D9360008DD3600083D
:10004000BB010008BB010008BB010008BB010008A0
:10005000BB010008BB010008BB010008BB01000890
:10006000BB010008BB010008BB010008BB01000880
:10007000BB010008BB010008BB010008BB01000870
:10008000BB010008BB010008BB010008BB01000860
:10009000BB010008BB010008BB010008BB01000850
:1000A000BB010008BB010008BB010008BB01000840
:1000B000BB010008BB010008BB010008BB01000830
:1000C000BB010008BB010008BB010008BB01000820
:1000D000BB010008BB010008953B0008BB010008FC
:1000E000BB010008BB010008BB01000800F002F8DA
:1000F00000F047F80AA090E8000C82448344AAF17B
:100100000107DA4501D100F03CF8AFF2090EBAE878
:100110000F0013F0010F18BFFB1A43F0010318473B
:10012000004B0000204B0000103A24BF78C878C173
:10013000FAD8520724BF30C830C144BF04680C60ED
:10014000704700000023002400250026103A28BF35
:1001500078C1FBD8520728BF30C148BF0B60704739
:10016000662904F0C280002070471FB500F024FC0F
:1001700004000020002103F0D7FEE0601FBD10B591
:1001800010BD00F019FD1146FFF7EFFF03F04EFD23
:1001900000F037FD03B4FFF7F2FF03BC00F07AFD77
:1001A0000948804709480047FEE7FEE7FEE7FEE70B
:1001B000FEE7FEE7FEE7FEE7FEE7FEE70448054947
:1001C000054A064B704700003F370008ED00000865
:1001D00038060020380C002038080020380800209D
:1001E0000FB41CB5074B06AA7B44694600900598DE
:1001F00000F097FB0020694600F0A6FB1CBC5DF8F0
:1002000014FB00005D0700002DE9F05F89460446FD
:100210004FF0000ADFF824B1FB44C0F820A02046CC
:10022000E168884700287DD0252806D0D4E901213F
:100230009047206A401C2062F1E700255F46204677
:10024000E16888472028064607DB312E05D2B81919
:1002500010F8200C08B10543F1E7A80701D525F0F7
:100260000405C4F81CA00027C4F818A02A2E09D041
:10027000304603F0D3FC38B304EB8708303EC8F8AF
:10028000186019E059F8041B204604EB87029161BD
:10029000E1688847012F064618D1E069002820DA76
:1002A00025F020051DE0D8F8180000EB800006EBD3
:1002B00040003038C8F818002046E16888470646F4
:1002C00003F0ACFC0028EED1012F0AD02E2E08D16D
:1002D0002046E16888477F1C0646022F45F020052E
:1002E000C4DBA069002803DA404245F00105A061A3
:1002F000E80701D025F01005A6B1A6F141001928A4
:1003000002D8203645F400654A463146204625602D
:100310004D46FFF725FF60B1012807D0ED1D25F000
:10032000070000E007E000F1080978E705F104099B
:1003300075E730467AE7206ABDE8F09F5E49000025
:1003400040EA010310B59B070FD1042A0DD310C852
:1003500008C9121F9C42F8D020BA19BA884201D9A4
:10036000012010BD4FF0FF3010BD1AB1D30703D0EC
:10037000521C07E0002010BD10F8013B11F8014BA2
:100380001B1B07D110F8013B11F8014B1B1B01D1BE
:10039000921EF1D1184610BD10B5431C02E010F8B2
:1003A000011B71B18107FAD14FF0013202C88C1ADA
:1003B0008C4314EAC211F9D0C01A0A0603D0C01E39
:1003C00010BDC01A10BD0A0401D0801E10BD090264
:1003D000FCD0401E10BD032A40F2308010F0030C08
:1003E00000F0158011F8013BBCF1020F624498BF88
:1003F00011F801CB00F8013B38BF11F8013BA2F125
:10040000040298BF00F801CB38BF00F8013B11F09F
:10041000030300F09E82083AC0F0088051F8043BC4
:10042000083A51F804CBA0E80810F5E7121D5CBFAC
:1004300051F8043B40F8043BAFF30080D20724BFDF
:1004400011F8013B11F801CB48BF11F8012B24BF73
:1004500000F8013B00F801CB48BF00F8012B7047C2
:100460004FF000020429C0F0128010F0030C00F0DD
:100470001B80CCF1040CBCF1020F18BF00F8012B5B
:10048000A8BF20F8022BA1EB0C0100F00DB85FEA29
:10049000C17C24BF00F8012B00F8012B48BF00F8F5
:1004A000012B70474FF0000200B513469446964664
:1004B000203922BFA0E80C50A0E80C50B1F1200177
:1004C000BFF4F7AF090728BFA0E80C5048BF0CC025
:1004D0005DF804EB890028BF40F8042B08BF704783
:1004E00048BF20F8022B11F0804F18BF00F8012BF5
:1004F000704770477047704770472DE9FF4F0C46B3
:100500001E464FF0FF378BB0D2E90001DDF8608066
:100510000A908A46C1F30A5505B93D4600210846AE
:100520004FF00000BAF1000F00F4400005DA00EBD4
:1005300080004FF4400101EA50004FEA9059B9F1B0
:10054000010F00DDB9460A9850EA4A000ED044F681
:100550001050A5F2FF3545432F14B8F1000F1ED0FF
:100560007542291E1EDDC9F100021CE0B8F1010F21
:100570004FF0000001D0302103E0F24305E02154A8
:10058000401CB042FBDB30460022002121540B9975
:10059000C1F80880C1E900200FB0BDE8F08FBD1B95
:1005A0006D1CDEE74A4600DA694206A800F08EFAC2
:1005B00006AB93E8070003AB83E8070050460A99AF
:1005C00000F06FFB8DE80700A0F500501F38009089
:1005D0000398002D0ADD42F21F014A460844002319
:1005E00003A90390684600F0D8FD09E0A0F500508B
:1005F0004A461F38002303A90390684600F0E2FD35
:100600008DE807000004000C03D04FF0FF304108D4
:1006100000E01046B8F1000F03D00022009215460A
:100620001EE0751E05D400F0CBF9303262556D1E08
:10063000F9D5B3460122084302D000227F1C04E012
:100640002078302801D100227F1E002A099784D00B
:100650001DE0112D07DA00F0B3F9303262556D1C40
:1006600050EA0102F5D1084302D00098C8B10EE06B
:100670000021681E05E0235C625C63542254401E26
:10068000491C8142F7DBAB46A81B401E09900020A5
:1006900004F80B000B98099AC0F80880C0E9002BF9
:1006A0007AE711264FF0000857E72DE9F04F88460A
:1006B0000446D21D22F0070191B0D1E90001CDE935
:1006C0000A0103F087FA02460B98C00F01D02D20D3
:1006D00007E02068810701D52B2002E0202101EAF4
:1006E000C000032A099001D0072A05DB03464146D2
:1006F000204600F0ABF90BE12078800601D5E069D7
:1007000000E00620B8F1650F814606D0B8F1660F0B
:1007100018D0B8F1670F70D131E00020B9F1110F96
:10072000009001DB112301E009F101030AAA01A9EC
:100730000CA8FFF7E2FEDDE90C70002609F10105C7
:10074000834647E001204B4600904FF000470AAA3D
:1007500001A90CA8FFF7D1FEDDE90DB00C995D46AB
:10076000002610B909F101000D18B9EB050003D4FA
:10077000C0F1FF3609F10105A5EB09002BE0B9F145
:10078000010F01DA4FF001090020B9F1110F0090BB
:10079000484601DD112300E003460AAA01A90CA87E
:1007A000FFF7ABFEDDE90C704D460026834620784E
:1007B00000070AD4AB4500DA5D4601A8012D04DD2F
:1007C000411911F8011C302907D04F4502DA17F101
:1007D000040F04DA012082460FE06D1EEEE7002FC1
:1007E00002DCED1B3E4403E0781CA84200DD7D1CCA
:1007F000B81B00F1010A4FF000472078000703D42E
:10080000AA4501DB4FF0FF3A0021B7F1004F0DF18F
:1008100043088DF8431024D002202B23002F01DA47
:100820007F422D230A21021EA0F1010000DC5FB1EE
:1008300097FBF1FC97FBF1F201FB1C7C17460CF1D6
:10084000300C08F801CDEEE7A8F101000370218813
:10085000090501D5452100E06521A0F1010800F856
:10086000011C09980FA9A1EB0807FF1D00B1012089
:10087000411901EBEA70A1693844081A401EA061D1
:100880002078C00602D42046AFF30080099828B132
:10089000D4E901219047206A401C20622078C006DC
:1008A00022D52046AFF300801EE0002E04DBB345C6
:1008B00002DD01A8805D00E03020D4E901219047ED
:1008C000206A401C2062761CAAF101005FEA000A3F
:1008D0000AD100F071F8C0680168405CD4E90121D8
:1008E0009047206A401C2062281EA5F10105DCDC2F
:1008F00007E0D4E9012118F8010B9047206A401C59
:100900002062381EA7F10107F3DC2046AFF3008018
:10091000032011B041E6000001694A1C0261087819
:10092000704700B58FB0CDE901310021059105492F
:100930007944CDE9031011466846FFF765FC0FB016
:1009400000BD0000E5FFFFFF0A6802F8010B0A6026
:10095000704710B5203AC0F00B80B1E81850203A2B
:10096000A0E81850B1E81850A0E81850BFF4F5AF4F
:100970005FEA027C24BFB1E81850A0E8185044BFD9
:1009800018C918C0BDE810405FEA827C24BF51F846
:10099000043B40F8043B08BF7047D20728BF31F83A
:1009A000023B48BF11F8012B28BF20F8023B48BF8B
:1009B00000F8012B7047000000487047F805002040
:1009C00030B5B0F10A024FEA900E71F100034EEA21
:1009D000817EB0EB0E0061EB91014FEA101E4EEAF2
:1009E000017E10EB0E0041EB11114FEA102E4EEA82
:1009F000016E10EB0E0041EB11214FEA104E4EEA52
:100A0000014E10EB0E0041EB1141401841F1000185
:100A10004FEAD00040EA41704FEAD10110EB800567
:100A20004FEA810444EA907444EB01046D1944EBED
:100A30000404521BA3414FF0000348BF0A3200D503
:100A400030BD401C41F1000130BD00002DE9F041F6
:100A50001F46044603260168072A01F4006004DBF0
:100A600008B116A505E016A503E008B115A500E03C
:100A700015A521F010002060A069C01EA0610FB173
:100A8000401EA0612046AFF300804FB1D4E90121A0
:100A900038469047206A401C2062C01C206206E055
:100AA000206AFAE7D4E9012115F8010B9047761E78
:100AB000F8D22046AFF30080BDE8F0814E414E00F1
:100AC0006E616E00494E4600696E66002DE9F04782
:100AD000814616468AB0354878440DC88DE80D0029
:100AE00032487844801C03AC0DC884E80D0041F600
:100AF0009B300844372190FBF1F290FBF1F5A5F112
:100B0000800501FB12041B3C02D56442012000E079
:100B10000020DFF898A080460027FA44AAF1BE0A18
:100B20000EE0E0070AD03246684607EB4701012392
:100B30000AEB810100F046FB8DE8070064107F1C82
:100B4000002CEED1194F7F44AE3F19E0E80715D0D5
:100B500007EB04100DF1180A90E80E008AE80E0069
:100B6000C068F04201D1981908903246012306A9C5
:100B700003A800F027FB03AB83E807006D10641C9B
:100B8000002DE3D14FF0010332466946B8F1000F62
:100B900003A802D000F001FB01E000F013FBC9E95B
:100BA0000001C9F808200AB0BDE8F0872C41000018
:100BB00000487047D80500207546FFF7F9FFAE469C
:100BC00005006946534620F00700854618B020B559
:100BD000FFF7F4FABDE820404FF000064FF00007A1
:100BE0004FF000084FF0000B21F00701AC46ACE8D5
:100BF000C009ACE8C009ACE8C009ACE8C0098D4642
:100C0000704710B50446AFF300802046BDE81040A1
:100C1000FFF7C0BA4FF0013C50F8042B51F8043BE9
:100C20009A4221D1A2EB0C03934313EACC1317D1C0
:100C300050F8042B51F8043B9A4215D1A2EB0C0357
:100C4000934313EACC130BD150F8042B51F8043B17
:100C50009A4209D1A2EB0C03934313EACC13DBD0E5
:100C60004FF00000704700BFD01A01BAB1FA81F10D
:100C700001F0180122FA01F0CB40C1F12001DBB2F2
:100C8000C0B2C01A2CFA01F3D11A914311EAC31170
:100C9000E6D1704701491820ABBEFEE726000200EE
:100CA00070475FEA400C08BF91F0000F4FEA8C23B9
:100CB0004FEAC12243EA51514FEA1C5018BF00F5D8
:100CC000F0404FEA300018BF41F000415FEA6C5C31
:100CD00000F02980BCF1FF3F08BF40F08040704722
:100CE000130C06BF12044FF0100C4FF0000C130E43
:100CF00004BF12020CF1080C130F04BF12010CF117
:100D0000040C930F04BF92000CF1020CD30F04BF2C
:100D100052000CF1010C11464FF00002A0F11F002F
:100D2000A0EB0C00704711F0004F08BF704731F086
:100D300000413FF4D5AF0B0C06BF09044FF0100C77
:100D40004FF0000C0B0E04BF09020CF1080C0B0F46
:100D500004BF09010CF1040C8B0F04BF89000CF1D6
:100D6000020CCB0F04BF49000CF1010CCCF12003A5
:100D7000A0EB0C0022FA03F302FA0CF241EA0301A1
:100D800000F10100704720F07F4C80EA030023F05F
:100D90007F47ACEB070303F57C5300F0004003F101
:100DA000FF032DE980494FEA154B09B44FEA14437C
:100DB00025EA0B4E24EA03480FF2042606EB13271C
:100DC00049083E785FEA320203FB0667C7F5000771
:100DD00007FB06F64FEA54374FEAD64606F10206FD
:100DE00007FB066CCCF1005C4FEA1C472CEA074C71
:100DF00007FB06F40CFB06F504EB15464FEA9616C6
:100E000034BF00204FF000404FEAD13706FB07FC0B
:100E10004FEA1C4C0CFB0BF7D21B03FB0CF761EBEE
:100E200007010CFB0EF7B0EB074072EB17420CFB0F
:100E300008F734BFA2EB0742B2EB074261EB174160
:100E40004FEA0C444FEA910706FB07FC4FEA1C4CA3
:100E50000CFB0BF7B0EBC74072EB573203FB0CF700
:100E600034BFA2EBC742B2EBC74261EB57310CFB78
:100E70000EF7B0EBC70072EB57720CFB08F734BFEC
:100E8000A2EBC702B2EBC70261EB5771039F4FEAB7
:100E9000816141EA921104EBCC044FEAD1374FEA69
:100EA000826206FB07FC42EA90124FEA80604FEA3A
:100EB0001C4C0CFB0BF7D21B03FB0CF761EB07017F
:100EC0000CFB0EF7B0EB074072EB17420CFB08F778
:100ED00034BFA2EB0742B2EB074261EB17414FEA86
:100EE0008C554FEA910704EB9C2406FB07FC4FEA64
:100EF0001C4C0CFB0BF7B0EBC74072EB573203FBFB
:100F00000CF734BFA2EBC742B2EBC74261EB5731DB
:100F10000CFB0EF7B0EBC70072EB57720CFB08F737
:100F200034BFA2EBC702B2EBC70261EB577115EBFE
:100F30004C254FEA816141EA92114FEA82624FEA01
:100F4000D13742EA901206FB07FC44F100044FEA55
:100F500080604FEA1C4C0CFB0BF7D21B03FB0CF719
:100F600061EB07010CFB0EF7B0EB074072EB174289
:100F70000CFB08F734BFA2EB0742B2EB074261EB70
:100F8000174115EB1C154FEA813141EA92414FEAB6
:100F9000823242EA90424FEA80304FEA0C7644F1C6
:100FA000000448EA03434EEA0B484FF0000EB2EB50
:100FB000080C71EB030724BF624639464EEB0E0E58
:100FC0004FF0000B0018524149414BEB0B0BB2EBB9
:100FD000080C71EB03077BF1000B24BF6246394616
:100FE0004EEB0E0E4FF0000B0018524149414BEBF7
:100FF0000B0BB2EB080C71EB03077BF1000B24BF6A
:10100000624639464EEB0E0E51EA020718BF46F013
:10101000010616EB0E7655F1000254F1000103D5DE
:10102000BDE88901BDE80088BDE88901BDE8004848
:10103000B619524141EB0101A3F1010370478080D1
:101040007F7E7D7C7B7A7978777676757473727122
:1010500071706F6E6E6D6C6C6B6A6A6968686766DA
:1010600066656464636362616160605F5F5E5E5D6C
:101070005D5C5C5B5B5A5A595958585757565655E0
:1010800055555454535352525251515050504F4F42
:101090004F4E4E4D4D4D4C4C4C4B4B4B4A4A4A4992
:1010A00049494848484747474746464645454544D5
:1010B0004444444343434342424242414141002B62
:1010C0009C4630D477002BD01CB54FEA370703B4C9
:1010D0004FF010004FF01001BAF1000F06D0BCF134
:1010E000000FDCBF40F0080040F008014FF00000A6
:1010F0000FBCBDE810400BF1010BBBF1010F08BFA5
:101100005FEA170722BF12F1010211F101014FF04E
:10111000004143F1000300F0004043EA0000704743
:10112000F9D35708D0E746EA064613F1400F4FEAD5
:1011300016461FDD13F1200FDFBF16430A460021BC
:1011400020335B42BED0C3F1200746EA064602FACE
:1011500007F74FEA164646EA0706C3F1200722FAC8
:1011600003F201FA07F721FA03F14FF0000342EA14
:101170000702A7E746EA020646EA06464FEA16468F
:1011800046EA0106BCBF46EA0646360C4FF00003AD
:101190004FF000024FF0000194E72DE9804C9A4691
:1011A000934670B491E8380007C831EA400C48BF54
:1011B00034EA430C03D5FFF7E6FDFFF780FFF0BCF0
:1011C000BDE8008C2DE9804C9A46934670B491E8B6
:1011D000380007C810F0804F08BF13F0804F03D1CC
:1011E00000F005F8FFF76BFFF0BCBDE8008C20F0C5
:1011F0007F4780EA030023F07F4C07EB0C03A3F545
:101200007C5300F00040A3F1FE0392F0000F00F0C9
:10121000B38095F0000F00F077802DE901494FEA87
:1012200011404FEA144621EA004800FB06FC24EA7C
:10123000064708FB06F607FB08F800FB07F718EB64
:1012400006484CEB164C4FEA124B18EB07484FEA96
:1012500015464CEB174022EA0B4E0BFB06FC25EA29
:1012600006470EFB06F607FB0EFE0BFB07F71EEB11
:10127000064E4CEB164C4FF000061EEB074E4CEBA7
:10128000174B18EB0B0840F1000018EB0E0B58EB56
:10129000000840F100008F1A4FF000013CBFC94325
:1012A000661B14BFB5EB040C00213CBFC943F61B01
:1012B0004FEA17444EEA8E0E27EA04454FEA1C47D0
:1012C00004FB07622CEA074C05FB07F70CFB05F64D
:1012D00004FB0CFC16EB074642EB174216EB0C46E0
:1012E00042EB1C421BEB060658EB0202414146EA68
:1012F0009E0601D5BDE80189B619524141EB0101B5
:10130000A3F10103BDE801894FEA14454FEA1147F3
:1013100024EA054621EA074C05FB07F406FB07F71C
:101320000CFB06F105FB0CFC11EB074144EB1744E9
:101330004FEA124711EB0C4144EB1C4422EA074CE4
:1013400005FB07F206FB07F70CFB06F605FB0CFC9A
:1013500016EB074642EB174216EB0C4642EB1C45D8
:101360006A1854F1000148BF7047B619524141EB69
:101370000101A3F10103704795F0000F37D04FEA48
:1013800011424FEA144721EA024624EA074C02FBC5
:1013900007F106FB07F70CFB06F402FB0CFC14EB51
:1013A000074441EB17414FEA154714EB0C4441EB5E
:1013B0001C4125EA074C02FB07F506FB07F70CFB6F
:1013C00006F602FB0CFC16EB074645EB174516EB41
:1013D0000C4645EB1C42121951F1000148BF704701
:1013E000B619524141EB0101A3F1010370474FEAE5
:1013F00014454FEA114724EA054621EA074C05FB4C
:1014000007F106FB07F70CFB06F24FF0000605FBA1
:101410000CFC12EB074241EB174112EB0C4251EB73
:101420001C4148BF7047921841EB0101A3F1010331
:101430007047FEE7704772B6FEE710B590F82110CE
:101440000022022905D00421816380F82020012098
:1014500010BD01680B6823F00E030B6001680B6878
:1014600023F001030B6090F84030C46B012101FAB6
:1014700003F3636080F8211080F82020104610BD2F
:1014800010B590F821100024022903D004218163B3
:1014900001243DE001680A6822F00E020A6001683A
:1014A0000A6822F001020A601A4A0168914201D1D9
:1014B000012121E0174A1432914201D110211BE091
:1014C000144A2832914201D1891515E0114A3C3263
:1014D000914201D189140FE00E4A5032914202D15B
:1014E0004FF4803108E00B4A6432914202D14FF44C
:1014F000801101E04FF08071064A083A51600121E5
:1015000080F82110002180F82010416B01B188473C
:10151000204610BD0800024070B5044600F008F9EE
:101520000546601C02D004480078044400F000F92D
:10153000401BA042FAD370BD0C0000202DE9F84FEB
:10154000DFF8B8910024A9F1040B23460F2709F115
:10155000040AABF1040EC9E00125A5402A40AA42C5
:101560007DD1674ED1F804C0ACEB0608B44532D04B
:1015700014DCBCF1030F3AD009DCBCF1000F2AD017
:10158000BCF1010F1CD0BCF1020F31D11DE0BCF148
:10159000110F17D0BCF1120F2AD119E0B8F5881F2E
:1015A00019D006DCB8F5803F15D0B8F5801F1FD1E3
:1015B00011E0B8F5001F0ED0B8F5041F18D10AE0ED
:1015C000CB6815E0CB681B1D12E0CB6808330FE039
:1015D000CB680C330CE08B682BB1012B4FF0080368
:1015E00003D0456104E0042302E0056100E000232C
:1015F000FF2A01D8064601E000F104064FEA8405FF
:1016000001D9A5F12005D6F8008007FA05FC28EAE3
:101610000C0803FA05F548EA0508C6F800804D688D
:10162000ED0062D5374DAE6946F00106AE61AD6999
:1016300024F0030605F001050095334D06EB050C7B
:10164000DCF80850A607360F07FA06F825EA080561
:10165000DFF8B880404503D14FF0000817E044E0C0
:10166000DFF8AC80404502D14FF001080FE0DFF811
:10167000A480404502D14FF0020808E0DFF89880CE
:10168000404502D14FF0030801E04FF0040808FA8A
:1016900006F848EA0508CCF808804D68D9F80060DB
:1016A000ED024D4601D5164300E096432E604D688D
:1016B000DAF80060AD02554601D5164300E09643C6
:1016C0002E604D68DBF80060AD035D4601D5164322
:1016D00000E096432E604D68DEF80060ED0375462D
:1016E00001D5164300E096432E60641C0D682A461F
:1016F000E5407FF431AFBDE8F88F000008040140F9
:1017000000001110001002400000014000080140DC
:10171000000C0140001001400014014080680840A6
:1017200000D0012070470AB1016170470904FBE74E
:1017300001488068704700000C00002070B504006C
:1017400025D094F83D00002520B984F83C5020466F
:1017500000F014FB242084F83D002068016821F08B
:10176000010101602068016841F4004101602068C6
:10177000016821F40041016000F07AFC4D4A616883
:10178000914201D84C4900E04C49884201D20120E5
:1017900070BD4B492368B0FBF1F15E6826F03F064F
:1017A0000E435E606368934206D94FF496735943C3
:1017B0004FF47A73B1FBF3F12368491C1E6A26F0DB
:1017C0003F06314319626168914210D84900401EBA
:1017D000B0FBF1F2521CC2F30B02042A01D2042026
:1017E00022E0B0FBF1F0401CC0F30B001CE0A2684B
:1017F000F2B301EBC10303EB0116431EB3FBF6F397
:101800005B1C43F480431B0549D092B301EBC1023A
:1018100002EB0111401EB0FBF1F0401CC0F30B00C5
:1018200040F4804040F400402168CA694CF6FF73E0
:101830009A431043C861D4E9071001432068026845
:1018400022F0C00211430160D4E903010143206882
:10185000826848F2FF339A4311438160D4E905015D
:1018600008432168CA6822F0FF021043C86001E003
:101870000EE016E02068016841F001010160256476
:10188000202084F83D00256384F83E50002070BD80
:1018900001EB4106431EB3FBF6F35B1CB3E70120EB
:1018A000C2E701EB4101401EB0FBF1F0401CC0F368
:1018B0000B00B7E7A086010080841E0000093D00F0
:1018C00040420F002DE9F84F1F4690468A460446D5
:1018D000DDF82890FFF72CFF054694F83D002028FE
:1018E0007FD11923012240492046009501F0CEFA0C
:1018F000002876D194F83C00012872D0012084F8A9
:101900003C0020680168C90703D1016841F001016A
:1019100001602068016821F400610160212084F8E1
:101920003D00102084F83E0000262664C4F8248080
:101930006785608D20852D48E0622B464A465146DA
:10194000204601F057F990B92068416980690090FC
:1019500036E02A464946204601F076FB50B1206C1D
:10196000042804D12068016841F40071016001205D
:10197000BDE8F88F606A216800780861606A401CE1
:101980006062618D491E6185218D491E89B2218564
:1019900022685369DB435B070BD451B100781061B7
:1019A000606A401C6062608D401E6085208D401E14
:1019B00020852A464946204601F03CFA0028CED12F
:1019C000208D0028C5D154F83D0B016841F4007109
:1019D0000160202004F81E09E67766770020C7E73B
:1019E000FFE70220C4E70000020010000000FFFF34
:1019F0002DE9FF4F83B00025DDE910799A46934623
:101A00000446DDF848800095FFF792FE064694F8FC
:101A10003D0020287CD119230122884920460096C8
:101A200001F034FA0028F5D194F83C0001286FD079
:101A3000012084F83C0020680168C90703D10168CF
:101A400041F0010101602068016821F4006101603A
:101A5000222084F83D00402084F83E00256467621F
:101A6000A4F82A90608D20857548E062CDE9008653
:101A700053465A462046049901F00AF900287CD1C1
:101A8000208DDFF8C091202768B1012814D00228EA
:101A9000206801681ED041F48061016020684169BE
:101AA00080690090BCE0206841698169009101680B
:101AB00041F400710160B3E02068016821F48061A5
:101AC000016072B62068416981690091016841F442
:101AD00000710AE041F40061016072B6206841695A
:101AE00081690091016821F48061016062B697E02C
:101AF000032865D801280CD0022843464FF0000285
:101B00004946204600960BD001F0C0F9A8BB0CE076
:101B100091E032464146204601F05EFA68BB72E031
:101B200001F0B4F948BB72B633E02068016821F4D3
:101B30008061016072B620680069616A0870606A3D
:101B4000401C6062208D401E2085608D401E608597
:101B50003D4846F2A8110068B0FBF1F0C0EBC000B0
:101B600000EB80000090401E009007D02068406984
:101B7000C04340070DD50098F5E727E044F8305FF3
:101B80006773A573206940F02000206162B6257359
:101B90001CE02068016841F4007101602068006960
:101BA000616A0870606A401C6062218D491E21854F
:101BB000618D491E618562B621680969017026E060
:101BC00032464146204601F007FA18B1012007B01D
:101BD000BDE8F08F20680069616A0870606A401C87
:101BE0006062208D401E81B22185608D401E60851F
:101BF00020684269D243520712D4032903D10168F5
:101C000021F48061016020680069616A0870606A7F
:101C1000401C6062208D401E2085608D401E6085C6
:101C2000208D00287FF464AF84F83D7084F83E5026
:101C300084F83C50CBE70220C9E700000200100006
:101C40000000FFFF04000100180000202DE9FF4FF5
:101C500083B09A46DDE9119793460446DDF840804B
:101C6000FFF766FD054694F83D0020287FD1192333
:101C7000012240492046009501F008F9002876D15C
:101C800094F83C00012872D0012084F83C002068C0
:101C90000168C90703D1016841F0010101602068B2
:101CA000016821F400610160212084F83D0040209A
:101CB00084F83E0000262664C4F82480A4F82A9004
:101CC000608D20852C48E062CDE9007553465A4668
:101CD0002046049901F05AF870B930E02A46394696
:101CE000204601F0B1F958B1206C042804D12068D5
:101CF000016841F400710160012007B0BDE8F08F78
:101D0000606A216800780861606A401C6062218D09
:101D1000491E89B22185628D521E628522685369EF
:101D2000DB435B070BD469B100781061606A401C2B
:101D30006062208D401E2085608D401E6085208D54
:101D40000028CBD12A463946204601F073F80028F6
:101D5000CAD154F83D0B016841F4007101602020A4
:101D600004F81E09E67766770020C6E7FFE7022041
:101D7000C3E70000020010000000FFFF30B585B08F
:101D8000002100910191029103911E4D03681E4CA8
:101D9000122103221D48AB4216D1A36943F0080368
:101DA000A361A369039203F008030493C023CDE960
:101DB00000316946FFF7C2FBE06940F40010E061C2
:101DC000E06900F4001019E0114DAB4217D1A3698E
:101DD00043F00803A361A369039203F0080304938B
:101DE0004FF44063CDE900316946FFF7A7FBE06996
:101DF00040F48000E061E06900F48000049005B0E8
:101E000030BD00000054004000100240000C0140B2
:101E10000058004002488168027811448160704790
:101E20000C000020074810B5016841F01001016066
:101E3000032000F075F80E2000F006F800F024F8FA
:101E4000002010BD0020024070B50D4D04464FF437
:101E50007A712878B1FBF0F00A490968B1FBF0F01B
:101E600000F0DCFA48B9102C07D200222146501E9F
:101E700000F036F800206C6070BD012070BD0000DD
:101E80000C000020180000200C4808B5816941F0C2
:101E900001018161816901F001010091C16941F095
:101EA0008051C161C06900F08050009004484168D1
:101EB00021F0E06141F00071416008BD0010024076
:101EC00000000140002809DB00F01F0201219140C1
:101ED0004009800000F1E020C0F8001170470000C8
:101EE000F0B40E4B1B680C46C3F30223C3F1070585
:101EF000042D00D90425191D072901D2002300E073
:101F0000DB1E012606FA05F1491E214099409E403C
:101F1000761E16403143F0BC01F070BE0CED00E0BF
:101F2000064900F0070208684FF6FF03184040EA30
:101F30000220034A10430860704700000CED00E0E7
:101F40000000FA052DE9F0470F46050061D0434E29
:101F5000306800F00700B84209D2306820F007006E
:101F600038433060306800F00700B84251D128682B
:101F70003B4C810712D5400703D5606840F4E06010
:101F800060602878000703D5606840F460506060A6
:101F90006068A96820F0F000084360602878C007F6
:101FA00028D06868012810D02168022810D089073D
:101FB00000292EDA616821F0030101436160FFF717
:101FC000B7FB804641F288390DE021688903EFE7CD
:101FD0008901EDE7FFF7ACFBA0EB0801494502D909
:101FE0000320BDE8F0876068696800F00C00B0EB82
:101FF000810FEFD1306800F00700B8420BD930688C
:1020000020F0070038433060306800F00700B84225
:1020100001D00120E5E72878400705D56068E96828
:1020200020F4E060084360602878000706D5606807
:10203000296920F4605040EAC100606000F038F87F
:102040006168084AC1F30311515CC8400649086041
:1020500006480068FFF7F8FE0020C2E700200240B3
:1020600000100240624B0008180000201000002001
:102070000448054900684968044AC1F30221515CDB
:10208000C84070471800002000100240724B000842
:102090000448054900684968044AC1F3C221515CFB
:1020A000C84070471800002000100240724B000822
:1020B0000E4A51680E4801F00C03042B11D0082B76
:1020C0000FD10C48C1F38343C903C05C0AD55168E2
:1020D000084AC1F34041921E515C054A5043B0FB8F
:1020E000F1F0704704494843704700000010024077
:1020F00000127A00524B000800093D002DE9F84F0C
:10210000040070D02078C04DC00749D06868C0F383
:102110008100012807D06868C0F38100022809D136
:102120006868C00306D52868800339D56068002830
:10213000E7D035E06068B0F5803F0BD010B1B0F566
:10214000A02F11D0286820F480302860286820F45F
:10215000802002E0286840F480302860606890B1F8
:10216000FFF7E6FA06460AE0286840F48020286077
:10217000F0E700BFFFF7DCFA801B642873D82868FB
:102180008003F7D50CE0FFF7D3FA064605E000BF61
:10219000FFF7CEFA801B6428F0D828688003F7D4B4
:1021A00020789A4E80074FF001094FF0000839D58A
:1021B000686810F00C0F07D06868C0F3810002282F
:1021C00009D16868C00306D42868800714D520693F
:1021D000012808D110E02069B0B1C6F80090FFF7DF
:1021E000A7FA074605E00AE1FFF7A2FAC01B02289A
:1021F000C4D828688007F7D52868616920F0F800FE
:1022000040EAC10028600DE0C6F80080FFF790FAB0
:10221000074604E0FFF78CFAC01B022823D8286881
:102220008007F7D4207800072CD57948A169D9B167
:10223000C0F80090FFF77CFA074604E0FFF778FA51
:10224000C01B02280FD8686A8007F7D571484FF481
:10225000FA510068B0FBF1F0009000BF0098411EF9
:102260000091FAD20EE080E0C0F80080FFF760FA3B
:10227000074604E0FFF75CFAC01B022875D8686ABD
:102280008007F7D42078400760D5E8690027C000B0
:1022900008D4E86940F08050E861E869012700F05F
:1022A000805000905C480168C90513D401688346DA
:1022B00041F480710160FFF73BFA824606E000BFFF
:1022C000FFF736FAA0EB0A0064284ED8DBF80000CE
:1022D000C005F5D5E06801280AD008B1052813D05B
:1022E000286A20F001002862286A20F0040002E039
:1022F000286A40F001002862E06841F2883B98B10A
:10230000FFF716FA82460BE0286A40F004002862C4
:10231000EEE700BFFFF70CFAA0EB0A0159455AD8C7
:10232000286A8007F6D50CE0FFF702FA824605E03E
:10233000FFF7FEF9A0EB0A0159454CD8286A80073F
:10234000F6D41FB1E86920F08050E861E06988B3F5
:102350006968C1F38101022944D00228C6F860806F
:1023600004D0FFF7E5F9044638E034E0FFF7E0F980
:10237000074604E0FFF7DCF9C01B02282BD82868C9
:102380008001F7D4206AB0F5803F05D16868A16864
:1023900020F4003008436860D4E908010843696804
:1023A00021F4741108436860C6F86090FFF7C0F923
:1023B000044606E025E000BFFFF7BAF9001B02283B
:1023C00009D828688001F7D51BE000BFFFF7B0F9F6
:1023D000001B022802D90320BDE8F88F286880017D
:1023E000F4D40EE00128F7D06868226A00F4803146
:1023F000914204D1616A00F47010884201D001203A
:10240000EAE70020E8E70000001002400000424236
:1024100080044242180000200070004010B5401EA9
:10242000B0F1807F01D3012010BD4FF0E024606146
:102430000F21601701F0E2FB0020A061072020615E
:10244000002010BD70B590F83C20012A26D0012450
:1024500080F83C40022280F83D2003685A689D685D
:1024600022F070060A6832435A600D4B02689A42A5
:1024700008D0B2F1804F05D00A4B9A4202D00A4BE5
:102480009A4204D1496825F080031943916080F88D
:102490003D40002180F83C10084670BD022070BD10
:1024A000002C0140000400400008004010B504006A
:1024B00003D094F83D0010B107E0012010BD0020CA
:1024C00084F83C00204600F01FF8022084F83D000C
:1024D000211D206801F034F9012084F8460084F8B9
:1024E0003E0084F83F0084F8400084F8410084F8FE
:1024F000420084F8430084F8440084F8450084F8DE
:102500003D00002010BD000008B500680649884263
:1025100008D10648C16941F00401C161C06900F0F9
:102520000400009008BD00000008004000100240B8
:1025300070B5044690F83C000025012817D001260C
:1025400084F83C60022084F83D002068826822F014
:10255000770222F47F4282600868502838D00DDC70
:1025600020284FD005DC90B3102811D14AE002207A
:1025700070BD302846D040280AD13BE060282FD0DB
:1025800070280DD0B0F5805F03D0B0F5005F12D099
:10259000012584F83D60002084F83C00284670BD89
:1025A000CB68D1E90121206801F013F92068816826
:1025B00041F0770109E0CB68D1E90121206801F001
:1025C00008F92068816841F480418160E1E719E001
:1025D000CA684968206801F0B1F95021206806E016
:1025E000CA684968206801F0BAF96021206801F0E2
:1025F000FAF8CEE7CA684968206801F09FF94021DF
:102600002068F4E7226801461046F0E700B585B07F
:102610000021009101910291039100680B498842C9
:1026200012D10B48816941F00801816180696946D6
:1026300000F0080004904FF4807000900220019098
:1026400003900448FEF77AFF05B000BD0008004083
:1026500000100240000C014070B5044690F83C00A8
:1026600000260D4601280FD0012084F83C006AB1F5
:10267000042A1DD0082A2FD00C2A3FD00126002082
:1026800084F83C00304670BD022070BD206801F027
:10269000B3F82068816941F008018161206881698F
:1026A00021F004018161206881692A69114311E0E8
:1026B000206801F0C9F82068816941F400618161F6
:1026C0002068816921F480618161206881692A69BB
:1026D00041EA02218161D2E7206801F0E1F8206837
:1026E000C16941F00801C1612068C16921F004019C
:1026F000C1612068C1692A69114311E0206801F0B5
:10270000FBF82068C16941F40061C1612068C169BA
:1027100021F48061C1612068C1692A6941EA02210E
:10272000C161ACE710B5040003D094F83D0010B1CE
:1027300007E0012010BD002084F83C00204600F096
:102740001EF8022084F83D00211D206800F0F8FFEB
:10275000012084F8460084F83E0084F83F0084F8A5
:10276000400084F8410084F8420084F8430084F873
:10277000440084F8450084F83D00002010BD7047F7
:1027800010B50446022249B104290ED0082913D0FD
:1027900094F84100012816D0012010BD94F83E00A5
:1027A0000128F9D184F83E200FE094F83F00012879
:1027B000F2D184F83F2008E094F840000128EBD1E2
:1027C00084F8402001E084F841200122206800F0D4
:1027D000F3FF0F492068884203D1426C42F4004263
:1027E00042642068884208D0B0F1804F05D0094982
:1027F000884202D00849884204D1816801F007016B
:10280000062903D0016841F001010160002010BDDC
:10281000002C014000040040000800407047704751
:10282000F8B5016804460868CA684B6910F00F0FD4
:102830004FF0000559D003F0010602F490773743BA
:1028400065D0C10705D0D10503D5616C41F0010108
:102850006164410705D5D90703D0616C41F00201DD
:102860006164810705D5D90703D0616C41F004018B
:102870006164010707D502F02001314303D0616C88
:1028800041F008016164616C00293AD0800604D5EA
:10289000900602D5204601F0A3F820684069616CDB
:1028A000C0F38010090700D460B3204601F071F82E
:1028B00020684069400621D52068143050E8001F88
:1028C00021F0400140E80012002AF5D1E06BA8B1E8
:1028D0006D494163E06BFEF7D3FD002811D0E06B3A
:1028E000416B01B0BDE8F040084783060FD5930661
:1028F0000DD52046BDE8F84001F072B82046FFF73C
:102900008EFFF8BD2046FFF78AFF6564F8BD266B91
:102910002023012E7CD1C6067AD5D60678D5086844
:102920004868009048694FF00206400640D5E16BC8
:10293000086840680004000CE8D0A28D8242E5D906
:10294000E085886920282DD020680C3050E8001FD1
:1029500021F4807140E80012002AF5D1206814307B
:1029600050E8001F21F0010140E80012002AF5D1D3
:102970002068143050E8001F21F0400140E80012A8
:10298000002AF5D184F84230256320680C3050E8E5
:10299000001F21F0100140E80012002AF5D1E06B81
:1029A000FEF74BFD6663A08DE18D401A81B22AE0EF
:1029B000A08DE18D401A81B2E08D0028A6D00029BB
:1029C000A4D022680C3252E8000F20F4907042E844
:1029D0000007002FF5D12068143050E8002F22F0B6
:1029E000010240E80027002FF5D184F8423025632A
:1029F00020680C3050E8002F22F0100240E800233D
:102A0000002BF5D166632046FFF708FFF8BDFFE70E
:102A100005062BD5150629D594F841002128F5D1B6
:102A2000A068B0F5805F01D12069B0B1206A411C77
:102A30002162216800784860E08C401E0004000C90
:102A4000E084E3D12068C16821F08001C160206882
:102A5000C16841F04001C160D8E7206A0088C0F336
:102A600008004860206A801C2062E5E74006CDD55A
:102A70005006CBD5CA68204622F04002CA6084F8CE
:102A8000413000F09DF8C1E78339000870B50400BB
:102A900004D094F84100002510B106E0012070BD7B
:102AA00084F84050204600F023F8242084F84100A8
:102AB0002068C16821F40051C160204600F0F2FF97
:102AC0002068016921F4904101612068416921F089
:102AD0002A0141612068C16841F40051C160656408
:102AE000202084F8410084F842006563002070BD16
:102AF00030B585B0002400940194029403940068DA
:102B0000184988422BD11848C16941F40031C1618C
:102B1000C16901F400310491816941F004018161CE
:102B20008069124D00F004000490042000900220FF
:102B300001900320039069462846FEF7FFFC082019
:102B4000CDE90004694628460294FEF7F7FC00220E
:102B500011462620FFF7C4F92620FFF7B3F905B088
:102B600030BD000000440040001002400008014059
:102B700090F84230202B01D00220704721B11AB1C9
:102B80000023036300F0EABF01207047704790F80C
:102B90004130202B01D00220704779B172B101621F
:102BA0008284C28400214164212180F841100068A0
:102BB000C16841F08001C16000207047012070476A
:102BC0007047FEE701684A69D24352050FD46FF49B
:102BD00080624A61002140F8301F202242738173D5
:102BE000026942F004020261017301207047002073
:102BF00070470000F8B50446C06A1E460D461746E9
:102C0000082807D0012805D010F5803F02D0206B9E
:102C1000122804D12068016841F4807101601346D4
:102C200000224FF001112046009600F02FF940B12C
:102C300020680068C00502D54FF4007020640320AE
:102C4000F8BD2069B0F5804F0ED00620216800EA5B
:102C5000D51040F0F000086133463A460B49204653
:102C600000F05CF978B902E005F0FE0000E0E8B29F
:102C700021680861054933463A46891F204600F01D
:102C80004DF90028DCD00120F8BD0000080001004B
:102C90002DE9F84F0446006889460B9D0168984667
:102CA000174641F4806101602068016841F4807139
:102CB000016000954FF0011B0022594620460A9BF7
:102CC00000F0E4F84FF4007A40B120680068C005D5
:102CD00001D5C4F840A00320BDE8F88F216809F0B1
:102CE000FE0008612B46284920460A9A00F016F992
:102CF000F0BB20684169806900902A4620460A9905
:102D000000F0A2F940B1206C04283AD12068016893
:102D100041F40071016034E0FEB2B8F1010F09D056
:102D20002168380A08612A4620460A9900F08CF981
:102D30000028E8D1206806612A4620460A9900F05A
:102D400083F90028DFD12068016841F480710160B7
:102D500000950022594620460A9B00F097F800286B
:102D6000B3D1216809F0FF0040F00100086100E0E4
:102D700007E02B46044920460A9A00F0CFF80028C5
:102D8000AAD00120A8E70000020001002DE9F843C5
:102D9000044600680D46DDE9089701689846164626
:102DA00041F4807101604B4600224FF00111204632
:102DB000009700F06BF848B120680068C00502D5A4
:102DC0004FF4007020640320BDE8F883216805F00B
:102DD000FE0008613B464A461549204600F09EF831
:102DE00088B920684169806900903A464946204682
:102DF00000F02AF948B1206C042804D12068016849
:102E000041F4007101600120DEE7F5B2B8F1010F75
:102E100009D02168300A08613A464946204600F048
:102E200013F90028E7D1206805610020CCE70000F5
:102E30000200010070B516460D4604461EE020460D
:102E4000FFF7C0FE08B1012070BD681C16D0FEF768
:102E50006FFC801BA84200D885B920684069C04338
:102E600040070BD5002044F8300F20216173A07378
:102E7000216941F0200121612073E4E72068406965
:102E8000C0434007DBD4002070BD00002DE9F047AF
:102E9000984617460D460446C1F30746DDF82090D4
:102EA0002AE000BFB8F1FF3F26D0FEF741FCA0EBBF
:102EB0000901414502D8B8F1000F1DD12068012E4B
:102EC00016D0806925EA00000004000C12D0002012
:102ED000B84211D1002044F8300F20216173A07353
:102EE000216941F02001216120730120BDE8F087B4
:102EF0004069E7E70120EBE72068012E0AD08069EE
:102F000025EA00000004000C06D00020B842C9D019
:102F10000020EBE74069F3E70120F7E72DE9F047F0
:102F2000984616460D4604464FF000094FF0200A19
:102F3000C1F3074723E020684069C043400515D42A
:102F40002068016841F40071016021686FF48060BD
:102F50004861C4F8309084F83DA084F83E90216C1C
:102F600041F00401216484F83C9021E0701C06D0FB
:102F7000FEF7DEFBA0EB0800B04203D816B1012F2C
:102F80001FD021E02068012F15D0806925EA0000BC
:102F90000004000C18D000BF44F8309F84F80DA046
:102FA00084F80E90216941F02001216184F80C9091
:102FB0000120BDE8F087406925EA00000004000C0C
:102FC000EAD12068406901E02068806925EA0000B4
:102FD0000004000CAFD1ECE72DE9F041002590464C
:102FE0000E460446202728E04069C043C0060CD4A2
:102FF00054F8301B6FF01000486144F8105967779F
:10300000A577206A2062257714E0FEF791FBA0EBFC
:103010000800B04200D886B920684069C043400625
:103020000BD544F8305F6773A573206940F020002A
:10303000206125730120BDE8F08120684169C94302
:103040004906D1D40020F6E770B516460D46044671
:103050001EE02046FFF7B6FD08B1012070BD681CD8
:1030600016D0FEF765FB801BA84200D885B9206802
:103070004069C04300060BD5002044F8300F2021E2
:103080006173A073216941F0200121612073E4E79D
:1030900020684069C0430006DBD4002070BD0000FA
:1030A0002DE9FF416420FEF737FA0027012503AE22
:1030B0008DF80C70FF240096CDE901546B222B464D
:1030C000D1211A48FEF7C2FD07208DF80C000096AA
:1030D000CDE9015419220123D1211448FEF7B6FD90
:1030E00006208DF80C000096CDE901541A22012328
:1030F000D1210E48FEF7AAFD08208DF80C0000969D
:10310000CDE901541B220123D1210848FEF79EFD81
:103110008DF80C700096CDE901541C220123D121B9
:103120000248FEF793FDBDE8FF810000F404002093
:103130002DE9F04385B000242C48009401940294BA
:103140000394816941F010018161816901F01001EE
:103150000491816941F020018161816901F02001C0
:103160000491816941F004018161816901F00401E8
:103170000491816941F0080181618069DFF8708004
:1031800000F008004FF400560490002231464046FB
:10319000FEF7C9FADFF85C9000220A214846FEF7E4
:1031A000C2FA0227012503970096CDE9015469462A
:1031B0004046FEF7C3F90A20CDE90005CDE90247F4
:1031C00069464846FEF7BAF92803CDE90004694686
:1031D00048460294FEF7B2F9009669464846CDE9A2
:1031E0000145FEF7ABF905B0BDE8F08300100240E1
:1031F00000100140000C01400D4810B50B49016062
:103200000C49416000214FF480428160C0E9031203
:1032100041618161C1610162FEF790FA002803D02B
:10322000BDE81040FEF707B910BD00000054004093
:10323000A0040020801A06000D4810B50B4901605B
:103240000C49416000214FF480428160C0E90312C3
:1032500041618161C1610162FEF770FA002803D00B
:10326000BDE81040FEF7E7B810BD00000058004070
:10327000F4040020801A060010B58EB000240794D4
:10328000089409940A940B941C2168460C94FDF749
:1032900009F91F481D49016040F2CF21C0E901141E
:1032A0004FF6FF71C0E903148461FFF7FFF808B11E
:1032B000FEF7C1F84FF48050079007A91448FFF7B4
:1032C00037F908B1FEF7B7F81148FFF72BFA08B144
:1032D000FEF7B1F80B940BA90D480C94FFF7B2F868
:1032E00008B1FEF7A8F86020CDE900040294082296
:1032F000694607480494FFF7AFF908B1FEF79BF859
:103300000348FFF783F90EB010BD0000000800402D
:10331000480500200C4810B50A4901604FF4E1311E
:103320004160002181600C22C160C0E9041281610A
:10333000C161FFF7ABFB002803D0BDE81040FEF7EA
:103340007AB810BD0044004090050020FEE7FEE77B
:1033500010B5AE2000F0D4F8022000F0D1F8102013
:1033600000F0CEF8402000F0CBF8B02000F0C8F814
:10337000812000F0C5F8CF2000F0C2F8A12000F0B5
:10338000BFF8A62000F0BCF8A82000F0B9F83F2054
:1033900000F0B6F8AD2000F0B3F88B2000F0B0F8E4
:1033A000332000F0ADF8C82000F0AAF8D32000F0D8
:1033B000A7F8002000F0A4F8D52000F0A1F8C02064
:1033C00000F09EF8D92000F09BF81F2000F098F83C
:1033D000DA2000F095F8122000F092F8DB2000F0DF
:1033E0008FF8402000F08CF800F008F800F050F959
:1033F000BDE81040AF2000F083B800004FF48061BA
:103400000148FDF72DB800009D0000203CB51C7858
:10341000059D203ACDE900455D68E41D5B78E40830
:10342000544303FB045200F0CBF83CBD2DE9FF4FA1
:1034300018785978C01DC00800254843001D83B086
:103440001C46174600F0FF0A2AE07819814600F072
:10345000A8FB5FEA000826D000260AE0616848461B
:1034600006FB0A1B42465946FCF76AFFF0B1761C80
:10347000F6B2207AB042F1D810980090E368B8F123
:10348000010F20D0DDE903012022FFF7BFFFE06834
:10349000417803980844C0B2039005EB080085B258
:1034A000785D0028D1D107B0BDE8F08F1099207861
:1034B000CDE900016378DDE903010BF1040200F0BE
:1034C0007FF86178E5E77A5DDDE90301FFF79EFFAC
:1034D000E0686D1CADB2417803980844C0B2039017
:1034E000DEE7000008B54FF0FF3200920B460246BF
:1034F0007A210248FEF7E6F908BD0000A00400208A
:103500000249487002210148FFF7ECBF0200002089
:103510002DE9FC4180460720CDE9000301F00704B6
:10352000CD08164602FA04F01F46C2B223464146B1
:10353000284600F089F8002C0CD0601EC0B2CDE9FE
:103540000007C4F1080026FA00F2681C0023414677
:1035500000F07AF8BDE8FC812DE9FC4301F0070694
:103560001446CD089846814601F0070106EB080293
:1035700004FA01F0099F082A16D90721CDE900179E
:10358000C2B233464946284600F05EF808EB060012
:103590000938C0B2CDE90007C6F1080024FA00F2EC
:1035A000681C0023494607E0521ED1B2CDE900173E
:1035B000C2B233464946284600F046F8BDE8FC83CF
:1035C0002DE9FF4F82B01D460F989346C70800F0C3
:1035D000070088460026019018E0029800240BEBB3
:1035E000060A00EB06090DE004FB05F0109B10F83D
:1035F0000A2008EBC400C1B209F0FF00FFF788FF02
:10360000641CE4B2BC42EFD3761CF6B2AE42E4D303
:103610000198002815D005FB07F6002408EBC70722
:103620000DE010980090311902981BF801202044F9
:10363000F9B2C0B2019BFFF78FFF641CE4B2AC4249
:10364000EFD306B0BDE8F08FF0B50828DDE90564DA
:1036500019D2802917D20CB1D243D2B2FF25761CE1
:1036600005FA06F6C3F10803084F46EA0204DD40F6
:1036700007EBC017044B785CB2432C43AA432040AD
:103680001A7010437854F0BD000000209D00002007
:1036900070B5104D40200024287005F1810600BF50
:1036A00004F1B000C0B2FFF72BFF0220FFF728FFA4
:1036B0001020FFF725FF06EBC4118022681CFCF7E1
:1036C0008AFE81210348FFF70DFF641CE4B2082C39
:1036D000E6D370BD1C00002070477047FEF79ABB10
:1036E00030B58FB028216846FCF7DCFE14210AA80B
:1036F000FCF7D8FE01210804CDE900100024029453
:1037000002250491CDE907504FF4E0100990684676
:10371000FEF7F4FC08B172B6FEE70F20CDE90A050A
:103720004FF48060CDE90C4002210AA80E94FEF708
:1037300009FC002801D072B6FEE70FB030BD70471B
:10374000F0B50268194B1A4C1A4D4FF08047984259
:1037500005D0B84203D0A04201D0A84203D122F044
:1037600070064A683243984205D0B84203D0A0425E
:1037700001D0A84203D122F44074CA6822434C69A4
:1037800022F08002224302608A68C2620A68826272
:10379000984201D109690163012141610169C907A9
:1037A00003D0016921F001010161F0BD002C01404D
:1037B000000400400008004010B501F01F03012183
:1037C000046A99408C430462016A9A401143016281
:1037D00010BD10B5846842EA032224F47F440A43F2
:1037E0002243826010BD826822F070020A4342F0D8
:1037F000070181607047000030B5036A026A22F059
:10380000010202624268846924F073050C682C434B
:1038100023F002058B682B430A4DA8420BD123F0FD
:103820000805CB6822F440722B434D6923F0040352
:1038300015438A692A43426084614968416303628F
:1038400030BD0000002C014030B5026A036A23F04D
:1038500010030362436884690D6824F4E64444EA73
:1038600005248D6822F0200242EA05120B4DA84281
:103870000ED1CD6822F0800242EA05124D6923F490
:10388000406343EA85038D6922F0400243EA8503E1
:103890004360846149688163026230BD002C01404D
:1038A00030B5036A026A22F4807202624268C46917
:1038B00023F4007324F073050C682C438D6843EAED
:1038C00005230C4DA8420ED1CD6823F4006343EAD2
:1038D00005234D6922F4405242EA05128D6923F412
:1038E000806342EA05124260C4614968C1630362B1
:1038F00030BD0000002C014030B5046A026A22F499
:10390000805202624268C3690D6823F4E64343EAC9
:1039100005238D6824F4005444EA0534064DA8427A
:1039200004D14D6922F4804242EA85124260C361AB
:1039300049680164046230BD002C014010B5036A7F
:10394000046A24F001040462846924F0F00444EA67
:10395000021423F00A020A438461026210BD10B50A
:10396000036A046A24F010040462846923F0A0034B
:1039700024F4704444EA023243EA01118261016294
:1039800010BD10B5406A0021C185C184FEF747FF14
:1039900010BD01680C3151E8002F22F4907241E80B
:1039A0000023002BF5D10168143151E8002F22F0DB
:1039B000010241E80023002BF5D1016B012909D157
:1039C00001680C3151E8002F22F0100241E8002379
:1039D000002BF5D1202180F84210002101637047AF
:1039E00008B590F84210222901D0022008BD826853
:1039F0004FF480539A4201D1016921B1816A9A4200
:103A00001BD04AB10AE00268816A5268C2F3080218
:103A10000A80816A891C08E0026972B102685268F2
:103A200002F07F020A70816A491C8162C18D491EC1
:103A30000904090CC18503D01BE002685268F1E754
:103A40000168CA6822F02002CA600168CA6822F4CC
:103A50008072CA6001684A6922F001024A6120212D
:103A600080F8421000214163026B012A03D0FFF766
:103A70008DF8002008BD016301680C3151E8002F6A
:103A800022F0100241E80023002BF5D101680A68FA
:103A9000D20602D50A6849680091818DFEF7BEFE04
:103AA000E7E7000070B5044600680169E26821F4A8
:103AB0004051114301612169A068084361690843CD
:103AC0002168CA6841F20C639A430243CA602068C5
:103AD0004169A26921F44071114341611E49206886
:103AE000884202D1FEF7D4FA01E0FEF7C1FA00EBFA
:103AF000C00101EB0012606864218000B2FBF0F3AA
:103B0000B3FBF1F36FF018067343B2FBF0F5B2FBB1
:103B1000F0F605EB8305322303EB0515B5FBF1F554
:103B2000B6FBF1F605F0F00505EB0615B2FBF0F675
:103B3000B2FBF0F0B0FBF1F06FF01802504306EB6F
:103B4000800003EB0010B0FBF1F0216800F00F00E3
:103B50002844886070BD0000003801408162828581
:103B6000C28500214164222180F84210016921B1FF
:103B70000168CA6842F48072CA6001684A6942F00A
:103B800001024A610068C16841F02001C160002063
:103B9000704700000148FEF743BE0000900500207A
:103BA000FEE70078010601D4012070470621B1EB41
:103BB000501F01D1022070470E21B1EB101F01D11F
:103BC000032070471E21B1EBD00F01D104207047B4
:103BD00000207047490050EAC12018BF04204A0D58
:103BE00018BF40F0010040F2FF72B2EB515F08BF16
:103BF00040F00200012808BF052070470907090EA0
:103C0000002804DB00F1E02080F80014704700F089
:103C10000F0000F1E02080F8141D704730380A28AA
:103C200001D201207047002070470000BAB0FEF7B3
:103C3000F9F8FFF755FDFFF77BFAFFF7DDFAFFF71D
:103C40001BFBFFF7F9FAFFF765FB1420FDF764FC97
:103C5000FFF77EFB002434943594369437943894DF
:103C600039942B942C942D942E942F943094319439
:103C700032943C210AA83394FCF714FC08218748AD
:103C8000FEF77EFD28943B2023902794299403225D
:103C900083492A948348FEF76BFFFFF701FA32222B
:103CA0000E2127A88DE807000123D1217E48239A01
:103CB000FDF79EFEBDF89C0040BA00B200F0AAFAE3
:103CC0006FF00D04224600F044FBCDE91F10BDF853
:103CD0009E0040BA00B200F09DFA224600F039FB87
:103CE0002690BDF8A0001B9140BA00B200F092FAF5
:103CF000224600F02EFB8246BDF8A4008B4640BA57
:103D000000B200F087FA694C0022234600F02AF93D
:103D10008046BDF8A600894640BA00B200F07AFAA3
:103D20000022234600F01EF90646BDF8A8000F4603
:103D300040BA00B200F06EFA0022234600F012F9F9
:103D4000CDE90801CDE906670D46CDE902AB044691
:103D50001B99CDE904892698CDE90001DDE91F32E0
:103D600053A10AA8FCF73CFADDE91F325FA134A891
:103D7000FCF736FA5FA136A81B9B269AFCF730FAAF
:103D800052465B465DA138A8FCF72AFA42464B46EC
:103D900056A12BA8FCF724FA32463B4655A12EA883
:103DA000FCF71EFA22462B4654A131A8FCF718FA5C
:103DB000544C4FF4805529462046FDF7AFFCB8B966
:103DC0000A20FDF7A9FB29462046FDF7A7FC78B994
:103DD0003348401E0178491C01700178012901D93E
:103DE0000021017029462046FDF798FC0028F9D0F3
:103DF000FDF79EFC2A4C641E6168401A64287FF619
:103E00004EAFFDF795FC6060FFF7F8FA207818B127
:103E1000207801281AD036E000243B4B3BA22146F3
:103E200020460094FFF702FB374B34AA10210020F4
:103E30000094FFF7FBFA344B36AA202100200094AF
:103E4000FFF7F4FA304B38AA009418E000242E4B08
:103E500032A2214620460094FFF7E8FA2A4B2BAA0B
:103E6000102100200094FFF7E1FA274B2EAA202111
:103E700000200094FFF7DAFA234B31AA0094302196
:103E80000020FFF7D3FAFFF703FC0AA8FCF784FA37
:103E900082B20AA90348FEF77AFE00E7480500202F
:103EA0000500002090050020F40400200060504030
:103EB000616363656C20783A25302E32662C793A3E
:103EC00025302E32662C7A3A25302E32660A6779F2
:103ED000726F20783A25302E32662C793A25302EB2
:103EE00032662C7A3A25302E32660000783A253038
:103EF0002E326600793A25302E3266007A3A253025
:103F00002E326600000C0140404B0008616363657F
:103F10006C65726174696F6E000000006779726F82
:103F200073636F706500000010B500290AD008782F
:103F3000002807D005487844FCF76CFE002801D023
:103F4000002010BD0248784410BD00000A0D00009A
:103F5000020D000002494FF0000000F0C8B900BF98
:103F60000000F87F2DE9C04130B4DFF8A0C23CEA80
:103F7000111418BF3CEA131400F0EC8081EA030529
:103F80001CEA111444EAD57418BF1CEA131500F09A
:103F9000C780A4EB05044FF0004545EAC12145EA7E
:103FA000C32341EA505143EA525304F17F749942CA
:103FB00004F500344FEAC0204FEAC22208BF904205
:103FC00000F09C804FEA13650FF24016765D4FEAD1
:103FD000134506FB05F7C7F1807706FB07F74FEAA5
:103FE000D737A7FB03687642C8F58038A7FB06CE13
:103FF00038BFA8F1010807FB08E64FF0000EA6FB4A
:10400000028CE6FB03CEDCF1000CCEF1004E38BF93
:10401000AEF1010EA6FB0C584FF000074FF0000563
:10402000E6FB0E87A1FB08C6A0FB07CE16EB0E062B
:1040300045F10005E1FB076515F1E04E7EBFA4F5F3
:1040400080345FEA46066D4116F1800745F10005B0
:104050004FEA17274FEA066647EA0567A6F1DE46EC
:10406000B6F1805F4FEA15251FD9384624F0010CC0
:1040700005EBC471BCF1FE6F01EB0C1102D8F0BC72
:10408000BDE8008124425CBF01F5801E9EEAC47F2A
:1040900002D4F0BCBDE80081244238D4F0BCA1F1C8
:1040A000C041BDE8004100F01AB94FEAD22242EA0D
:1040B00043524FEAD323A7FB02864FEAD02040EABF
:1040C000415007FB03661EEA0E0F4FEAD12105FBA4
:1040D000026658BFA6EB0056B6EB00564FEA520EEA
:1040E0004EEAC37E18EB0E0E56EB530EBDD518EB01
:1040F00002085E417F1C55F10005B6E74FF48015BC
:104100004FF000074FF000064FF00008ADE7F0BC9D
:104110004FF0000001F1C04101F00041BDE8008115
:1041200011EA0C1F0CEA131500D00CE013EA0C1F67
:1041300000F025804FF00000F0BC81EA030101F09F
:104140000041BDE80081F0BCBDE8004181EA030107
:1041500000F0C5B8F0BCBDE8004170B500F071F8E2
:10416000097EFC3E00F007B881EA03014FF0000031
:1041700001F00041704781EA030100F0B0B8F0BCE3
:10418000BDE800414FF0000021497047FFFDFBF9F9
:10419000F7F5F4F2F0EEEDEBE9E8E6E4E3E1E0DE7A
:1041A000DDDBDAD8D7D5D4D3D1D0CFCDCCCBCAC8EC
:1041B000C7C6C5C4C2C1C0BFBEBDBCBBBAB9B8B713
:1041C000B6B5B4B3B2B1B0AFAEADACABAAA9A8A806
:1041D000A7A6A5A4A3A3A2A1A09F9F9E9D9C9C9BD4
:1041E0009A9999989797969595949393929191907F
:1041F0008F8F8E8E8D8C8C8B8B8A89898888878710
:104200008685858484838382828181800000FF0784
:104210000000F87F10F0004248BF4042B0FA80F33F
:1042200010FA03F10AD0C3F11D0303F580634FEACE
:10423000415002EB035202EBD12170474FF00000D6
:1042400070470EF1020E2EF0030E5EF8046B36423C
:1042500005D4012A43EB030515F5001F12D80128E8
:1042600041EB010C1CF5001F0CD80ED14FEAD17C9C
:1042700015F5001F0CEB4C0C0CF1020C08BF4CEBBD
:10428000D37C04E04FF0080C01E04FEAD37C0CEB48
:104290004C0526FA05F606F00706B6F1040C06D220
:1042A0000EEB860CBDE870404CF0010C6047DFE877
:1042B0000CF0090B02024FF000414FF00000A1F595
:1042C000002170BD19461046012851EB010418BFAA
:1042D000D4F5001484BF002001F0004170BD08082F
:1042E000A0F500114FEA31017047FCF7DEB90CF080
:1042F0000F03092B08BF082000F059800A2B0BD0B0
:10430000082B18BF704708BF1CF0400F0AD04FF0B1
:1043100000004FF0000170471CF0400F18BF4FF035
:10432000004070471CF0100F08D020F0704300F0E0
:104330007F4242EAD3014FEA4370704700F0604089
:1043400021F07F4242EA000201F07F4040EA7270B1
:1043500070474FF0FF0C4CF4E06C1CEA11531CBF8B
:104360009CEA030C9445C2BFDA4201EB025170474C
:10437000002B0DD0BCF1000F0FD0002A01F000413E
:10438000A4BF41F0E04141F07F614FF00000704771
:1043900001F000414FF00000704750EA01334FF048
:1043A0009B0C18BF4CF0806C7FF4D4AD70471CF4AC
:1043B000801F11D01CF4E02F03D06FEACC314900EC
:1043C00070474FF04050EFF3008222F0704242EA13
:1043D000000282F3008870474FF000007047000031
:1043E00000000000000000000000000000000000CD
:1043F00000F8000000000000003330000000001052
:104400000C06100C0600000000000000000040C078
:104410007840C0784000043F04043F04040000706A
:1044200088FC08300000001820FF211E0000F00862
:10443000F000E018000000211C031E211E0000F007
:104440000888700000001E2123241927211010164F
:104450000E0000000000000000000000000000004E
:1044600000E01804020000000007182040000002CD
:104470000418E00000000040201807000000404041
:1044800080F0804040000202010F010202000000A3
:1044900000F0000000000101011F01010100000007
:1044A00000000000000080B070000000000000006C
:1044B00000000000000000010101010101010000F5
:1044C000000000000000003030000000000000008C
:1044D000000080601804006018060100000000E081
:1044E00010080810E000000F102020100F0000102E
:1044F00010F8000000000020203F20200000007085
:10450000080808887000003028242221300000307C
:104510000888884830000018202020110E00000074
:10452000C02010F8000000070424243F240000F8F5
:104530000888880808000019212020110E0000E0DA
:10454000108888180000000F112020110E0000387C
:104550000808C83808000000003F00000000007094
:10456000880808887000001C222121221C0000E01D
:1045700010080810E0000000312222110F00000096
:1045800000C0C0000000000000303000000000004B
:1045900000800000000000008060000000000000BB
:1045A0008040201008000001020408102000404054
:1045B0004040404040000404040404040400000897
:1045C000102040800000002010080402010000704C
:1045D00048080808F0000000003036010000C03034
:1045E000C828E810E0000718272423140B00000057
:1045F000C038E0000000203C23020227382008F8E1
:10460000888888700000203F202020110E00C030D4
:10461000080808083800071820202010080008F8AB
:1046200008080810E000203F202020100F0008F8A4
:104630008888E8081000203F20202320180008F870
:104640008888E8081000203F200003000000C030E8
:1046500008080838000007182020221E020008F869
:1046600008000008F808203F210101213F20000830
:1046700008F8080800000020203F2020000000006B
:104680000808F8080800C08080807F00000008F853
:1046900088C028180800203F20012638200008F88C
:1046A000080000000000203F20202020300008F8F3
:1046B000F800F8F80800203F003F003F200008F80D
:1046C00030C00008F808203F200007183F00E01025
:1046D00008080810E0000F10202020100F0008F834
:1046E00008080808F000203F210101010000E01047
:1046F00008080810E0000F18242438504F0008F86C
:10470000888888887000203F2000030C30200070CB
:104710008808080838000038202121221C001808C9
:1047200008F8080818000000203F2000000008F8E2
:1047300008000008F808001F202020201F0008782B
:10474000880000C83808000007380E010000F8088B
:1047500000F80008F800033C0700073C03000818B5
:1047600068808068180820302C03032C302008381B
:10477000C800C83808000000203F200000001008D2
:104780000808C8380800203826212020180000001A
:1047900000FE020202000000007F40404000000CCA
:1047A00030C000000000000000010638C000000218
:1047B0000202FE000000004040407F0000000000B8
:1047C00004020202040000000000000000000000DB
:1047D00000000000000080808080808080800002D7
:1047E00002040000000000000000000000000000C3
:1047F0008080808000000019242222223F2008F8B7
:10480000008080000000003F112020110E000000F9
:10481000008080800000000E112020201100000088
:1048200000808088F800000E112020103F2000003A
:10483000808080800000001F22222222130000803E
:1048400080F0888888180020203F20200000000089
:10485000808080808000006B94949493600008F8BE
:10486000008080800000203F210000203F20008049
:104870009898000000000020203F20200000000049
:1048800000809898000000C08080807F000008F8B9
:10489000000080808000203F24022D30200000088E
:1048A00008F8000000000020203F20200000808049
:1048B000808080808000203F20003F20003F80805B
:1048C000008080800000203F210000203F20000069
:1048D000808080800000001F202020201F0080801A
:1048E00000808000000080FFA12020110E00000049
:1048F000008080808000000E112020A0FF8080803A
:1049000080008080800020203F21200001000000E6
:1049100080808080800000332424242419000080BB
:1049200080E0808000000000001F202000008080C8
:10493000000000808000001F202020103F20808089
:1049400080000080808000010E3008060100808019
:104950000080008080800F300C030C300F0000803E
:104960008000808080000020312E0E312000808069
:1049700080000080808080818E7018060100008099
:104980008080808080000021302C222130000000B7
:104990000000807C020200000000003F4040000058
:1049A0000000FF00000000000000FF000000000207
:1049B000027C800000000040403F00000000000634
:1049C00001010202040400000000000000000000D9
:1049D00010080000DE430008E5B7A6000808080834
:1049E00088780F08080808080808080020104846BA
:1049F000414141417F41414141404000E58FB30089
:104A000008080808C8380F08080808080808080037
:104A100008040201FF41414141414141FF000000C2
:104A2000E5818F008060F80700FC242425262424DB
:104A3000243C00000000FF403C03FF097F097F0980
:104A400089FF0000E8A792002010E824272424E42E
:104A500024342C20E000000080601F090909097F30
:104A6000090949897F000000E8BF8700404042CC27
:104A700000084888080808FF080808000040201FB0
:104A8000204040414048504F40404000E5A4A7002E
:104A900020202020202020FF202020202020200057
:104AA00080804020100C0300030C10204080800008
:104AB000E5A7BF002021F20804108884473444840D
:104AC000940C0000048485945D57242424544C44A1
:104AD00084050500E6808100000484844424548F0A
:104AE0001424448484040000413900003C404042C6
:104AF0004C40407004093100E6ADA300000202C240
:104B0000020202FE82828282820200004040407FD6
:104B10004040407F4040404040404000E5B8B80041
:104B2000201808EAACA8A8AFA8A8ACEA0828180082
:104B300000003E02020202FF020212221E000000DA
:104B400010100000D84900080A000000D0490008F1
:104B5000010202030405060708090A0B0C0D0E0FDB
:104B6000101000000000000000000102030406070E
:104B7000080900000000010203040400000800000E
:104B800000000000000200010000100002400000D0
:104B9000000000A00000000005400000000000C868
:104BA000000000000C4000000000409C00000000DD
:104BB000194000000020BCBE00000000344000008E
:104BC000BFC91B8E00000004B5400000504BCFD081
:104BD0006607E2CF010000006C4100003E8251AA4E
:104BE000DFEEA73401000000D9420000DCB5A0E2EE
:104BF0003A301F97FFFFFFFFB4450000FD25A0C816
:104C0000E9A3C14FFFFFFFFFFF3F0000000000804E
:104C100000000000FF3F00000000008000000000D6
:104C20005C4C0008000000201C0000002801000867
:104C3000784C00081C0000201C0C000044010008F7
:104C40001C00000043000000F8FFFFFF0C00000004
:104C50000E0000000F0000002E0000000000000009
:104C60000000000000000000010000001000000033
:084C70000000000000127A00B0
:04000005080000ED02
:00000001FF
