:020000040800F2
:1000000070060020890100080F0B0008750A00081F
:100010000D0B00088F020008770B0008000000009D
:10002000000000000000000000000000130B0008AA
:100030009102000800000000110B0008150B0008D9
:10004000A3010008A3010008A3010008A301000800
:10005000A3010008A3010008A3010008A3010008F0
:10006000A3010008A3010008A3010008A3010008E0
:10007000A3010008A3010008A3010008A3010008D0
:10008000A3010008A3010008A3010008A3010008C0
:10009000A3010008A3010008A3010008A3010008B0
:1000A000A3010008A3010008A3010008A3010008A0
:1000B000A3010008A3010008A3010008A301000890
:1000C000A3010008A3010008A3010008A301000880
:1000D000A3010008A3010008A3010008A301000870
:1000E000A3010008A3010008A301000800F002F822
:1000F00000F03AF80AA090E8000C82448344AAF188
:100100000107DA4501D100F02FF8AFF2090EBAE885
:100110000F0013F0010F18BFFB1A43F0010318473B
:100120001C0B00003C0B0000103A24BF78C878C1BB
:10013000FAD8520724BF30C830C144BF04680C60ED
:10014000704700000023002400250026103A28BF35
:1001500078C1FBD8520728BF30C148BF0B60704739
:100160001FB51FBD10B510BD00F058F81146FFF7C0
:10017000F7FF00F011FD00F076F803B4FFF7F2FF8F
:1001800003BC00F07DF8000009488047094800479B
:10019000FEE7FEE7FEE7FEE7FEE7FEE7FEE7FEE737
:1001A000FEE7FEE704480549054A064B7047000094
:1001B000750B0008ED00000870000020700600209C
:1001C00070020020700200204FF0000200B51346BC
:1001D00094469646203922BFA0E80C50A0E80C5067
:1001E000B1F12001BFF4F7AF090728BFA0E80C5018
:1001F00048BF0CC05DF804EB890028BF40F8042B11
:1002000008BF704748BF20F8022B11F0804F18BF7D
:1002100000F8012B7047704770477047754600F033
:100220002BF8AE4605006946534620F00700854688
:1002300018B020B5FFF7B6FFBDE820404FF000062C
:100240004FF000074FF000084FF0000B21F00701BE
:10025000AC46ACE8C009ACE8C009ACE8C009ACE801
:10026000C0098D46704710B50446AFF300802046A4
:10027000BDE81040FFF781BF004870471000002024
:1002800001491820ABBEFEE7260002007047FEE7DA
:100290007047000070B5044600F0FAF80546601C8F
:1002A00002D004480078044400F0F2F8401BA04259
:1002B000FAD370BD000000202DE9F84FDFF8A491BB
:1002C0000024A9F1040B23464FF00F0809F1040A9A
:1002D000ABF1040EBEE00127A7403A40BA4272D10A
:1002E000DFF884C14D68A5EB0C0665452BD00DDC0D
:1002F000032D34D005DC35B3012D19D0022D2FD1BB
:100300001BE0112D16D0122D2AD119E0B6F5881F49
:1003100019D006DCB6F5803F15D0B6F5801F1FD189
:1003200011E0B6F5001F0ED0B6F5041F18D10AE093
:10033000CB6815E0CB681B1D12E0CB6808330FE0DB
:10034000CB680C330CE08B682BB1012B4FF008030A
:1003500003D0476104E0042302E0076100E00023CA
:10036000FF2A01D8064601E000F104064FEA8405A1
:1003700001D9A5F12005376808FA05FC27EA0C0722
:1003800003FA05F547EA050737604D68ED0060D5CB
:10039000364DAE6946F00106AE61AD6924F0030644
:1003A00005F001050095324D7719BE68A5072D0FA0
:1003B00008FA05FC26EA0C06DFF8B8C0604503D150
:1003C0004FF0000C17E044E0DFF8ACC0604502D10C
:1003D0004FF0010C0FE0DFF8A4C0604502D14FF0F0
:1003E000020C08E0DFF898C0604502D14FF0030C22
:1003F00001E04FF0040C0CFA05FC4CEA060CC7F8BF
:1004000008C04D68D9F80060ED024D4601D516438D
:1004100000E096432E604D68DAF80060AD02554664
:1004200001D5164300E096432E604D68DBF800606E
:10043000AD035D4601D5164300E096432E604D683E
:10044000DEF80060ED03754601D5164300E09643E3
:100450002E60641C0A6832FA04F57FF43CAFBDE8F4
:10046000F88F000008040140000011100010024045
:100470000000014000080140000C01400010014054
:10048000001401400AB1016170470904FBE7000054
:100490000148806870470000000000200248816821
:1004A000027811448160704700000020074810B5B1
:1004B000016841F010010160032000F067F80F208F
:1004C00000F006F800F024F8002010BD00200240E3
:1004D00070B50D4D04464FF47A712878B1FBF0F0F9
:1004E0000A490968B1FBF0F000F0B0FA48B9102CE5
:1004F00007D200222146501E00F028F800206C6030
:1005000070BD012070BD0000000000200C00002024
:100510000C4808B5816941F001018161816901F0F0
:1005200001010091C16941F08051C161C069064972
:1005300000F080500090486820F0E06040F00070CB
:10054000486008BD0010024000000140F0B40E4BAE
:100550001B68C3F30223C3F10704042C00D904244D
:100560001D1D072D01D2002300E0DB1E012606FA27
:1005700004F56D1E0D409D409E40761E164045EAD6
:100580000601F0BC00F0F8BA0CED00E0064A00F0FD
:10059000070110684FF6FF03184040EA01200349A5
:1005A00008431060704700000CED00E00000FA0501
:1005B0002DE9F0470D46040067D0DFF81881D8F820
:1005C000000000F00700A8420CD2D8F8001021F07B
:1005D00007012943C8F80010D8F8000000F0070010
:1005E000A84252D120683C4E810712D5400703D55E
:1005F000706840F4E06070602078000703D5706890
:1006000040F4605070607068A16820F0F00008430A
:1006100070602078C00727D06068012810D031684A
:10062000022810D0890700292FDA716821F0030110
:1006300001437160FFF72CFF074641F288390CE057
:1006400031688903EFE78901EDE7FFF721FFC11B5F
:10065000494502D90320BDE8F0877068616800F061
:100660000C00B0EB810FF0D1D8F80010404601F03B
:100670000701A9420BD9016821F007012943016054
:10068000006800F00700A84201D00120E3E72078CD
:10069000400705D57068E16820F4E06008437060A9
:1006A0002078000706D57068216920F4605040EA80
:1006B000C100706000F018F87168084AC1F30311B6
:1006C000515CC8400649086006480068FFF700FF13
:1006D0000020C0E700200240001002402A0C000861
:1006E0000C000020040000200E4B59680E4801F059
:1006F0000C02042A11D0082A0FD10C48C1F38342FE
:10070000C903805C0AD55968084AC1F34041921E6A
:10071000515C054A5043B0FBF1F07047044948432F
:10072000704700000010024000127A001A0C000806
:1007300000093D002DE9F84F04006FD02078BE4D30
:10074000C00747D06868C0F38100012807D06868F7
:10075000C0F38100022809D16868C00306D5286863
:10076000800337D560680028E7D033E06068B0F5D3
:10077000803F0BD010B1B0F5A02F11D0286820F425
:1007800080302860286820F4802002E0286840F447
:1007900080302860606888B1FFF77AFE064609E07D
:1007A000286840F480202860F0E7FFF771FE801B86
:1007B000642873D828688003F7D50BE0FFF768FE3C
:1007C000064604E0FFF764FE801B6428F1D8286821
:1007D0008003F7D42078DFF8648280074FF0010AA5
:1007E0004FF0000939D5686810F00C0F07D0686821
:1007F000C0F38100022809D16868C00306D42868C4
:10080000800714D52069012808D110E02069B0B113
:10081000C8F800A0FFF73CFE064605E007E1FFF739
:1008200037FE801B0228C4D828688007F7D52868BF
:10083000616920F0F80040EAC10028600DE0C8F8C6
:100840000090FFF725FE064604E0FFF721FE801B1F
:10085000022823D828688007F7D4207800072CD5F1
:100860007748A169D9B1C0F800A0FFF711FE06468C
:1008700004E0FFF70DFE801B02280FD8686A80078E
:10088000F7D570484FF4FA510068B0FBF1F00090D2
:1008900000BF0098411E0091FAD20EE07CE0C0F843
:1008A0000090FFF7F5FD064604E0FFF7F1FD801B21
:1008B000022871D8686A8007F7D4207840075BD592
:1008C000E8690027C00008D4E86940F08050E8617A
:1008D000E869012700F0805000905B480168C90575
:1008E00011D40168834641F480710160FFF7D0FDA7
:1008F000064604E0FFF7CCFD801B64284CD8DBF8EB
:100900000000C005F6D5E06801280AD008B1052826
:1009100013D0286A20F001002862286A20F0040021
:1009200002E0286A40F001002862E06841F2883B5A
:1009300088B1FFF7ADFD064609E0286A40F00400E3
:100940002862EEE7FFF7A4FD811B59455BD8286AB2
:100950008007F7D50BE0FFF79BFD064604E0FFF7A5
:1009600097FD811B59454ED8286A8007F7D41FB1DF
:10097000E86920F08050E861E069A8B36968C1F3D4
:100980008101022946D00228484606D0C8F86000F6
:10099000FFF77EFD044639E035E04746C8F86000C1
:1009A000FFF776FD064604E0FFF772FD801B022884
:1009B00029D828688001F7D4206AB0F5803F05D196
:1009C0006868A16820F4003008436860D4E9080131
:1009D0000843696821F4741108436860C7F860A08F
:1009E000FFF756FD044605E023E0FFF751FD001B2D
:1009F000022808D828688001F7D51AE0FFF748FDDB
:100A0000001B022802D90320BDE8F88F2868800166
:100A1000F4D40EE00128F7D06868226A00F480312F
:100A2000914204D1616A00F47010884201D0012023
:100A3000EAE70020E8E70000001002400000424220
:100A4000800442420C0000200070004010B5401E9F
:100A5000B0F1807F01D3012010BD4FF0E024606130
:100A60000F21601700F088F80020A06107202061A6
:100A7000002010BDFEE700002DE9F04186B0002403
:100A80001F480094019402940394816941F020016D
:100A90008161816901F020010491816941F00401C3
:100AA0008161816901F004010491816941F00801CB
:100AB00081618069134F00F0080004900022C0217A
:100AC0003846FFF7DFFCDFF8408000220121404676
:100AD000FFF7D8FCC02001250226CDE90005CDE9AD
:100AE000024669463846FFF7E7FB03960095CDE9D5
:100AF000015469464046FFF7DFFB06B0BDE8F081D0
:100B00000010024000080140000C0140FEE7FEE733
:100B100070477047FFF7C2BC30B58FB028216846D8
:100B2000FFF752FB14210AA8FFF74EFB0120010436
:100B300000248DE8130004904FF4E010CDE9081074
:100B4000022507956846FFF7F5FD08B172B6FEE786
:100B50000F20CDE90A054FF48060CDE90C40022159
:100B60000AA80E94FFF724FD002801D072B6FEE714
:100B70000FB030BD7047FEE70907090E002804DBFF
:100B800000F1E02080F80014704700F00F0000F141
:100B9000E02080F8141D7047FFF788FCFFF7BCFFCA
:100BA000FFF76AFF1A4C1B4E4FF4FA7501224021E1
:100BB0002046FFF767FC2846FFF76CFB0022402128
:100BC0002046FFF75FFC2846FFF764FB01228021E7
:100BD0002046FFF757FC2846FFF75CFB00228021E8
:100BE0002046FFF74FFC2846FFF754FB0122114631
:100BF0003046FFF747FC2846FFF74CFB0022012157
:100C00003046FFF73FFC2846FFF744FBCEE70000E5
:100C100000080140000C0140010202030405060720
:100C200008090A0B0C0D0E0F101000000000000048
:100C30000000010203040607080900005C0C00081C
:100C40000000002010000000280100086C0C0008C3
:100C500010000020600600004401000801000000B0
:0C0C6000100000000000000000127A00EC
:04000005080000ED02
:00000001FF
