:040000000C94440018
:14005400C0CFA4B0999282F8809001020304050607080910C3
:1400680011121314151617181920212223242526272829302A
:14007C00313234431010013443101001CFE5D4E0CDBFDEBF4C
:14009000C051D0400AEA08830024E4E9F0E010E0E539F107F5
:1400A40011F00192FBCF0083E4E5F0E0A0E6B0E010E0E838A8
:1400B800F10721F0C89531960D92F9CF0E944A01FFCF0E9443
:1400CC0072014427552702C04F5F5F4F40175107D8F34427C3
:1400E000552702C04F5F5F4F40175107D8F30E947501089543
:1400F40001C00A9580E08017E0F308950E9470014427662726
:140108000DC007FF02C0C29A01C0C298000F440FC69AB49BC6
:14011C0001C04395C6986395683088F3042F0E9464010895F6
:140130000E947201402FC798042FE2DF0027E0DF402FC79A2E
:140144000E94750108950E947001622F402FC798042FD4DF9A
:14015800402F062FD1DFC79A042F0E94640108950E946C01F8
:14016C006901402FA884C798042FC4DF402F5527662777272F
:1401800008C00027BDDFFB01EC0DFD1D00836F5F7F4F2A2C5C
:140194003324621573059CF3C79A042F0E94670108950E94A5
:1401A8006C016901402FA884C798042FA5DF402F662705C0FA
:1401BC00F60101916F019EDF63956A15C8F3C79A042F0E9451
:1401D00067010895C5982FE000E2B7DFC59A02E889DF0895E4
:1401E4000E947001B8012197442707E09FDF0093940006FF87
:1401F80007C0C59880E288839B0101E6B1DF41E020919400E9
:14020C0007E29DDF042F21960E94640108950E947201A8012D
:140220002197C59885E088832AE830E00AE2BBDF80E2888330
:140234009A0100EAB6DFC59A0AE05ADF21960E9475010895AE
:14024800219704E653DFC598C79AC69885E088832AE830E020
:14025C0000E3A3DF85E088832FE830E00AE29DDF21E001E246
:140270006CDF21E002E269DF222705E266DF20E201E363DF65
:1402840027E006E260DF2EE000E25DDF2196089584EE87BB04
:140298008FEF84BB8EE18ABB22242BBA8FEB85BBCFDF0AE65E
:1402AC0010E0B5DF09C00AE610E0B1DF00ED17E006DF2FEF9A
:1402C00007E243DFF6CF0895E2E00C947601E8E00C94760105
:1402D400FA92EA92DA92CA92BA92AA927A936A935A934A93EA
:1402E8000895E1E049915991E0FD089569917991E1FD0895E7
:1402FC00A990B990E2FD0895C990D990E3FD0895E990F990AF
:0203100008954E
:00000001FF
