:1001C600D2A8D288D2AF1203331203147F021203CD
:1001D6003F1202597B007A007945120143D2081278
:1001E60002807FFA1203017FFA12030112025912EA
:0401F600022B80FB5D
:05034700B2B2B3B401E5
:1002A700202045010203040506070809101112134F
:1002B7001415161718192021222324252627282943
:0602C7003031320122017A
:0C033300C2A0D2A1C2A7D2B2E4F5902271
:10030100E4FEEEC39F500B7DFADDFE7DFADDFE0EAD
:0203110080F07A
:0103130022C7
:1002E800E4FEEF3392A5EF25E0FFD2A7A2A4E43302
:0802F8004207C2A70EBE08EA8E
:0103000022DA
:0902CE007D3F7F211202D77F223F
:1002D700C2A11202E8AC07AF051202E8D2A1AF042F
:0102E70022F4
:0C032600C2A11202E8E4FF1202E8D2A11A
:0103320022A8
:0601FA008B098A0A890B43
:10020000C2A11202E8AD07E4FCECC3950C5017E460
:10021000FF1202E8AB09AA0AA90B8C82758300EFD2
:0A0220001201210C80E3D2A1AF050A
:01022A0022B1
:0B018C007BFF7A0379477514057F2A7A
:060197008B118A1289138E
:10019D00C2A11202E8AD07E4FCECC395145015ABF7
:1001AD0011AA12A9138C827583001200F4FF12029A
:0801BD00E80C80E5D2A1AF05BA
:0101C5002217
:10025900C2A012018C1202CE7D287F251202D77D01
:10026900207F311202D77D077F261202D77D0F7FAB
:07027900201202D7D2A022DF
:100143008B0D8A0E890FC2A07BFF7A037947751442
:10015300057F3012019712018CAB0DAA0EA90F7502
:1001630014207FA01201971202CE7D0A7F2412026F
:10017300D77D287F251202D77D077F261202D77DE0
:090183000E7F201202D7D2A02247
:1002800020B2FD7FFF1202E88F20300408300805FD
:100290007FE11202E8AD207F271202D7D2B23005EB
:0702A000037F00227FFF2213
:10022B00E4F50DE5236026E4F5237F4E12033FAF83
:10023B002412033FE4F50D7425250DF8E6FF120398
:0D024B003F050DE50DC3942040ED7590FFBB
:010258002283
:10031400759850758920758DF3758BF3E4F587D244
:020324008E2227
:08033F008F993099FDC299224B
:0300030002009266
:10009200C0E0C083C082C0D075D000C000C001C023
:1000A20002C003C004C005C006C0077F07120326B2
:1000B2008F2030061D85202453240EE524C313F51A
:1000C200247B007A007925750C207F611201FA7574
:1000D2002301AD207F271202D7D007D006D005D04A
:1000E20004D003D002D001D000D0D0D082D083D0AF
:0200F200E032FA
:03000000020006F5
:0C000600787FE4F6D8FD75816402004D9F
:1000F400BB010CE58229F582E5833AF583E02250C1
:1001040006E92582F8E622BBFE06E92582F8E2220A
:0D011400E58229F582E5833AF583E4932224
:10012100F8BB010DE58229F582E5833AF583E8F014
:10013100225006E92582C8F622BBFE05E92582C8C0
:02014100F222A8
:100012000201C6E493A3F8E493A34003F68001F23D
:1000220008DFF48029E493A3F85407240CC8C333EF
:10003200C4540F4420C8834004F456800146F6DFBE
:10004200E4800B01020408102040809002A7E47EA5
:10005200019360BCA3FF543F30E509541FFEE493B3
:10006200A360010ECF54C025E060A840B8E493A37A
:10007200FAE493A3F8E493A3C8C582C8CAC583CAA5
:10008200F0A3C8C582C8CAC583CADFE9DEE780BE5D
:0102CD000030
:00000001FF
