:020000040800F2
:10000000F814002035020008FF3E00086F39000890
:10001000FD3E0008ED1F0008F54800080000000044
:10002000000000000000000000000000B7430008CE
:10003000EF1F000800000000B543000861440008FD
:100040004F0200084F0200084F0200084F0200084C
:100050004F0200084F0200084F0200084F0200083C
:100060004F0200084F0200084F0200084F0200082C
:100070004F0200084F0200084F0200084F0200081C
:100080004F0200084F0200084F0200084F0200080C
:100090004F0200084F0200084F0200084F020008FC
:1000A0004F0200084F0200084F020008C544000834
:1000B0004F0200084F0200084F0200084F020008DC
:1000C0004F0200084F0200084F0200084F020008CC
:1000D0004F020008DD480008E94800084F02000808
:1000E0004F0200084F0200084F02000800F002F81B
:1000F00000F090F80AA090E8000C82448344AAF132
:100100000107DA4501D100F085F8AFF2090EBAE82F
:100110000F0013F0010F18BFFB1A43F0010318473B
:1001200098660000B8660000103A24BF78C878C10D
:10013000FAD8520724BF30C830C144BF04680C60ED
:10014000704700000023002400250026103A28BF35
:1001500078C1FBD8520728BF30C148BF0B60704739
:100160006E2900F06083702900F0CF86662905F0C3
:100170000086652905F0FD85672905F0FA85612966
:1001800005F0F98503681B0A28BF41F08001692941
:1001900000F0F080642900F0ED80752900F0EA801D
:1001A0006F2900F05C86782900F09B86E92900F031
:1001B000F785E42900F0F485F52900F0F185EF29B1
:1001C00000F05986F82900F09A860368DB0928BFF9
:1001D00041F08001632900F07885732900F07D8566
:1001E000E32901F0E180F32901F0E6800020704767
:1001F0001FB500F0C7FE04000020002105F014F830
:10020000401C60600020002104F0F8FFE0601FBD8A
:1002100010B510BD01F06AF91146FFF7E9FF04F0CF
:10022000AFFB01F091F903B4FFF7F2FF03BC01F05B
:10023000D5F900000948804709480047FEE7FEE776
:10024000FEE7FEE7FEE7FEE7FEE7FEE7FEE7FEE786
:1002500004480549054A064B70470000C34400089E
:10026000ED000008F80E0020F8140020F81000201F
:10027000F81000207CB51D4616460C00009001D0F9
:100280002044401E074B7B442A4669460190304675
:1002900000F0F1FC05461CB10020694600F0FEFCB0
:1002A00028467CBD1D0A00000FB41CB5084B06AAE9
:1002B0007B4469460090059800F0DDFC0446002070
:1002C000694600F0EBFC20461CBC5DF814FB000006
:1002D000E909000070B5044685690068C10601D5CA
:1002E000302600E02026C00707D070BDD4E90121E8
:1002F00030469047206A401C20626D1EF6D570BDC6
:1003000070B5044685690078C00707D170BDD4E98F
:10031000012120209047206A401C20626D1EF6D5E6
:1003200070BD70B50C460546012A05D028788006B8
:1003300000D5EA69002302E0012305E05B1C93423B
:1003400002D2E05C0028F9D1A869E618C01AA861B9
:10035000286A184428622846FFF7BCFF04E0D5E964
:10036000012114F8010B9047B442F8D32846FFF757
:10037000C7FF70BD2DE9F0410646002410687529BD
:10038000314616A510D000F0E3F9002802DA404209
:1003900013A507E031688A0701D512A502E04907D5
:1003A00004D511A5012401E000F0DBF900210A22A7
:1003B00006F1240709E0B0FBF2FCB0FBF2F302FB0C
:1003C0001C00303078541846491C0028F3D12346CD
:1003D0002A463046BDE8F04100F0CCB900000000EC
:1003E0002D0000002B000000200000002DE9F05F30
:1003F000894604464FF0000ADFF874B1FB44C0F8A8
:1004000020A02046E1688847002874D0252806D01F
:10041000D4E901219047206A401C2062F1E70026C0
:100420005F462046E16888472028054607DB312DD6
:1004300005D2781910F8200C08B10643F1E7B0078F
:1004400001D526F00406C4F81CA00027C4F818A0A3
:100450002A2D09D0284604F08BFA38B304EB87081C
:10046000303DC8F8185019E059F8041B204604EB39
:1004700087029161E1688847012F054618D1E0693C
:10048000002820DA26F020061DE0D8F8180000EB3E
:10049000800005EB40003038C8F818002046E168BD
:1004A0008847054604F064FA0028EED1012F0AD0EF
:1004B0002E2D08D12046E16888477F1C0546022F73
:1004C00046F02006C4DBA069002803DA404246F06B
:1004D0000106A061F00701D026F010066C2D0BD0AC
:1004E000682D09D04C2D39D06A2D35D0742D35D0DA
:1004F0007A2D33D016E038E0E1682F462046884751
:10050000B842054609D16C2F26D04FF48060E168CF
:10051000064320468847054604E06C2F1AD04FF466
:10052000807006430DB3A5F14100192802D820358B
:1005300046F400664A462946204626604E46FFF7A6
:100540000FFE80B101280BD0F61D26F0070000F148
:10055000080956E74020E4E78020D8E70020D6E7E6
:1005600006F104094DE7284652E7206ABDE8F09FEE
:100570003E62000030B505460B462A4613F8014B93
:1005800012F8010B08B1A042F8D01CB1002802D02B
:100590006D1CF1E7284630BD40EA010310B59B070A
:1005A0000FD1042A0DD310C808C9121F9C42F8D0DD
:1005B00020BA19BA884201D9012010BD4FF0FF308E
:1005C00010BD1AB1D30703D0521C07E0002010BDA4
:1005D00010F8013B11F8014B1B1B07D110F8013B30
:1005E00011F8014B1B1B01D1921EF1D1184610BD11
:1005F00010B5431C02E010F8011B71B18107FAD15C
:100600004FF0013202C88C1A8C4314EAC211F9D09F
:10061000C01A0A0603D0C01E10BDC01A10BD0A04BD
:1006200001D0801E10BD0902FCD0401E10BD032A5F
:1006300040F2308010F0030C00F0158011F8013BFF
:10064000BCF1020F624498BF11F801CB00F8013BE6
:1006500038BF11F8013BA2F1040298BF00F801CBAA
:1006600038BF00F8013B11F0030300F05984083A49
:10067000C0F0088051F8043B083A51F804CBA0E8D8
:100680000810F5E7121D5CBF51F8043B40F8043B2D
:10069000AFF30080D20724BF11F8013B11F801CB62
:1006A00048BF11F8012B24BF00F8013B00F801CB33
:1006B00048BF00F8012B70474FF000020429C0F03A
:1006C000128010F0030C00F01B80CCF1040CBCF184
:1006D000020F18BF00F8012BA8BF20F8022BA1EBD6
:1006E0000C0100F00DB85FEAC17C24BF00F8012BBB
:1006F00000F8012B48BF00F8012B70474FF00002B3
:1007000000B5134694469646203922BFA0E80C5007
:10071000A0E80C50B1F12001BFF4F7AF090728BFE2
:10072000A0E80C5048BF0CC05DF804EB890028BF5E
:1007300040F8042B08BF704748BF20F8022B11F087
:10074000804F18BF00F8012B704770477047704703
:1007500009684A0501D540B27047C905FCD500B209
:10076000704709684A0501D5C0B27047C905FCD574
:1007700080B270472DE9F0470D46994692460446EF
:1007800000F124080168880604D5E06921F0100111
:10079000216000E00120A84201DD471B00E00027A6
:1007A000A1697A1902EB0900081AA0612078C00635
:1007B00002D42046FFF78EFD002608E0D4E901218F
:1007C0001AF806009047206A401C761C20624E45AD
:1007D000F4DB2078C0060AD52046FFF77BFD06E053
:1007E000D4E9012130209047206A401C2062381E45
:1007F000A7F10107F4DC07E0D4E9012118F80500AE
:100800009047206A401C2062281EA5F10105F3DCF8
:100810002046FFF775FD2078000602D50220BDE8CE
:10082000F0870120FBE711680268006A530501D5D3
:1008300008700AE0D30501D5088006E0130603D549
:10084000C217C1E9000200E008600120704770474C
:100850002DE9FF4F0C461E464FF0FF378BB0D2E913
:100860000001DDF860800A908A46C1F30A5505B997
:100870003D46002108464FF00000BAF1000F00F499
:10088000400005DA00EB80004FF4400101EA50001F
:100890004FEA9059B9F1010F00DDB9460A9850EAC4
:1008A0004A000ED044F61050A5F2FF3545432F14F0
:1008B000B8F1000F1ED07542291E1EDDC9F10002DD
:1008C0001CE0B8F1010F4FF0000001D0302103E02F
:1008D000F24305E02154401CB042FBDB30460022CD
:1008E000002121540B99C1F80880C1E900200FB004
:1008F000BDE8F08FBD1B6D1CDEE74A4600DA694299
:1009000006A800F05DFD06AB93E8070003AB83E8A3
:10091000070050460A9900F068FE8DE80700A0F530
:1009200000501F3800900398002D0ADD42F21F018D
:100930004A460844002303A90390684601F0D1F811
:1009400009E0A0F500504A461F38002303A9039090
:10095000684601F0DBF88DE807000004000C03D0C6
:100960004FF0FF30410800E01046B8F1000F03D00F
:100970000022009215461EE0751E05D400F006FB0D
:10098000303262556D1EF9D5B3460122084302D0BC
:1009900000227F1C04E02078302801D100227F1E35
:1009A000002A099784D01DE0112D07DA00F0EEFA35
:1009B000303262556D1C50EA0102F5D1084302D075
:1009C0000098C8B10EE00021681E05E0235C625C5F
:1009D00063542254401E491C8142F7DBAB46A81BDE
:1009E000401E0990002004F80B000B98099AC0F8EB
:1009F0000880C0E9002B7AE711264FF0000857E77E
:100A00002DE9F04F88460446D21D22F0070191B02F
:100A1000D1E90001CDE90A0103F086FF02460B98F7
:100A2000C00F01D02D2007E02068810701D52B20C1
:100A300002E0202101EAC000032A099001D0072A20
:100A400005DB03464146204600F064FC0BE12078BC
:100A5000800601D5E06900E00620B8F1650F814607
:100A600006D0B8F1660F18D0B8F1670F70D131E039
:100A70000020B9F1110F009001DB112301E009F111
:100A800001030AAA01A90CA8FFF7E2FEDDE90C7038
:100A9000002609F10105834647E001204B460090FE
:100AA0004FF000470AAA01A90CA8FFF7D1FEDDE923
:100AB0000DB00C995D46002610B909F101000D1822
:100AC000B9EB050003D4C0F1FF3609F10105A5EB30
:100AD00009002BE0B9F1010F01DA4FF00109002004
:100AE000B9F1110F0090484601DD112300E00346E3
:100AF0000AAA01A90CA8FFF7ABFEDDE90C704D4670
:100B000000268346207800070AD4AB4500DA5D460C
:100B100001A8012D04DD411911F8011C302907D06D
:100B20004F4502DA17F1040F04DA012082460FE084
:100B30006D1EEEE7002F02DCED1B3E4403E0781C47
:100B4000A84200DD7D1CB81B00F1010A4FF00047F0
:100B50002078000703D4AA4501DB4FF0FF3A0021BB
:100B6000B7F1004F0DF143088DF8431024D0022057
:100B70002B23002F01DA7F422D230A21021EA0F130
:100B8000010000DC5FB197FBF1FC97FBF1F201FB88
:100B90001C7C17460CF1300C08F801CDEEE7A8F1EB
:100BA000010003702188090501D5452100E0652178
:100BB000A0F1010800F8011C09980FA9A1EB080792
:100BC000FF1D00B10120411901EBEA70A169384411
:100BD000081A401EA0612078C00602D42046FFF704
:100BE00079FB099828B1D4E901219047206A401C7B
:100BF00020622078C00622D52046FFF76BFB1EE05E
:100C0000002E04DBB34502DD01A8805D00E030204A
:100C1000D4E901219047206A401C2062761CAAF189
:100C200001005FEA000A0AD100F0ACF9C06801686F
:100C3000405CD4E901219047206A401C2062281EB4
:100C4000A5F10105DCDC07E0D4E9012118F8010B6E
:100C50009047206A401C2062381EA7F10107F3DC90
:100C60002046FFF74DFB032011B041E601694A1C05
:100C700002610878704700B58FB0CDE901310021DD
:100C8000059105497944CDE9031011466846FFF7FF
:100C9000ADFB0FB000BD0000E5FFFFFF0A6802F8E2
:100CA000010B0A607047D1E900239A4202D2531C1B
:100CB0000B601070704710B5436913B1AFF300803B
:100CC00001E0FFF72EFB012010BD127800F1240196
:100CD0000A7000224A700122EDE711684FF0FF32DE
:100CE000E9E700002DE9FF5F15468A460446DFF874
:100CF000AC80F8440027D8E900103E46CDE900104A
:100D000010E03AF816106A4602A800F0CBFB411C2E
:100D100007D02178890603D5E269391891420DD8A8
:100D20000744761C2078800602D5E069B84205DDCC
:100D3000AE42E6DB3AF816000028E2D1A069C01BFB
:100D4000A0612046FFF7C6FAD8E90010CDE90010EF
:100D5000002017E03AF818106A4602A800F0A2FB3B
:100D6000B0F1FF3F81460BD000250DF1080B05E0E7
:100D7000D4E901211BF8050090476D1C4D45F7D3C0
:100D800008F10100B0428046E4DB206A384420626A
:100D90002046FFF7B5FABDE8FF9F00005A59000052
:100DA0002DE9F0418046D21D22F007020025D2E94C
:100DB0000002F52915A614D0011E72F1000106DA11
:100DC0000023D0EB030063EB020211A608E0D8F881
:100DD00000108B0701D50FA602E0490701D50EA62A
:100DE00001251146002408F1240704E000F0CEF8A4
:100DF00030323A55641C50EA0102F7D12B46324694
:100E000021464046BDE8F041FFF7B4BC00000000B9
:100E10002D0000002B0000002000000030B4002155
:100E200000F1240408E002F00705D208303542EA58
:100E30004372DB086554491C52EA0305F3D1046888
:100E4000002310A2250707D5A40600D421B1C46948
:100E500001230DA2641EC46130BCFFF78BBC10B52A
:100E6000044621461068FFF77CFC02462046BDE898
:100E700010400023D2E7D21D22F00701D1E9002360
:100E8000CCE700000000000030000000F0B40D4688
:100E90000188090502D5214C7C4402E01F4C7C44AA
:100EA0000E34002100F1240608E002F00F071209B9
:100EB000E75D42EA03721B097754491C52EA0307B3
:100EC000F3D102780023120704D5702D06D009B1A2
:100ED000022311342246F0BCFFF74CBC012310342E
:100EE000F8E770B504460D4621461068FFF739FC57
:100EF000024629462046BDE870400023C6E7D21DC1
:100F000022F00703D3E90023C0E70368126843F027
:100F1000200303600823C3610023B7E7BC57000028
:100F200010B5203AC0F00B80B1E81850203AA0E884
:100F30001850B1E81850A0E81850BFF4F5AF5FEAB8
:100F4000027C24BFB1E81850A0E8185044BF18C96B
:100F500018C0BDE810405FEA827C24BF51F8043B12
:100F600040F8043B08BF7047D20728BF31F8023B66
:100F700048BF11F8012B28BF20F8023B48BF00F8FA
:100F8000012B704700487047B80E002030B5B0F113
:100F90000A024FEA900E71F100034EEA817EB0EB37
:100FA0000E0061EB91014FEA101E4EEA017E10EB3C
:100FB0000E0041EB11114FEA102E4EEA016E10EBBC
:100FC0000E0041EB11214FEA104E4EEA014E10EB9C
:100FD0000E0041EB1141401841F100014FEAD000F1
:100FE00040EA41704FEAD10110EB80054FEA8104DD
:100FF00044EA907444EB01046D1944EB0404521B61
:10100000A3414FF0000348BF0A3200D530BD401C59
:1010100041F1000130BD00002DE9F04F04460D46BE
:10102000D21D22F0070089B0D0E900974846394622
:1010300003F07AFC0246F80F01D02D2307E0206868
:10104000810701D52B2302E0202101EAC0038DF89E
:1010500020300BB1012000E00020032A824601D09D
:10106000072A04DB2946204600F054F93FE12078A6
:10107000800601D40D2500E0E569C7F30A560D2D61
:1010800049DA00214FEA175B08464FF00000002FB5
:1010900000F4400007DA00EB80004FF4400100EB61
:1010A000D07001EA60008115012901DD4FF0FF31A8
:1010B00000224FEA850CBCF1180F06D31346ACF1A1
:1010C00018004FF08052C24003E04FF4801323FA1F
:1010D0000CF30CF10C0CBCF1200F04D3ACF1200C80
:1010E00009FA0CF001E007FA0CF000294FF0004873
:1010F00001DD18B90FE00ED140450CD319EB020900
:101100005F4121B9404502D19F4329EA0209BBEB67
:10111000175F00D0761C2088000502D57B487844F4
:1011200002E07A487844193808AA302302F80A30D5
:10113000037C0AF10101002E0AF1020A53546A46A7
:1011400002DC4FF0300101E04FF031014FF00108B7
:101150008DF8001002D0A6F2FF3603E059EA4701ED
:1011600000D06B4E002D02DC2178090704D54FF02A
:1011700002082E218DF80110C44600210BE0C7F3B0
:1011800003433F01C35C491C6D1E02F8083005296A
:1011900008F1010801DA002DF1DC00210CE000EB80
:1011A0001973491C1B786D1E082902F808304FEA94
:1011B000091908F1010801DA002DF0DC21688B061D
:1011C00002D516E0A8F10108E04505DD02EB0803B1
:1011D00013F8013C302BF5D0B8F1000F09DD02EB1C
:1011E000080313F8013C2E2B03D1090701D4A8F101
:1011F0000108002D05DD3E2102F808106D1E08F1E2
:101200000108407C002E02F8080008F1010804DA09
:101210002D20764202F8080002E02B2002F8080098
:101220000A214FF47A70864208F101080BDB96FB25
:10123000F0F3303302F8083096FBF0F308F10108C0
:1012400000FB136601E0642E0CDB642096FBF0F3D8
:10125000303302F8083096FBF0F308F1010800FB88
:10126000136601E00A2E06DB96FBF1F0303002F83F
:10127000080008F1010896FBF1F001FB1060303026
:1012800002F80800A16908F1010808EB050202EB69
:101290000A00081AA0612078C00602D42046FFF791
:1012A00019F8216A08AE01EB0A00206204E0D4E9D3
:1012B000012116F8010B9047BAF1010AF7D2207804
:1012C000C00602D52046FFF705F86E4609E016F87D
:1012D000010B3E280FD0D4E901219047206A401C21
:1012E0002062B8F10108F2D22046FFF709F809B0F0
:1012F0000320BDE8F08F206A2844206203E0D4E98F
:101300000121302090476D1EEBD3F8E771550000A6
:1013100002FCFFFF2DE9F0411F4604460326016849
:10132000072A01F4006004DB08B116A505E016A544
:1013300003E008B115A500E015A521F0100020601C
:10134000A069C01EA0610FB1401EA0612046FEF73B
:10135000C1FF4FB1D4E9012138469047206A401CB3
:101360002062C01C206206E0206AFAE7D4E901216D
:1013700015F8010B9047761EF8D22046FEF7C0FF05
:10138000BDE8F0814E414E006E616E00494E460050
:10139000696E660010B5436913B1AFF3008001E0D8
:1013A000FFF7A0FC012010BD128800F12401828407
:1013B0000022C2840122EDE711684FF0FF32E9E715
:1013C0002DE9F047814616468AB0354878440DC865
:1013D0008DE80D0032487844801C03AC0DC884E8C9
:1013E0000D0041F69B300844372190FBF1F290FB51
:1013F000F1F5A5F1800501FB12041B3C02D5644206
:10140000012000E00020DFF898A080460027FA4481
:10141000AAF1BE0A0EE0E0070AD03246684607EBA2
:10142000470101230AEB810100F070FB8DE8070002
:1014300064107F1C002CEED1194F7F44AE3F19E0A1
:10144000E80715D007EB04100DF1180A90E80E001C
:101450008AE80E00C068F04201D19819089032461F
:10146000012306A903A800F051FB03AB83E80700A2
:101470006D10641C002DE3D14FF001033246694624
:10148000B8F1000F03A802D000F02BFB01E000F040
:101490003DFBC9E90001C9F808200AB0BDE8F087A2
:1014A0005453000070B516460C46054600F044F84B
:1014B000036893F80101012806D0FF2C0FD8185DAE
:1014C00068B101202C7070BDD3F807013246214667
:1014D00003F2071303442846BDE8704018474FF055
:1014E000FF3070BD00487047980E00207546FFF72A
:1014F000F9FFAE4605006946534620F007008546D1
:1015000018B020B5FEF7A4FEBDE820404FF000065D
:101510004FF000074FF000084FF0000B21F00701DB
:10152000AC46ACE8C009ACE8C009ACE8C009ACE81E
:10153000C0098D467047000010B5FFF723FD001D60
:1015400010BD00BFE53C000010B50446AFF30080BD
:101550002046BDE81040FEF766BE00004FF0013C9B
:1015600050F8042B51F8043B9A4221D1A2EB0C0312
:10157000934313EACC1317D150F8042B51F8043BD2
:101580009A4215D1A2EB0C03934313EACC130BD16F
:1015900050F8042B51F8043B9A4209D1A2EB0C03FA
:1015A000934313EACC13DBD04FF00000704700BF29
:1015B000D01A01BAB1FA81F101F0180122FA01F052
:1015C000CB40C1F12001DBB2C0B2C01A2CFA01F34A
:1015D000D11A914311EAC311E6D17047014918208D
:1015E000ABBEFEE72600020070475FEA400C08BF72
:1015F00091F0000F4FEA8C234FEAC12243EA515188
:101600004FEA1C5018BF00F5F0404FEA300018BFF9
:1016100041F000415FEA6C5C00F02980BCF1FF3FC3
:1016200008BF40F080407047130C06BF12044FF013
:10163000100C4FF0000C130E04BF12020CF1080C3A
:10164000130F04BF12010CF1040C930F04BF92009E
:101650000CF1020CD30F04BF52000CF1010C114627
:101660004FF00002A0F11F00A0EB0C00704711F03A
:10167000004F08BF704731F000413FF4D5AF0B0C6D
:1016800006BF09044FF0100C4FF0000C0B0E04BF06
:1016900009020CF1080C0B0F04BF09010CF1040C3A
:1016A0008B0F04BF89000CF1020CCB0F04BF490063
:1016B0000CF1010CCCF12003A0EB0C0022FA03F397
:1016C00002FA0CF241EA030100F10100704720F038
:1016D0007F4C80EA030023F07F47ACEB070303F560
:1016E0007C5300F0004003F1FF032DE980494FEAED
:1016F000154B09B44FEA144325EA0B4E24EA03487C
:101700000FF2042606EB132749083E785FEA3202FF
:1017100003FB0667C7F5000707FB06F64FEA5437D9
:101720004FEAD64606F1020607FB066CCCF1005CD8
:101730004FEA1C472CEA074C07FB06F40CFB06F5A6
:1017400004EB15464FEA961634BF00204FF00040D8
:101750004FEAD13706FB07FC4FEA1C4C0CFB0BF79A
:10176000D21B03FB0CF761EB07010CFB0EF7B0EB90
:10177000074072EB17420CFB08F734BFA2EB07429D
:10178000B2EB074261EB17414FEA0C444FEA910775
:1017900006FB07FC4FEA1C4C0CFB0BF7B0EBC740F9
:1017A00072EB573203FB0CF734BFA2EBC742B2EB2C
:1017B000C74261EB57310CFB0EF7B0EBC70072EB81
:1017C00057720CFB08F734BFA2EBC702B2EBC7029B
:1017D00061EB5771039F4FEA816141EA921104EB7B
:1017E000CC044FEAD1374FEA826206FB07FC42EA9B
:1017F00090124FEA80604FEA1C4C0CFB0BF7D21B97
:1018000003FB0CF761EB07010CFB0EF7B0EB074095
:1018100072EB17420CFB08F734BFA2EB0742B2EBA6
:10182000074261EB17414FEA8C554FEA910704EBF1
:101830009C2406FB07FC4FEA1C4C0CFB0BF7B0EB9F
:10184000C74072EB573203FB0CF734BFA2EBC74221
:10185000B2EBC74261EB57310CFB0EF7B0EBC700A0
:1018600072EB57720CFB08F734BFA2EBC702B2EB66
:10187000C70261EB577115EB4C254FEA816141EAD4
:1018800092114FEA82624FEAD13742EA901206FB88
:1018900007FC44F100044FEA80604FEA1C4C0CFB4B
:1018A0000BF7D21B03FB0CF761EB07010CFB0EF7E8
:1018B000B0EB074072EB17420CFB08F734BFA2EB0A
:1018C0000742B2EB074261EB174115EB1C154FEADB
:1018D000813141EA92414FEA823242EA90424FEA34
:1018E00080304FEA0C7644F1000448EA03434EEAA4
:1018F0000B484FF0000EB2EB080C71EB030724BF4E
:10190000624639464EEB0E0E4FF0000B0018524166
:1019100049414BEB0B0BB2EB080C71EB03077BF16E
:10192000000B24BF624639464EEB0E0E4FF0000B03
:101930000018524149414BEB0B0BB2EB080C71EB19
:1019400003077BF1000B24BF624639464EEB0E0EB7
:1019500051EA020718BF46F0010616EB0E7655F164
:10196000000254F1000103D5BDE88901BDE80088FB
:10197000BDE88901BDE80048B619524141EB0101BB
:10198000A3F10103704780807F7E7D7C7B7A79782C
:10199000777676757473727171706F6E6E6D6C6C34
:1019A0006B6A6A69686867666665646463636261D6
:1019B0006160605F5F5E5E5D5D5C5C5B5B5A5A5957
:1019C00059585857575656555555545453535252C3
:1019D0005251515050504F4F4F4E4E4D4D4D4C4C1B
:1019E0004C4B4B4B4A4A4A49494948484847474764
:1019F00047464646454545444444444343434342A1
:101A0000424242414141002B9C4630D477002BD0CA
:101A10001CB54FEA370703B44FF010004FF0100128
:101A2000BAF1000F06D0BCF1000FDCBF40F0080097
:101A300040F008014FF000000FBCBDE810400BF172
:101A4000010BBBF1010F08BF5FEA170722BF12F1BC
:101A5000010211F101014FF0004143F1000300F0D8
:101A6000004043EA00007047F9D35708D0E746EA40
:101A7000064613F1400F4FEA16461FDD13F1200F03
:101A8000DFBF16430A46002120335B42BED0C3F1BC
:101A9000200746EA064602FA07F74FEA164646EAE4
:101AA0000706C3F1200722FA03F201FA07F721FA29
:101AB00003F14FF0000342EA0702A7E746EA0206F5
:101AC00046EA06464FEA164646EA0106BCBF46EA23
:101AD0000646360C4FF000034FF000024FF00001B5
:101AE00094E72DE9804C9A46934670B491E838000B
:101AF00007C831EA400C48BF34EA430C03D5FFF76E
:101B0000E6FDFFF780FFF0BCBDE8008C2DE9804CBE
:101B10009A46934670B491E8380007C810F0804F99
:101B200008BF13F0804F03D100F005F8FFF76BFFFB
:101B3000F0BCBDE8008C20F07F4780EA030023F072
:101B40007F4C07EB0C03A3F57C5300F00040A3F19E
:101B5000FE0392F0000F00F0B38095F0000F00F04C
:101B600077802DE901494FEA11404FEA144621EAF6
:101B7000004800FB06FC24EA064708FB06F607FBC4
:101B800008F800FB07F718EB06484CEB164C4FEA39
:101B9000124B18EB07484FEA15464CEB174022EA68
:101BA0000B4E0BFB06FC25EA06470EFB06F607FB71
:101BB0000EFE0BFB07F71EEB064E4CEB164C4FF0E0
:101BC00000061EEB074E4CEB174B18EB0B0840F1D1
:101BD000000018EB0E0B58EB000840F100008F1AC4
:101BE0004FF000013CBFC943661B14BFB5EB040CAA
:101BF00000213CBFC943F61B4FEA17444EEA8E0E44
:101C000027EA04454FEA1C4704FB07622CEA074C0D
:101C100005FB07F70CFB05F604FB0CFC16EB07466F
:101C200042EB174216EB0C4642EB1C421BEB06063E
:101C300058EB0202414146EA9E0601D5BDE8018902
:101C4000B619524141EB0101A3F10103BDE801893D
:101C50004FEA14454FEA114724EA054621EA074CAA
:101C600005FB07F406FB07F70CFB06F105FB0CFC74
:101C700011EB074144EB17444FEA124711EB0C41BB
:101C800044EB1C4422EA074C05FB07F206FB07F76E
:101C90000CFB06F605FB0CFC16EB074642EB174265
:101CA00016EB0C4642EB1C456A1854F1000148BF84
:101CB0007047B619524141EB0101A3F1010370478E
:101CC00095F0000F37D04FEA11424FEA144721EA4E
:101CD000024624EA074C02FB07F106FB07F70CFB60
:101CE00006F402FB0CFC14EB074441EB17414FEAEE
:101CF000154714EB0C4441EB1C4125EA074C02FB51
:101D000007F506FB07F70CFB06F602FB0CFC16EBCF
:101D1000074645EB174516EB0C4645EB1C421219DE
:101D200051F1000148BF7047B619524141EB010122
:101D3000A3F1010370474FEA14454FEA114724EA23
:101D4000054621EA074C05FB07F106FB07F70CFBEC
:101D500006F24FF0000605FB0CFC12EB074241EBCC
:101D6000174112EB0C4251EB1C4148BF70479218CF
:101D700041EB0101A3F10103704700000FB42DE90D
:101D8000F04F89B014464FF4C0715648FEF794FCEA
:101D9000DFF850912246484653A1FEF785FA0446E3
:101DA00016AD002689E001CD019080CDA8462EB168
:101DB00009EB040059A1FEF777FA0444692F06D015
:101DC000662F0DD0732F5CD0622F65D073E008F1C1
:101DD000040509EB0400D8F8003051A1019A58E03D
:101DE00008F1070020F00705F5E8022117468846AC
:101DF000104603F015FB029003F041FB3A464346C0
:101E000003F0D8FC002282468B46134603F062FBA7
:101E100001D28BF0004B0022474B5046594603F04D
:101E200095FB0022454B03F047FA03F0F9FA82468E
:101E300064280DDB0022AAF1640A134638464146A5
:101E400003F082FC029801D8401C00E0401E029082
:101E5000002213463846414603F03CFB01D202986B
:101E600048B109EB040036A1CDF800A0DDE901235B
:101E7000FEF71AFA1EE009EB040038A1CDF800A025
:101E8000F4E708F1040509EB0400D8F800303AA1A2
:101E9000019AFEF709FA0DE0D8F80000019A00282F
:101EA00008F1040509EB040001D03AA100E03FA1CC
:101EB000FEF7FAF90444761CF6B29DF85400864207
:101EC000FFF471AF09EB04003FA1FEF7EDF9DDE986
:101ED0001202044B3DA1FEF7E7F909B0BDE8F00F8F
:101EE0005DF814FB4E0700207B5C2269645C223A9B
:101EF0005C2225735C225C2C5C2276657273696FB0
:101F00006E5C223A5C22312E305C225C2C5C2270AA
:101F10006172616D735C223A7B0000005C2C0000F2
:101F20005C2225735C223A7B5C2276616C75655C71
:101F3000223A25647D000000000059400000E03F87
:101F40005C2225735C223A7B5C2276616C75655C51
:101F5000223A25642E253032647D00005C222573F0
:101F60005C223A7B5C2276616C75655C223A2D2599
:101F7000642E253032647D005C2225735C223A7B1E
:101F80005C2276616C75655C223A5C2225735C226A
:101F90007D0000005C2225735C223A7B5C22766126
:101FA0006C75655C223A747275657D005C222573E0
:101FB0005C223A7B5C2276616C75655C223A6661D4
:101FC0006C73657D000000007D7D000041542B4D49
:101FD0005154545055423D302C222573222C222539
:101FE00073222C302C300D0A00000000FEE77047F1
:101FF00072B6FEE710B590F821100022022905D034
:102000000421816380F82020012010BD01680B6845
:1020100023F00E030B6001680B6823F001030B60D3
:1020200090F84030C46B012101FA03F3636080F83B
:10203000211080F82020104610BD000010B590F847
:1020400021100024022903D00421816301243DE0F2
:1020500001680A6822F00E020A6001680A6822F02C
:1020600001020A601A4A0168914201D1012121E06E
:10207000174A1432914201D110211BE0144A283230
:10208000914201D1891515E0114A3C32914201D1AA
:1020900089140FE00E4A5032914202D14FF4803140
:1020A00008E00B4A6432914202D14FF4801101E002
:1020B0004FF08071064A083A5160012180F82110E2
:1020C000002180F82010416B01B18847204610BDE7
:1020D0000800024070B5044600F004F90546601C93
:1020E00002D004480078044400F0FCF8401BA042F1
:1020F000FAD370BD3C0000202DE9F84FDFF8B8910D
:102100000024A9F1040B23460F2709F1040AABF1BF
:10211000040EC9E00125A5402A40AA427DD1674EA0
:10212000D1F804C0ACEB0608B44532D014DCBCF1E5
:10213000030F3AD009DCBCF1000F2AD0BCF1010F2B
:102140001CD0BCF1020F31D11DE0BCF1110F17D032
:10215000BCF1120F2AD119E0B8F5881F19D006DC9E
:10216000B8F5803F15D0B8F5801F1FD111E0B8F544
:10217000001F0ED0B8F5041F18D10AE0CB6815E097
:10218000CB681B1D12E0CB6808330FE0CB680C3323
:102190000CE08B682BB1012B4FF0080303D0456195
:1021A00004E0042302E0056100E00023FF2A01D8D7
:1021B000064601E000F104064FEA840501D9A5F1C5
:1021C0002005D6F8008007FA05FC28EA0C0803FA77
:1021D00005F548EA0508C6F800804D68ED0062D5AF
:1021E000374DAE6946F00106AE61AD6924F00306D5
:1021F00005F001050095334D06EB050CDCF80850A1
:10220000A607360F07FA06F825EA0805DFF8B880B2
:10221000404503D14FF0000817E044E0DFF8AC8000
:10222000404502D14FF001080FE0DFF8A48040459F
:1022300002D14FF0020808E0DFF89880404502D153
:102240004FF0030801E04FF0040808FA06F848EAE6
:102250000508CCF808804D68D9F80060ED024D46BD
:1022600001D5164300E096432E604D68DAF8006011
:10227000AD02554601D5164300E096432E604D68E9
:10228000DBF80060AD035D4601D5164300E09643E0
:102290002E604D68DEF80060ED03754601D51643EB
:1022A00000E096432E60641C0D682A46E5407FF4EA
:1022B00031AFBDE8F88F00000804014000001110A4
:1022C000001002400000014000080140000C0140E5
:1022D00000100140001401400AB101617047090477
:1022E000FBE7000001488068704700003C000020C8
:1022F00070B5040025D094F83D00002520B984F87D
:102300003C50204600F04EF9242084F83D0020681F
:10231000016821F0010101602068016841F4004179
:1023200001602068016821F40041016000F0BCFAFE
:102330004D4A6168914201D84C4900E04C498842BD
:1023400001D2012070BD4B492368B0FBF1F15E68FA
:1023500026F03F060E435E606368934206D94FF451
:10236000967359434FF47A73B1FBF3F12368491C18
:102370001E6A26F03F06314319626168914210D807
:102380004900401EB0FBF1F2521CC2F30B02042ABA
:1023900001D2042022E0B0FBF1F0401CC0F30B009E
:1023A0001CE0A268F2B301EBC10303EB0116431E6C
:1023B000B3FBF6F35B1C43F480431B0549D092B397
:1023C00001EBC10202EB0111401EB0FBF1F0401C19
:1023D000C0F30B0040F4804040F400402168CA691B
:1023E0004CF6FF739A431043C861D4E907100143C8
:1023F0002068026822F0C00211430160D4E90301A1
:1024000001432068826848F2FF339A431143816098
:10241000D4E9050108432168CA6822F0FF0210438D
:10242000C86001E00EE016E02068016841F001019B
:1024300001602564202084F83D00256384F83E5027
:10244000002070BD01EB4106431EB3FBF6F35B1C9D
:10245000B3E70120C2E701EB4101401EB0FBF1F000
:10246000401CC0F30B00B7E7A086010080841E006B
:1024700000093D0040420F002DE9F84F1F469046ED
:102480008A460446DDF82890FFF72CFF054694F8AD
:102490003D0020287FD11923012240492046009584
:1024A00001F0F8FA002876D194F83C00012872D0A7
:1024B000012084F83C0020680168C90703D1016845
:1024C00041F0010101602068016821F400610160B0
:1024D000212084F83D00102084F83E000026266468
:1024E000C4F824806785608D20852D48E0622B46E6
:1024F0004A465146204601F053FA90B92068416996
:102500008069009036E02A464946204601F068FB83
:1025100050B1206C042804D12068016841F4007196
:1025200001600120BDE8F88F606A216800780861C9
:10253000606A401C6062618D491E6185218D491E63
:1025400089B2218522685369DB435B070BD451B103
:1025500000781061606A401C6062608D401E60857A
:10256000208D401E20852A464946204601F066FA05
:102570000028CED1208D0028C5D154F83D0B01682C
:1025800041F400710160202004F81E09E6776677A7
:102590000020C7E7FFE70220C4E7000002001000A8
:1025A0000000FFFF30B585B000210091019102913C
:1025B0000391214D0368214C122103222048AB4294
:1025C0001DD1A36943F00803A361A369039203F03B
:1025D000080304931302CDE900316946FFF78CFD2F
:1025E0001848416841F0E06141F002014160E06952
:1025F00040F40010E061E06900F4001019E0124DB1
:10260000AB4217D1A36943F00803A361A369039206
:1026100003F0080304934FF44063CDE900316946A9
:10262000FFF76AFDE06940F48000E061E06900F4D2
:102630008000049005B030BD0054004000100240FE
:10264000000C014000000140005800400248816831
:1026500002781144816070473C000020074810B5A3
:10266000016841F010010160032000F075F80F20AF
:1026700000F006F800F024F8002010BD0020024011
:1026800070B50D4D04464FF47A712878B1FBF0F027
:102690000A490968B1FBF0F000F0DCFA48B9102CE7
:1026A00007D200222146501E00F036F800206C6050
:1026B00070BD012070BD00003C00002048000020DB
:1026C0000C4808B5816941F001018161816901F01F
:1026D00001010091C16941F08051C161C06900F000
:1026E000805000900448416821F0E06141F00071A1
:1026F000416008BD0010024000000140002809DBD5
:1027000000F01F02012191404009800000F1E0200B
:10271000C0F8001170470000F0B40E4B1B680C4667
:10272000C3F30223C3F10705042D00D90425191DA5
:10273000072901D2002300E0DB1E012606FA05F17D
:10274000491E214099409E40761E16403143F0BC00
:1027500002F0FEB80CED00E0064900F00702086840
:102760004FF6FF03184040EA0220034A1043086076
:10277000704700000CED00E00000FA052DE9F0477D
:102780000F46050061D0434E306800F00700B842A4
:1027900009D2306820F0070038433060306800F01C
:1027A0000700B84251D128683B4C810712D5400739
:1027B00003D5606840F4E06060602878000703D5C6
:1027C000606840F4605060606068A96820F0F000C4
:1027D000084360602878C00728D06868012810D0B6
:1027E0002168022810D0890700292EDA616821F0BB
:1027F000030101436160FFF775FD804641F28839AE
:102800000DE021688903EFE78901EDE7FFF76AFD35
:10281000A0EB0801494502D90320BDE8F0876068B4
:10282000696800F00C00B0EB810FEFD1306800F068
:102830000700B8420BD9306820F0070038433060F9
:10284000306800F00700B84201D00120E5E72878A1
:10285000400705D56068E96820F4E06008436060DF
:102860002878000706D56068296920F4605040EA9E
:10287000C100606000F038F86168084AC1F30311D4
:10288000515CC8400649086006480068FFF7F8FE3A
:102890000020C2E700200240001002402666000827
:1028A00048000020400000200448054900684968AD
:1028B000044AC1F30221515CC8407047480000201F
:1028C000001002403666000804480549006849685F
:1028D000044AC1F3C221515CC8407047480000203F
:1028E00000100240366600080E4A51680E4801F09A
:1028F0000C03042B11D0082B0FD10C48C1F38343D8
:10290000C903C05C0AD55168084AC1F34041921E10
:10291000515C054A5043B0FBF1F07047044948430D
:10292000704700000010024000127A00166600088E
:1029300000093D002DE9F84F040070D02078C04D0B
:10294000C00749D06868C0F38100012807D06868D3
:10295000C0F38100022809D16868C00306D5286841
:10296000800339D560680028E7D035E06068B0F5AD
:10297000803F0BD010B1B0F5A02F11D0286820F403
:1029800080302860286820F4802002E0286840F425
:1029900080302860606890B1FFF7A4FC06460AE02A
:1029A000286840F480202860F0E700BFFFF79AFC19
:1029B000801B642873D828688003F7D50CE0FFF7E4
:1029C00091FC064605E000BFFFF78CFC801B6428E5
:1029D000F0D828688003F7D420789A4E80074FF00B
:1029E00001094FF0000839D5686810F00C0F07D0C6
:1029F0006868C0F38100022809D16868C00306D462
:102A00002868800714D52069012808D110E02069C2
:102A1000B0B1C6F80090FFF765FC074605E00AE193
:102A2000FFF760FCC01B0228C4D828688007F7D5D0
:102A30002868616920F0F80040EAC10028600DE0D4
:102A4000C6F80080FFF74EFC074604E0FFF74AFC9B
:102A5000C01B022823D828688007F7D420780007F5
:102A60002CD57948A169D9B1C0F80090FFF73AFC9C
:102A7000074604E0FFF736FCC01B02280FD8686A3F
:102A80008007F7D571484FF4FA510068B0FBF1F0B8
:102A9000009000BF0098411E0091FAD20EE080E045
:102AA000C0F80080FFF71EFC074604E0FFF71AFCA1
:102AB000C01B022875D8686A8007F7D420784007C1
:102AC00060D5E8690027C00008D4E86940F080506C
:102AD000E861E869012700F0805000905C480168D7
:102AE000C90513D40168834641F480710160FFF782
:102AF000F9FB824606E000BFFFF7F4FBA0EB0A00FB
:102B000064284ED8DBF80000C005F5D5E068012840
:102B10000AD008B1052813D0286A20F001002862E5
:102B2000286A20F0040002E0286A40F001002862D0
:102B3000E06841F2883B98B1FFF7D4FB82460BE096
:102B4000286A40F004002862EEE700BFFFF7CAFBE6
:102B5000A0EB0A0159455AD8286A8007F6D50CE03F
:102B6000FFF7C0FB824605E0FFF7BCFBA0EB0A01C4
:102B700059454CD8286A8007F6D41FB1E86920F07F
:102B80008050E861E06988B36968C1F38101022976
:102B900044D00228C6F8608004D0FFF7A3FB0446A7
:102BA00038E034E0FFF79EFB074604E0FFF79AFBAE
:102BB000C01B02282BD828688001F7D4206AB0F502
:102BC000803F05D16868A16820F400300843686040
:102BD000D4E908010843696821F474110843686066
:102BE000C6F86090FFF77EFB044606E025E000BFD4
:102BF000FFF778FB001B022809D828688001F7D569
:102C00001BE000BFFFF76EFB001B022802D9032068
:102C1000BDE8F88F28688001F4D40EE00128F7D0D1
:102C20006868226A00F48031914204D1616A00F43C
:102C30007010884201D00120EAE70020E8E7000098
:102C4000001002400000424280044242480000203E
:102C50000070004010B5401EB0F1807F01D301200C
:102C600010BD4FF0E02460610F21601701F070FE8D
:102C70000020A06107202061002010BD7047704730
:102C800070B590F83C20012A26D0012480F83C4001
:102C9000022280F83D2003685A689D6822F0700681
:102CA0000A6832435A600D4B02689A4208D0B2F16A
:102CB000804F05D00A4B9A4202D00A4B9A4204D167
:102CC000496825F080031943916080F83D40002158
:102CD00080F83C10084670BD022070BD002C0140F9
:102CE000000400400008004010B5040003D094F830
:102CF0003D0010B107E0012010BD002084F83C0029
:102D0000204600F01FF8022084F83D00211D2068B5
:102D100001F0DEFB012084F8460084F83E0084F8D0
:102D20003F0084F8400084F8410084F8420084F8B1
:102D3000430084F8440084F8450084F83D000020F6
:102D400010BD000000B585B00021009101910291F5
:102D50000391194A01681948914220D1816941F4CF
:102D600000618161816901F400610491816941F030
:102D7000040181618069694600F0040004904FF409
:102D8000A06000900E48FFF7B7F9002211461B2003
:102D9000FFF7C2FC1B20FFF7B1FC05B000BDB1F18D
:102DA000804FFAD1C16941F00101C161C06900F0F1
:102DB00001000490F1E70000002C014000100240E7
:102DC0000008014090F83D10012901D00120704712
:102DD000022180F83D1000680B49884208D0B0F10C
:102DE000804F05D00949884202D00949884204D160
:102DF000816801F00701062903D0016841F0010153
:102E00000160002070470000002C014000040040D9
:102E10000008004070B5044690F83C0000250128E9
:102E200017D0012684F83C60022084F83D00206819
:102E3000826822F0770222F47F428260086850287C
:102E400038D00DDC20284FD005DC90B3102811D1EC
:102E50004AE0022070BD302846D040280AD13BE02D
:102E600060282FD070280DD0B0F5805F03D0B0F56A
:102E7000005F12D0012584F83D60002084F83C00FA
:102E8000284670BDCB68D1E90121206801F069FBBB
:102E90002068816841F0770109E0CB68D1E9012120
:102EA000206801F05EFB2068816841F48041816008
:102EB000E1E719E0CA684968206801F064FB502125
:102EC000206806E0CA684968206801F099FB602123
:102ED000206801F050FBCEE7CA684968206801F01D
:102EE00052FB40212068F4E7226801461046F0E7D3
:102EF0002DE9F05FDFF81481DFF814B1DFF81491E9
:102F00000026454C054640453DD1287F08283AD14A
:102F10000821284600F0AFFA60600C21284600F036
:102F2000AAFAA0606168401A02F0CEFD594602F08C
:102F3000DFFD711E02F053FF217811B1E0612670B0
:102F40000BE0364902F0D4FD07463549E06902F04E
:102F5000CFFD394602F050FDE061607820B1E069B4
:102F60006061206266700EE0216AE0698A46074669
:102F700002F08AFE20F00040484502DC67612762CB
:102F800001E0C4F814A045452ED1287F02282BD19A
:102F90000021284600F06FFAE0600421284600F086
:102FA0006AFA2061E168401A02F08EFD594602F08B
:102FB0009FFD4FF0FF3102F012FFA17811B1606266
:102FC000A6700BE0154902F093FD05461449606AAE
:102FD00002F08EFD294602F00FFD6062E07828B114
:102FE000606AA061A062E670BDE8F09FA16A606AB5
:102FF0000E46054602F048FE20F00040484502DC3F
:10300000A561A562F0E7A661EEE70000780D00205B
:1030100096430B3D000048420C0000209A99993ECF
:103020003333333F2DE9F041054690F83C0000264C
:103030000C46012810D0012085F83C0072B1042A0A
:103040001CD0082A2CD00C2A50D00126002085F84C
:103050003C003046BDE8F0810220FBE7D4E90012D5
:10306000E368286801F0A0FA2868816921F00C0162
:10307000816128688169A26811430FE0D4E90012D8
:10308000E368286801F0CEFA2868816921F440617C
:10309000816128688169A26841EA02218161D5E7DE
:1030A0002868D4E9002C277B036A016A21F4807127
:1030B0000162C16923F4007321F0030141EA0C01AC
:1030C00021F0F00C39074FF400774CEA116107EA60
:1030D00002221A43C16102622868C16921F00C0111
:1030E000C1612868C169A26811432BE02868D4E94E
:1030F0000021E768036AD0F820C02CF4805CC0F897
:1031000020C0D0F81CC023F400532CF4407C4CEABF
:10311000012121F4704C4FF6FF7101EA07314FF4A1
:10312000005741EA0C0107EA02321A43C161026208
:103130002868C16921F44061C1612868C169A26839
:1031400041EA0221C16181E710B5040003D094F87F
:103150003D0010B107E0012010BD002084F83C00C4
:10316000204600F01EF8022084F83D00211D206852
:1031700001F0AEF9012084F8460084F83E0084F89E
:103180003F0084F8400084F8410084F8420084F84D
:10319000430084F8440084F8450084F83D00002092
:1031A00010BD704710B5044651B104290DD008294F
:1031B00010D094F8410094F84520012811D10EE078
:1031C00094F83E0094F84220F7E794F83F0094F812
:1031D0004320F2E794F8400094F84420EDE7012AF8
:1031E00001D0012010BD022019B3042926D00829DE
:1031F00029D084F8410084F845000122206801F0BC
:10320000A3F913492068884208D0B0F1804F05D057
:103210001049884202D01049884204D1816801F0E7
:103220000701062903D0016841F001010160002077
:1032300010BD84F83E0084F84200DEE784F83F00C9
:1032400084F84300D9E784F8400084F84400D4E7C8
:10325000002C0140000400400008004030B5044646
:10326000002551B104290DD0082910D094F841004F
:1032700094F84520012811D10EE094F83E0094F80E
:103280004220F7E794F83F0094F84320F2E794F8DF
:10329000400094F84420EDE7012A01D0012030BD20
:1032A000022059B1042912D0082919D084F841000C
:1032B00084F845000C2938D0012534E084F83E001C
:1032C00084F842002068C26842F0020210E084F8EC
:1032D0003F0084F843002068C26842F0040207E01F
:1032E00084F8400084F844002068C26842F0080274
:1032F000C2600122206801F027F90E492068884247
:1033000008D0B0F1804F05D00B49884202D00B495C
:10331000884204D1816801F00701062903D00168C1
:1033200041F001010160284630BD2068C26842F0CA
:103330001002DDE7002C01400004004000080040BE
:103340002DE9F04104460068C66805694FF00007A2
:10335000A90713D5B10711D5F91E01610120207706
:10336000206880698007204602D0FFF7C1FD04E095
:1033700000F07EF8204600F07CF82777680716D525
:10338000700714D521686FF00400086102202077CF
:103390002068806910F4407F204602D0FFF7A8FD26
:1033A00004E000F065F8204600F063F8277728076E
:1033B00015D5300713D521686FF008000861042087
:1033C00020772068C0698007204602D0FFF790FD73
:1033D00004E000F04DF8204600F04BF82777E806AF
:1033E00016D5F00614D521686FF01000086108208A
:1033F00020772068C06910F4407F204602D0FFF794
:1034000077FD04E000F034F8204600F032F827772A
:10341000E80708D0F00706D021686FF001000861C6
:10342000204600F027F8280608D5300606D5216882
:103430006FF0800008612046FFF720FC680608D581
:10344000700606D521686FF040000861204600F044
:1034500027F8A8060AD5B00608D521686FF0200025
:1034600008612046BDE8F041FFF709BCBDE8F081E6
:103470007047704770470246002041B1042909D0C7
:1034800008290AD00C2901D11068006C7047106817
:10349000406B70471068806B70471068C06B704756
:1034A0007047704770470000F8B501680446086827
:1034B000CA684B6910F00F0F4FF0000559D003F0A8
:1034C000010602F49077374365D0C10705D0D105D6
:1034D00003D5616C41F001016164410705D5D9074D
:1034E00003D0616C41F002016164810705D5D90701
:1034F00003D0616C41F004016164010707D502F05B
:103500002001314303D0616C41F008016164616CBA
:1035100000293AD0800604D5900602D5204601F055
:10352000CBF820684069616CC0F38010090700D4B3
:1035300060B3204601F099F820684069400621D523
:103540002068143050E8001F21F0400140E80012CC
:10355000002AF5D1E06BA8B16D494163E06BFEF73D
:103560006DFD002811D0E06B416B01B0BDE8F0406B
:10357000084783060FD593060DD52046BDE8F840D1
:1035800001F09AB82046FFF78DFFF8BD2046FFF7FF
:1035900089FF6564F8BD266B2023012E7CD1C60609
:1035A0007AD5D60678D508684868009048694FF003
:1035B0000206400640D5E16B086840680004000C34
:1035C000E8D0A28D8242E5D9E085886920282DD0F7
:1035D00020680C3050E8001F21F4807140E8001290
:1035E000002AF5D12068143050E8001F21F00101B5
:1035F00040E80012002AF5D12068143050E8001F7E
:1036000021F0400140E80012002AF5D184F8423050
:10361000256320680C3050E8001F21F0100140E8BD
:103620000012002AF5D1E06BFEF7E4FC6663A08D82
:10363000E18D401A81B22AE0A08DE18D401A81B25D
:10364000E08D0028A6D00029A4D022680C3252E8D0
:10365000000F20F4907042E80007002FF5D1206899
:10366000143050E8002F22F0010240E80027002F1C
:10367000F5D184F84230256320680C3050E8002FE3
:1036800022F0100240E80023002BF5D166632046AB
:10369000FFF707FFF8BDFFE705062BD5150629D56F
:1036A00094F841002128F5D1A068B0F5805F01D1E0
:1036B0002069B0B1206A411C21622168007848600D
:1036C000E08C401E0004000CE084E3D12068C16857
:1036D00021F08001C1602068C16841F04001C160F3
:1036E000D8E7206A0088C0F308004860206A801C80
:1036F0002062E5E74006CDD55006CBD5CA68204606
:1037000022F04002CA6084F8413000F02FF9C1E78E
:103710005B46000870B5040004D094F84100002511
:1037200010B106E0012070BD84F84050204600F042
:1037300023F8242084F841002068C16821F4005156
:10374000C160204601F01AF82068016921F4904117
:1037500001612068416921F02A0141612068C16846
:1037600041F40051C1606564202084F8410084F870
:1037700042006563002070BD30B585B00024009420
:10378000019402940394324D0368324802210322CB
:10379000AB422ED1836943F480438361836903F490
:1037A00080430493836943F00803836180692A4D51
:1037B00000F0080004904020CDE900010392694622
:1037C0002846FEF799FC8020CDE90004694628468A
:1037D0000294FEF791FC2148416841F0E06141F01C
:1037E00004014160002211462520FEF795FF2520A7
:1037F00029E01B4DAB4228D1C36943F40033C361B8
:10380000C36903F400330493836943F004038361C1
:103810008069144D00F0040004900420CDE90001FB
:10382000039269462846FEF767FC0820CDE90004AC
:10383000694628460294FEF75FFC002211462620C6
:10384000FEF76AFF2620FEF759FF05B030BD0000E5
:103850000038014000100240000C0140000001400F
:10386000004400400008014090F84230202B01D075
:103870000220704721B11AB10023036300F0DABFC0
:103880000120704730B400680C49884214D10C48BC
:103890004188B1F5FF7F09D803784188094A541857
:1038A000491C4180237040880021115430BC012202
:1038B00003490548FFF7D8BF30BC704700380140C6
:1038C00006000020CE0A0020080E00202DE9F84353
:1038D000044690F84100984616460D46202802D02E
:1038E0000220BDE8F88385B17EB10020606421200C
:1038F00084F84100FEF7F6FCA6848146E684A068C1
:103900002027B0F5805F02D003E00120E9E72069BD
:1039100010B12E4600250EE000260CE08021204646
:1039200000F0A3FFA8B9C6B116F8010B21684860E2
:10393000E08C401EE084E08C4B464FF00002CDF856
:1039400000800028EAD14FF04001204600F08DFFB2
:1039500040B184F841700320C3E735F8020BC0F38F
:103960000800E3E784F841700020BAE77047FEE7FB
:1039700001684A69D24352050FD46FF480624A61EC
:10398000002140F8301F202242738173026942F007
:10399000040202610173012070470020704700009B
:1039A000F8B50446C06A1E460D461746082807D0DB
:1039B000012805D010F5803F02D0206B122804D1D9
:1039C0002068016841F480710160134600224FF0C5
:1039D00001112046009600F05DF840B120680068B3
:1039E000C00502D54FF4007020640320F8BD2069A3
:1039F000B0F5804F0ED00620216800EAD51040F0C7
:103A0000F000086133463A460B49204600F08AF838
:103A100078B902E005F0FE0000E0E8B22168086134
:103A2000054933463A46891F204600F07BF80028B6
:103A3000DCD00120F8BD00000800010070B516467A
:103A40000D4604461EE02046FFF792FF08B1012014
:103A500070BD681C16D0FEF745FC801BA84200D83C
:103A600085B920684069C04340070BD5002044F861
:103A7000300F20216173A073216941F02001216181
:103A80002073E4E720684069C0434007DBD400208E
:103A900070BD00002DE9F047984617460D460446D4
:103AA000C1F30746DDF820902AE000BFB8F1FF3FE0
:103AB00026D0FEF717FCA0EB0901414502D8B8F16A
:103AC000000F1DD12068012E16D0806925EA000064
:103AD0000004000C12D00020B84211D1002044F89C
:103AE000300F20216173A073216941F02001216111
:103AF00020730120BDE8F0874069E7E70120EBE78C
:103B00002068012E0AD0806925EA00000004000C1C
:103B100006D00020B842C9D00020EBE74069F3E7A7
:103B20000120F7E72DE9F047984616460D46044672
:103B30004FF000094FF0200AC1F3074723E0206847
:103B40004069C043400515D42068016841F4007104
:103B5000016021686FF480604861C4F8309084F897
:103B60003DA084F83E90216C41F00401216484F86A
:103B70003C9021E0701C06D0FEF7B4FBA0EB0800DF
:103B8000B04203D816B1012F1FD021E02068012FC9
:103B900015D0806925EA00000004000C18D000BF91
:103BA00044F8309F84F80DA084F80E90216941F00C
:103BB0002001216184F80C900120BDE8F087406964
:103BC00025EA00000004000CEAD12068406901E009
:103BD0002068806925EA00000004000CAFD1ECE702
:103BE00070B516460D4604461EE02046FFF7C0FE9F
:103BF00008B1012070BD681C16D0FEF773FB801B56
:103C0000A84200D885B920684069C04300060BD59A
:103C1000002044F8300F20216173A073216941F026
:103C2000200121612073E4E720684069C043000659
:103C3000DBD4002070BD00002DE9F04385B00024E6
:103C400021480094019402940394816941F0200179
:103C50008161816901F020010491816941F00401D1
:103C60008161816901F004010491816941F00801D9
:103C700081618069DFF8548000F008004FF42C6502
:103C80000490002229464046FEF726FBDFF84090CC
:103C90004FF44057002239464846FEF71DFB009579
:103CA000022601250396CDE9015469464046FEF7F8
:103CB00023FA00970396CDE9015469464846FEF77A
:103CC0001BFA05B0BDE8F083001002400008014077
:103CD000000C01400D4810B50B4901600C494160D2
:103CE00000214FF480428160C0E90312416181618B
:103CF000C1610162FEF7FCFA002803D0BDE8104064
:103D0000FEF776B910BD000000540040D00C002032
:103D1000801A06000D4810B50B4901600C4941603E
:103D200000214FF480428160C0E90312416181614A
:103D3000C1610162FEF7DCFA002803D0BDE8104043
:103D4000FEF756B910BD000000580040240D0020B9
:103D5000801A060070B58AB0002432480494059495
:103D600006940794089409940094019402942C49B1
:103D7000039401604721C0E901144FF6FF71C0E9C7
:103D8000031444618461FEF7AFFF08B1FEF730F918
:103D90004FF48050049004A92248FFF73BF808B183
:103DA000FEF726F91F48FFF7CFF908B1FEF720F913
:103DB000089408A91B480994FEF762FF08B1FEF7B2
:103DC00017F90126CDE900460294002269461548FC
:103DD0000394FFF727F908B1FEF70AF902250095C9
:103DE000042269460F480195FFF71CF908B1FEF758
:103DF000FFF8CDE90046082269460A48FFF712F9A4
:103E000008B1FEF7F5F800950C22694605480195C2
:103E1000FFF708F9002801D0FEF7EAF80AB070BDF4
:103E2000002C0140780D002010B586B00024164803
:103E3000009401940294039404944FF080410594FB
:103E4000C0E900144FF6FF71C0E9024104618461CA
:103E5000FEF74AFF08B1FEF7CBF84FF48050009010
:103E600069460948FEF7D6FF08B1FEF7C1F8049489
:103E700004A905480594FEF703FF002801D0FEF7CA
:103E8000B7F806B010BD0000C00D00200C4810B5FA
:103E90000A4901604FF4E1314160002181600C2248
:103EA000C160C0E904128161C161FFF733FC0028E1
:103EB00003D0BDE81040FEF79BB810BD00380140AC
:103EC000080E00200C4810B50A4901604FF4E1319A
:103ED0004160002181600C22C160C0E9041281614F
:103EE000C161FFF717FC002803D0BDE81040FEF7C2
:103EF0007FB810BD00440040500E0020FEE7FEE7F2
:103F000010B5AE2000F03EF9AE2000F043F92020BD
:103F100000F038F9102000F035F9202000F03AF9CF
:103F2000102000F037F9B02000F02CF9B02000F09C
:103F300031F9C82000F026F9C82000F02BF9002044
:103F400000F020F9102000F01DF9002000F022F907
:103F5000102000F01FF9402000F014F9402000F07C
:103F600019F9812000F00EF9812000F013F9DF200B
:103F700000F008F9A12000F005F9DF2000F00AF9AF
:103F8000A12000F007F9A62000F0FCF8A82000F01E
:103F9000F9F8A62000F0FEF8A82000F0FBF83F207A
:103FA00000F0F0F83F2000F0F5F8A42000F0EAF867
:103FB000A42000F0EFF8D32000F0E4F8002000F097
:103FC000E1F8D32000F0E6F8002000F0E3F8D52077
:103FD00000F0D8F8F02000F0D5F8D52000F0DAF89D
:103FE000F02000F0D7F8D92000F0CCF8222000F023
:103FF000C9F8D92000F0CEF8222000F0CBF8DA2062
:1040000000F0C0F8122000F0BDF8DA2000F0C2F88D
:10401000122000F0BFF8DB2000F0B4F8202000F000
:10402000B1F8DB2000F0B6F8202000F0B3F88D20C6
:1040300000F0A8F8142000F0A5F88D2000F0AAF8F0
:10404000142000F0A7F800F00DF800F06BF900F074
:104050008DF9AF2000F096F8BDE81040AF2000F0D9
:1040600099B800004FF480610148FCF725BB0000BF
:104070004E0100203CB51C78059D203ACDE9004555
:104080005D68E41D5B78E408544303FB045200F0D0
:10409000E1F83CBD2DE9FF4F18785978C01DC008E4
:1040A00000254843001D83B01C46174600F0FF0A58
:1040B0002AE07819814600F01EFC5FEA000826D04D
:1040C00000260AE06168484606FB0A1B424659463C
:1040D000FCF762FAF0B1761CF6B2207AB042F1D861
:1040E00010980090E368B8F1010F20D0DDE90301DA
:1040F0002022FFF7BFFFE068417803980844C0B270
:10410000039005EB080085B2785D0028D1D107B097
:10411000BDE8F08F10992078CDE900016378DDE9E2
:1041200003010BF1040200F095F86178E5E77A5D90
:10413000DDE90301FFF79EFFE0686D1CADB2417839
:1041400003980844C0B20390DEE7000008B54FF0C2
:10415000FF3200920B46024678210248FEF78CF9A6
:1041600008BD0000D00C002008B54FF0FF320092CF
:104170000B46024678210248FEF77EF908BD000092
:10418000240D00200249487002210148FFF7DEBFDC
:10419000020000200249487002210148FFF7E4BFF5
:1041A000040000202DE9FC4180460720CDE90003F2
:1041B00001F00704CD08164602FA04F01F46C2B209
:1041C00023464146284600F089F8002C0CD0601E9A
:1041D000C0B2CDE90007C4F1080026FA00F2681C5D
:1041E0000023414600F07AF8BDE8FC812DE9FC434C
:1041F00001F007061446CD089846814601F00701F4
:1042000006EB080204FA01F0099F082A16D90721D3
:10421000CDE90017C2B233464946284600F05EF8A1
:1042200008EB06000938C0B2CDE90007C6F1080066
:1042300024FA00F2681C0023494607E0521ED1B25E
:10424000CDE90017C2B233464946284600F046F889
:10425000BDE8FC832DE9FF4F82B01D460F989346C1
:10426000C70800F0070088460026019018E0029871
:1042700000240BEB060A00EB06090DE004FB05F039
:10428000109B10F80A2008EBC400C1B209F0FF002F
:10429000FFF788FF641CE4B2BC42EFD3761CF6B291
:1042A000AE42E4D30198002815D005FB07F60024A0
:1042B00008EBC7070DE010980090311902981BF821
:1042C00001202044F9B2C0B2019BFFF78FFF641CAC
:1042D000E4B2AC42EFD306B0BDE8F08FF0B50828E9
:1042E000DDE9056419D2802917D20CB1D243D2B2CC
:1042F000FF25761C05FA06F6C3F10803084F46EAC7
:104300000204DD4007EBC017044B785CB2432C433A
:10431000AA4320401A7010437854F0BD00000020DA
:104320004E01002070B5104D40200024287005F586
:10433000817600BF04F1B000C0B2FFF723FF002078
:10434000FFF720FF1020FFF71DFF06EBC4118022AE
:10435000681CFCF76CF981210348FFF7F7FE641C29
:10436000E4B2082CE6D370BD4C00002070B5104DAF
:1043700040200024287005F1810600BF04F1B00040
:10438000C0B2FFF707FF0020FFF704FF1020FFF780
:1043900001FF06EBC4118022681CFCF748F981215B
:1043A0000348FFF7E1FE641CE4B2082CE6D370BDBD
:1043B000CD000020704770472DE9FF5F00241E46A6
:1043C0004FF4007ADFF88880A1464FF4FA7B0E9F05
:1043D00039E051461F48FCF76FF9A8F80290DDE973
:1043E00000021DA100F0F0FEFDF77CFF054617E07E
:1043F00098B118480299FCF7BDF870B1154A16A19A
:10440000164800F0E1FE51461248FCF755F9A8F8AD
:104410000290002004B0BDE8F09F0A20FDF75AFE8C
:10442000FDF760FF401BB0424046B8F80200DFD302
:1044300020B1084A08A1094800F0C6FE641CE4B295
:104440005846FDF747FEBC42C3D34FF0FF30E1E7CB
:1044500006000020CE0A002025730000500E002028
:10446000FEF7F4B830B58FB028216846FCF746F95E
:1044700014210AA8FCF742F901210804CDE9001033
:104480000024029402250491CDE907504FF4E01076
:1044900009906846FEF74EFA08B172B6FEE70F20A3
:1044A000CDE90A054FF48060CDE90C4002210AA84D
:1044B0000E94FEF763F9002801D072B6FEE70FB044
:1044C00030BD70470148FEF73BBF0000780D00206B
:1044D000F0B50268194B1A4C1A4D4FF080479842BC
:1044E00005D0B84203D0A04201D0A84203D122F0A7
:1044F00070064A683243984205D0B84203D0A042C1
:1045000001D0A84203D122F44074CA6822434C6906
:1045100022F08002224302608A68C2620A688262D4
:10452000984201D109690163012141610169C9070B
:1045300003D0016921F001010161F0BD002C0140AF
:10454000000400400008004010B501F01F030121E5
:10455000046A99408C430462016A9A4011430162E3
:1045600010BD10B5846842EA032224F47F440A4354
:104570002243826010BD826822F070020A4342F03A
:1045800007018160704710B5036A046A24F00104D2
:104590000462846924F0F00444EA021423F00A025D
:1045A0000A438461026210BD70B5056A046A24F092
:1045B0000104046284690F4EB04208D0B0F1804F0C
:1045C00005D00D4EB04202D00C4EB04203D124F0C3
:1045D0000304144301E044F001041A0724F0F0043A
:1045E00044EA126225F00A0301F00A0119438261CC
:1045F000016270BD002C0140000400400008004032
:1046000010B5036A046A24F010040462846923F07C
:10461000A00324F4704444EA023243EA01118261A7
:10462000016210BD30B5046A056A25F01005056207
:10463000856925F4407545EA022222F470454FF65B
:10464000FF7202EA033224F0A0032A43A02404EA02
:10465000011119438261016230BD10B5406A002129
:10466000C185C184FEF71EFF10BD01680C3151E801
:10467000002F22F4907241E80023002BF5D101684D
:10468000143151E8002F22F0010241E80023002BF1
:10469000F5D1016B012909D101680C3151E8002FD6
:1046A00022F0100241E80023002BF5D1202180F8F0
:1046B000421000210163704708B590F8421022298A
:1046C00001D0022008BD82684FF480539A4201D184
:1046D000016921B1816A9A421BD04AB10AE002689D
:1046E000816A5268C2F308020A80816A891C08E064
:1046F000026972B10268526802F07F020A70816A30
:10470000491C8162C18D491E0904090CC18503D071
:104710001BE002685268F1E70168CA6822F02002D3
:10472000CA600168CA6822F48072CA6001684A6976
:1047300022F001024A61202180F8421000214163E9
:10474000026B012A03D0FFF79DF8002008BD01632A
:1047500001680C3151E8002F22F0100241E80023DB
:10476000002BF5D101680A68D20602D50A684968AB
:104770000091818DFEF795FEE7E7000070B50446D5
:1047800000680169E26821F4405111430161216927
:10479000A0680843616908432168CA6841F20C6354
:1047A0009A430243CA6020684169A26921F44071BA
:1047B000114341611E492068884202D1FEF784F806
:1047C00001E0FEF771F800EBC00101EB0012606838
:1047D00064218000B2FBF0F3B3FBF1F36FF0180635
:1047E0007343B2FBF0F5B2FBF0F605EB8305322321
:1047F00003EB0515B5FBF1F5B6FBF1F605F0F00599
:1048000005EB0615B2FBF0F6B2FBF0F0B0FBF1F0F1
:104810006FF01802504306EB800003EB0010B0FB72
:10482000F1F0216800F00F002844886070BD00009E
:104830000038014081628285C285002141642221C5
:1048400080F84210016921B10168CA6842F480729F
:10485000CA6001684A6942F001024A610068C168A1
:1048600041F02001C160002070472DE9F8439846CF
:1048700017460D460446089E24E0701C22D0FDF722
:1048800031FDA0EB0800B0421AD8CEB12068C16853
:10489000490717D5802D15D0402D13D00168C94385
:1048A00009070FD401680025406800902046FFF7F3
:1048B000DCFE0820606484F840500120BDE8F883E5
:1048C0000320FBE72068006835EA000004D00020E0
:1048D000B842D2D00020F1E70120F9E70148FEF705
:1048E000E3BD0000080E00200148FEF7DDBD00001A
:1048F000500E0020FEE70078010601D40120704729
:104900000621B1EB501F01D1022070470E21B1EBFF
:10491000101F01D1032070471E21B1EBD00F01D130
:104920000420704700207047490050EAC12018BF9A
:1049300004204A0D18BF40F0010040F2FF72B2EBB4
:10494000515F08BF40F00200012808BF05207047F2
:104950000907090E002804DB00F1E02080F80014AC
:10496000704700F00F0000F1E02080F8141D704740
:1049700030380A2801D2012070470020704700001B
:10498000ADF5467DFDF76AFEFFF76CFDFFF754F9C4
:10499000FFF7E0F9FFF7BEF9FFF79CF9FFF792FA8E
:1049A000FFF774FAFFF740FA6420FDF793FBFFF777
:1049B000A7FAF948FEF706FA0821F748FEF7F2FBD6
:1049C0000C21F548FEF74AFC0021F348FEF7EAFB0C
:1049D0000421F148FEF742FC14219CA8FBF78EFE4F
:1049E0001421A1A8FBF78AFE142192A8FBF786FEEA
:1049F000142197A8FBF782FE1421A6A8FBF77EFEE0
:104A00001421ABA8FBF77AFE1421B0A8FBF776FEC1
:104A10001421B5A8FBF772FE00208D908C908B902E
:104A20008346824680460746BD908A90C090C490D7
:104A300006460546C39000F061FA0020CDF8F0026A
:104A4000FDF750FC04464FF4007901224946D34853
:104A5000FDF742FC0120FDF73DFB00224946CF480F
:104A6000FDF73AFCCC484FF000090068C0F82490EC
:104A70000122D102C948FDF72FFC0120FDF72AFBD6
:104A800000224FF40061C548FDF726FCC2490968C1
:104A9000C1F82490DFF80893D9F8140000F080FFE3
:104AA0000B460246BFA19CA8FBF7FEFBD9F81800F5
:104AB00000F076FF02460B46BAA1A1A8FBF7F4FB73
:104AC000D9F81410B948A1F50001814203D8052E88
:104AD00008DA761C03E016F1050F2ADD761E76B2A1
:104AE000052E23DBBBF1000F02D14FF0010B8D949B
:104AF0000020BD908D984FF47A71A4EB0008B8FBAC
:104B0000F1F000F0D3FCAA4AAA4B00F01FFD00F020
:104B1000A1FBC490A8A192A8FBF7C6FB01228021AB
:104B20009E48FDF7D9FB002240211EE016F1050F3B
:104B300025DCBBF1010F1CD0BD9858B18B98211A10
:104B400040F6B830814205D34FF00008CDF810830D
:104B5000CDF8F4829AA192A8FBF7A6FB012240218E
:104B60008E48FDF7B9FB002280218C48FDF7B4FB8D
:104B700016E001208B944FF0000BBD90DEE7BBF1F7
:104B8000010F18D0BD9858B18B98211A40F6B83053
:104B9000814205D34FF00008CDF81083CDF8F482A0
:104BA000D9F818008149A0F50000884214D8052DD5
:104BB00019DA6D1C14E08D98A4EB00084FF47A709C
:104BC000B8FBF0F000F072FC794A7A4B00F0BEFCC2
:104BD00000F040FBC490E3E715F1050F2ADD6D1EE0
:104BE0006DB2052D23DBBAF1000F02D14FF0010A9F
:104BF0008C940020C0908C98271A4FF47A70B7FBE1
:104C0000F0F000F053FC6A4A6A4B00F09FFC00F0A1
:104C100021FBC39068A197A8FBF746FB6A4C0122D1
:104C200051032046FDF758FB0022A1141CE015F1AA
:104C3000050F23DCBAF1010F1AD0C09840B18A9851
:104C4000211A40F6B830814202D30027C397C0979B
:104C50005BA197A8FBF728FB5B4C012211032046C0
:104C6000FDF73AFB002261142046FDF735FB13E007
:104C700001204FF0000A8A94C090E0E7BAF1010FDA
:104C800032D0C09840B18A98211A40F6B83081429B
:104C900002D30027C397C0974FF47A72B8FBF2F0A3
:104CA00081B23C20B1FBF0F3BB93B1FBF0F300FB0E
:104CB00013118F91B7FBF2F189B2B1FBF0F2BA9206
:104CC000B1FBF0F200FB12108E90FDF70BFBD9F850
:104CD0002C104C46401AB0F5C87F5BD3FDF702FBA1
:104CE000E062BC9880B19BE08C98271A4FF47A70F0
:104CF000B7FBF0F000F0DAFB2D4A2E4B00F026FC5B
:104D000000F0A8FAC390C7E70120BC90C49800F057
:104D100047FE4FF47A74B8FBF4F2CDE9080104A918
:104D20004FF0660929A3692081E80D02622029A3BA
:104D300027A2CDE90030CDE902B2032326A227A1A4
:104D40000AA8FDF71BF80AAA2FA1304800F03CFA88
:104D50003220FDF7BFF9C39800F022FEB7FBF4F252
:104D6000CDE9080104A82AA3692180E80E02622087
:104D700029A328A2CDE90030CDE902A2032316A27F
:104D800016A10AA8FCF7FAFF0AAA1FA11F4800F003
:104D90001BFA45E042E00000780D002000080140C9
:104DA0000C000020252E3266636D000000002040BC
:104DB0007B14AE47E17A943FE58DA0E794A800000C
:104DC000E7A9BAE997B20000000C01404D3100009C
:104DD00054310000423100003132330024737973C2
:104DE0002F63373256473162356E362F73746D3309
:104DF000322F7468696E672F70726F706572747984
:104E00002F706F737400000025730000080E0020DF
:104E10004D32000054320000423200000020BC90AD
:104E20002FA1A6A88F9BBB9AFBF73EFA2CA1ABA89B
:104E30008E9BBA9AFBF738FAC49800F0B1FD02468F
:104E40000B462AA1B0A8FBF72FFAC39800F0A8FDE3
:104E500002460B4625A1B5A8FBF726FAFFF702F993
:104E60000024254B92AA214620460094FFF712F910
:104E7000214BA6AA102100200094FFF70BF91E4B2E
:104E8000B0AA202100200094FFF704F91A4B9CAA35
:104E9000302100200094FFF7FDF8FFF767FAFFF7D5
:104EA000E1F80021144B97AA08460094FFF7F2F8A6
:104EB000114BABAA102100200094FFF7EBF80E4B2A
:104EC000B5AA202100200094FFF7E4F80A4BA1AA1C
:104ED000302100200094FFF7DDF8FFF723FAAFE55B
:104EE0002564E588863A2564E7A7920025302E32AE
:104EF00066E58583000000000466000830B5ADF566
:104F0000017D4FF47A70FDF7E5F8012241494248EE
:104F1000FEF7AAFC41A1404800F056F94FF4FA65AB
:104F20002846FDF7D7F803242B463FA23FA13A4875
:104F30000094FFF741FA18B140A1444800F044F949
:104F400043A347A249A101A8FBF7AEF942F21073AF
:104F500035A201A930480094FFF72EFA18B149A1F3
:104F60003A4800F031F92846FDF7B4F84848009077
:104F700048A34BA24CA101A8FBF796F940F6B83321
:104F800029A201A924480094FFF716FA18B151A1EB
:104F90002E4800F019F940F25B7352A256A101A805
:104FA000FBF782F94FF4FA531FA201A91A480094A3
:104FB000FFF702FA18B157A1244800F005F938A309
:104FC00034A259A101A8FBF76FF941F288352B46AD
:104FD00015A201A910480094FFF7EEF918B160A1DD
:104FE0001A4800F0F1F82EA32AA264A101A8FBF749
:104FF0005BF92B460CA201A907480094FFF7DCF9E6
:10500000002803D06AA1114800F0DEF80DF5017DFB
:1050100030BD000006000020080E002041542B5235
:1050200053540D0A000000004F4B000041542B4325
:10503000574D4F44453D310D0A0000004552523A4C
:105040002043574D4F44450D0A000000500E0020EC
:1050500051425A3236373033383037393200000057
:105060006D6F7368616F79750000000041542B43C8
:10507000574A41503D222573222C222573220D0AC6
:10508000000000004552523A20574946490D0A0097
:105090003C67000863373256473162356E36000090
:1050A00073746D333200000041542B4D51545455EC
:1050B0005345524346473D302C312C222573222C38
:1050C000222573222C222573222C302C302C2222D4
:1050D0000D0A00004552523A204D51545420434687
:1050E000470D0A006D717474732E6865636C6F757B
:1050F00064732E636F6D000041542B4D5154544323
:105100004F4E4E3D302C222573222C25642C310D20
:105110000A0000004552523A204D51545420434F4A
:105120004E4E0D0A0000000041542B4D5154545373
:1051300055423D302C22247379732F25732F25730C
:105140002F7468696E672F70726F70657274792F33
:10515000706F73742F7265706C79222C300D0A0099
:105160004552523A205355425343524942452050EA
:105170004F5354205245504C590D0A0041542B4D69
:105180005154545355423D302C22247379732F25AA
:10519000732F25732F7468696E672F70726F706537
:1051A0007274792F736574222C300D0A0000000090
:1051B0004552523A20535542534352494245205397
:1051C00045540D0A000000000FB44FF4007110B5F3
:1051D000044604AB0848039AFBF74CF80648FBF773
:1051E00007FA82B24FF0FF3303492046FEF76EFB09
:1051F00010BC5DF814FB00004E05002010B500291E
:105200000AD00878002807D005487844FCF7A6F9AA
:10521000002801D0002010BD0248784410BD0000D5
:10522000CE150000C615000010B500290AD0087878
:10523000002807D005487844FCF790F9002801D0F1
:10524000002010BD0248784410BD0000BE150000CB
:10525000B615000021F00042A2F16052B2F5801FA5
:1052600001F0004328BFD2F17F6C0BD95FEA001C2C
:1052700043EAC20242EB507018BF704728BF20F0CB
:1052800001007047B2F5801FBCBF184670474FEA57
:10529000410C1CF5001F02D2084600F0F0BC70B5AE
:1052A00000F0FEF900000089FFF7F6BF4FF0004064
:1052B000A0F580007047000010B591EA030F48BFC9
:1052C00083F0004300F18A82841A71EB030C05D24B
:1052D000121943EB0C03001B61EB0C01DFF824E116
:1052E0004FEA1154A4EB135C1EEA430F18BF9EEA69
:1052F000445F73D023EA0E03DCF1200E21EA04514F
:1053000043F4801332D322FA0CFE10EB0E0023FA82
:105310000CFE41EB0E01CCF1200E03FA0EFE10EB59
:105320000E0051F10001B1F5801FCCF1200E32D2F8
:1053300001EB045112FA0EF2BDE8104058BF70475D
:10534000401C38BF5FEA420218BF7047002814BFF4
:1053500020F0010041F100014FEA410313F5001F65
:1053600038BF7047A1F1C04100F0E8B9012A43EB12
:105370000302ACF1200CDCF11F0E32BF4FF0000E27
:1053800023FA0CF310EB030041EB0451B4EB115F73
:10539000D0D0A1EB045101F5801149085FEA30003B
:1053A00001EB04510ED350F1000038BF12FA0EFE8B
:1053B00008D1BDE81040C9E7401C38BF5FEA42028F
:1053C000CAD1C3E7BDE810404FEA410313F5001FFF
:1053D00038BF7047A1F1C04100F0B0B99EEA445F08
:1053E00008D011EA5E0FBDE8104004BF01F0004193
:1053F00000207047BDE8104070B500F051F900BFC3
:1054000064FBBE3E0000E0FF491058BFC1F14041BF
:105410005B1058BFC3F140438B42EFF300807047ED
:105420004FEA41034FEA5353A3F58063D3F11E03C0
:10543000C8BFD3F1210C0CDD4FF0004242EAC1227B
:1054400042EA505232FA03FC8CEAE17CACEBE170A8
:105450007047102BC4BF0020704703F5787CBCF167
:10546000FF3F04D06FF0004282EA2100704770B520
:1054700000F016F94992248000207047F2E710F0FE
:10548000004248BF4042B0FA80F310FA03F10AD05C
:10549000C3F11D0303F580634FEA415002EB035251
:1054A00002EBD12170474FF000007047B0FA80F353
:1054B00010FA03F10AD0C3F11D0303F580634FEA2C
:1054C00041504FEA035202EBD12170474FF00000E8
:1054D0007047000051EA030C17D41CF5801F58BF19
:1054E000BCF5801F00F10680994218BF704708BFC5
:1054F0009042704707D711F5801F58BF13F5801FE2
:1055000019D499427047894270471CF5801F08D50D
:10551000BCF5801FF7D58B4218BF704708BF824289
:1055200070474FF4001C1CEB410F38BF1CEB430FBE
:1055300001D28B42704770B500F0B2F89224490056
:105540004FF000514FF08053FFF75EBFDFF848C1C6
:1055500070B51CEA111E1EBF1CEA13159EEA0C0F43
:1055600095EA0C0F00F06F8081EA030423EA4C13E4
:105570004EEAD47E21EA4C1141F4801143F48013A9
:10558000AE44A1FB024CA0FB0365AEF17F7E361951
:1055900055EB0C05A1FB034C4CF10003A0FB021CD6
:1055A00016EB0C06654153F10003094218BF46F0A3
:1055B000010613F4007F0BD14FEA03314FEA0530A7
:1055C000340341EA155140EA16506FF003020AE035
:1055D0004FEAC3214FEAC520F40241EA555140EA9F
:1055E00056506FF0020202EB2E4201EB025585EAA3
:1055F000CE710AD05FEA440C18BF24F0004450F189
:10560000000041F1000120EAD47040F2FE7C6245C6
:1056100000D270BDA84214BF4FF080444FF0404408
:10562000002E08BF0024BEF1806FA8BFA1F1C041C9
:10563000BDE8704080F282804FF0000001F1C0416F
:1056400001F0004170479EEA0C0F0CEA131518BFD9
:1056500095EA0C0F06D04FF0000081EA030E0EF021
:10566000004170BD00F01CF88900013E00F007B851
:1056700000F009B84FEA430C5FEA5C5C08D081EAAD
:10568000030100F05BB84FEA410C5FEA5C5CF6D1C5
:105690004FF00000014970470000FF070000F87F4D
:1056A0000EF1020E2EF0030E5EF8046B364205D4A6
:1056B000012A43EB030515F5001F12D8012841EB21
:1056C000010C1CF5001F0CD80ED14FEAD17C15F54A
:1056D000001F0CEB4C0C0CF1020C08BF4CEBD37C04
:1056E00004E04FF0080C01E04FEAD37C0CEB4C05D2
:1056F00026FA05F606F00706B6F1040C06D20EEB04
:10570000860CBDE870404CF0010C6047DFE80CF0FF
:10571000090B02024FF000414FF00000A1F50021FB
:1057200070BD19461046012851EB010418BFD4F58D
:10573000001484BF002001F0004170BD0808A0F5EE
:1057400000114FEA3101704753EA010C17D41CF5E0
:10575000801F58BFBCF5801F00F106808B4218BF28
:10576000704708BF8242704707D713F5801F58BFA4
:1057700011F5801F19D48B4270479B4270471CF56E
:10578000801F08D5BCF5801FF7D5994218BF704718
:1057900008BF904270474FF4001C1CEB430F38BF0A
:1057A0001CEB410F01D2994270470FB40CBC03BCF3
:1057B000FFF7C1BE91EA030F10B581F000413FF53C
:1057C00083AD83F0004300F009B8000010B591EA02
:1057D000030F48BF83F000433FF576AD841A71EBA9
:1057E000030C07D212198CF0004C43EB0C03001B86
:1057F00061EB0C01DFF8A4E14FEA1154A4EB135C58
:105800001EEA430F18BF9EEA445F00F0B08023EA0F
:105810006E03524221EA0451C3EB6E0338BF5B1E94
:10582000DCF1200E25D322FA0CFE10EB0E0043FA19
:105830000CFE41EB0E01CCF1200E03FA0EFE10EB34
:105840000E0051F10001CCF1200E29D412FA0EF213
:1058500001EB0451BDE8104058BF7047401C1CBF0D
:10586000B2F1004F704700280CBF491C20F0010026
:10587000704712EB020E43EB030218BF4FF0010E0C
:105880004EEA4202ACF1200CDCF11E0E54D943FA70
:105890000CFE10EB0E0051F1FF31CCF11E0ED5D5F0
:1058A0000EF1010E12FA0EFE404141EB010101EB37
:1058B000445C5FEA5C5C10D910EBDE7001EB0451D4
:1058C00038BFBEF1004FBDE8104018BF7047002838
:1058D0000CBF491C20F00100704730D24FEAD42C95
:1058E00011F5001124F400641BD0B1FA81F20B3AD7
:1058F000A41AA41ED2F12003914030FA03F31943F5
:10590000904001EBCC71002C01EB0451BDE810403C
:10591000A8BF704701F1C0414FF0000001F0004105
:105920007047B0FA80F310FA03F100D110BDE41A09
:10593000173C4805C90AE4E701EB045110BD4910C2
:1059400001EB0451BDE810404FEA300002E04FF097
:10595000000170474A0008BF0042F8D0B2F5001FAE
:1059600028BF704701F000414FF0000070479EEAE9
:10597000445F07D011EA5E0FBDE8104004BF00216C
:1059800000207047BDE8104070B5FFF789FE00BFEA
:1059900040DFF63E83F00041104670470000E0FF14
:1059A00043004FEAD30C4FEA3C0C43401FBF400773
:1059B0000CF1605113F0FE4F70471CF0006F03D1E3
:1059C00000200CF0004170470CF0004343EA507097
:1059D00010B540EACC0000F00CF900BF00000092C6
:1059E0004FEA0001FFF7AABE4FF000414FF0000060
:1059F000A1F500217047000090EA010F48BF81F037
:105A0000004100F14881421A3CBF801A89184FEAD0
:105A1000D0524FF07F4C1CEA410FA2EBD15318BF7C
:105A20009CEA026F00F03B804FF0004C4CEA0020F3
:105A30004CEA012121FA03FC10EB0C0C1ED202F1FE
:105A4000FF325FEA1C2040EBC25038BF70471CF0A9
:105A50007F0F4FEA400C18BFBCF17F4F38BF704733
:105A6000C3F12003994008BF20F00100BCF17F4F33
:105A700038BF7047A0F1C04000F001B94FEA3C00C8
:105A8000000A40EBC25028BF1CF0FF0F4FEA400C49
:105A9000E6D018BFBCF17F4F38BF7047EAE79CEAF9
:105AA000026F05D010EA5C0F08BF00F0004070479D
:105AB00010B500F09EF800BF64FBBE3E014800F048
:105AC0005CB900BF0000C07FB0FA80F310FA03F2A7
:105AD000C3F19D030AD0D90501EB1220530638BF4C
