:100000000C942A000C9445000C9445000C94450077
:100010000C9445000C9445000C9445000C9445004C
:100020000C9445000C9445000C9445000C9445003C
:100030000C9445000C9445000C9445000C9445002C
:100040000C9445000C9445000C9445000C9445001C
:100050000C94450011241FBECFE5D4E0DEBFCDBF18
:1000600010E0A0E6B0E0EEEDF1E102C005900D92E7
:10007000AE36B107D9F710E0AEE6B0E001C01D9290
:10008000AE3AB107E1F70C945C020C940000CF93F8
:10009000DF93CDB7DEB780913700886B8093370050
:1000A000809137008B7B8093370080912D00806595
:1000B00080932D00DF91CF910895CF93DF93CDB73B
:1000C000DEB722970FB6F894DEBF0FBECDBF89838F
:1000D000898180932F0080912E0088230CF0FBCF24
:1000E00080912F008A838A81992722960FB6F894EF
:1000F000DEBF0FBECDBFDF91CF910895CF93DF93C9
:10010000CDB7DEB780913700886B80933700809140
:1001100037008B7B8093370080913800806180931B
:100120003800DF91CF910895CF93DF93CDB7DEB73D
:100130002C970FB6F894DEBF0FBECDBF809138006C
:10014000877F80933800809138008F7E80933800BD
:1001500080E20E945D0082E10E945D008091380093
:1001600080618093380080913800886080933800E7
:1001700080E090E0A0E8BFE389839A83AB83BC83EF
:1001800020E030E04AE753E469817A818B819C81E9
:100190000E94D404DC01CB018F839887A987BA879A
:1001A00020E030E040E85FE36F81788589859A85BB
:1001B0000E945B0688230CF005C081E090E09E83DE
:1001C0008D831AC020E03FEF4FE757E46F817885B9
:1001D00089859A850E94EF0518160CF003C01E82CF
:1001E0001D820AC06F81788589859A850E942003C7
:1001F000DC01CB019E838D838D819E819C878B87C3
:100200008B859C850197F1F79C878B872C960FB681
:10021000F894DEBF0FBECDBFDF91CF910895CF938D
:10022000DF93CDB7DEB72C970FB6F894DEBF0FBEC5
:10023000CDBF80913800886080933800809138006D
:100240008F7E8093380080E20E945D0083E10E94EF
:100250005D008091380080618093380080E090E0FC
:10026000A0E0B0E489839A83AB83BC8320E030E0D4
:100270004AE753E469817A818B819C810E94D4048E
:10028000DC01CB018F839887A987BA8720E030E013
:1002900040E85FE36F81788589859A850E945B06D7
:1002A00088230CF005C081E090E09E838D831AC006
:1002B00020E03FEF4FE757E46F81788589859A8585
:1002C0000E94EF0518160CF003C01E821D820AC0A2
:1002D0006F81788589859A850E942003DC01CB0196
:1002E0009E838D838D819E819C878B878B859C854A
:1002F0000197F1F79C878B872C960FB6F894DEBF99
:100300000FBECDBFDF91CF910895CF93DF93CDB7CF
:10031000DEB780913800877F80933800DF91CF91DE
:100320000895CF93DF93CDB7DEB722970FB6F89439
:10033000DEBF0FBECDBF8983809138008F7E809352
:10034000380081EE0E945D008091380080618093CA
:100350003800809138008F7E8093380080EA0E94B8
:100360005D001A829A818981981760F48A819927A1
:10037000FC01E259FF4F80810E945D008A818F5FFE
:100380008A83F0CF80913800806180933800229674
:100390000FB6F894DEBF0FBECDBFDF91CF910895A9
:1003A0000F931F93CF93DF93CDB7DEB722970FB68E
:1003B000F894DEBF0FBECDBF8983809138008F7E59
:1003C0008093380081E60E945D001A829A818981BB
:1003D000981770F48A8199278C0102571F4F8FEF6D
:1003E0000E945D00F80180838A818F5F8A83EECF4F
:1003F00080913800806180933800809138008F7E32
:100400008093380082EE0E945D0080913800806108
:100410008093380022960FB6F894DEBF0FBECDBF92
:10042000DF91CF911F910F910895CF93DF93CDB7B7
:10043000DEB721970FB6F894DEBF0FBECDBF809117
:1004400038008F7E8093380087E00E945D008983AA
:1004500080913800806180933800898199272196A6
:100460000FB6F894DEBF0FBECDBFDF91CF910895D8
:10047000CF93DF93CDB7DEB721970FB6F894DEBFE9
:100480000FBECDBF8983809138008F7E8093380066
:1004900087E20E945D0089810E945D0080913800A2
:1004A00080618093380021960FB6F894DEBF0FBEAE
:1004B000CDBFDF91CF910895C1E5D4E0DEBFCDBFC0
:1004C0000E944700789480913100806180933100D0
:1004D000809132008061809332000E947E000E94F1
:1004E0000F01809138008F7E8093380081E20E9456
:1004F0005D0080E00E945D00809138008061809303
:100500003800809138008F7E8093380081E30E940C
:100510005D0080E20E945D008091380080618093E0
:10052000380080E090E0A0E8BFE389839A83AB8342
:10053000BC8320E030E04AE753E469817A818B8113
:100540009C810E94D404DC01CB018F839887A9870A
:10055000BA8720E030E040E85FE36F8178858985E5
:100560009A850E945B0688230CF005C081E090E02C
:100570009E838D831AC020E03FEF4FE757E46F81E1
:10058000788589859A850E94EF0518160CF003C0BE
:100590001E821D820AC06F81788589859A850E9496
:1005A0002003DC01CB019E838D838D819E819C87FE
:1005B0008B878B859C850197F1F79C878B87809132
:1005C00036009927847090700097C9F70E94150231
:1005D0008D878D85992780749070009729F180E42C
:1005E0000E94380280E20E94D0011E868E858032F1
:1005F00080F48E859927DC01A259BF4F8E859927FB
:10060000FC01E257FF4F80818C938E858F5F8E8730
:10061000EDCF80E20E9491010E949400809132000F
:1006200090E18927809332008D85992780729070A0
:10063000009729F280E20E9438020E940F01BFCF8A
:10064000EF92FF920F931F937B018C0120E030E02B
:1006500040E05FE40E94250688239CF020E030E023
:1006600040E05FECC801B7010E946E04DC01CB01E1
:10067000BC01CD010E9491066050704080409048BE
:1006800004C0C801B7010E9491061F910F91FF900D
:10069000EF900895A0E0B0E0E0E5F3E00C94B80836
:1006A0008C017B015A01DC018C91823058F0FB01F6
:1006B0009081923010F4A7010BC1843029F494305A
:1006C00009F4A6C0A80104C19430A9F3923009F43A
:1006D000A9C0823081F3F801C280D380FB0162811E
:1006E0007381F8012481358146815781F701648047
:1006F000758086809780C601861B970B97FDD8C0B2
:1007000080970CF46CC06C157D050CF0ADC06624B0
:1007100077244301F8016181F7018181681709F4A9
:1007200099C0662309F491C0621A730A840A950A73
:10073000A401930157FDC0C0F5011182B601190152
:100740002A0179018A0139014A0108946108710876
:1007500081089108FFEF6F16FFEF7F06FFEF8F060E
:10076000FFE39F06F0F4A8019701220F331F441FF7
:10077000551F19012A01B601615070406B017901C2
:100780008A0139014A0108946108710881089108B9
:100790008FEF68168FEF78068FEF88068FE3980645
:1007A00010F383E0D5018C9357FC64C0F5012483DA
:1007B00035834683578373836283A50189C06F5F46
:1007C0007F4FD401C30181709070A070B070969477
:1007D000879477946794682A792A8A2A9B2A6C15C9
:1007E0007D056CF311C00894C11CD11CDA01C9014C
:1007F00081709070A070B070569547953795279589
:10080000282B392B4A2B5B2BC616D70664F382CFD5
:10081000F8019181FB018181981709F453CF45E6D6
:1008200050E056C0823009F04DCF88E0DA01F8017F
:1008300001900D928A95E1F7F8018181FB01918188
:100840008923FA018183A50143C026193709480984
:10085000590970CFF5016183B601260D371D481D7A
:10086000591D19012A019DCF6B0120E030E040E0C5
:1008700050E050CFD201C101B695A79597958795C5
:1008800021E030E040E050E0222233224422552291
:10089000282A392A4A2A5B2AF5012482358246828F
:1008A00057820894C11CD11CD382C282A50110C0FA
:1008B000909581959F4F24CF81E0F5018183B6010A
:1008C00050954095309521953F4F4F4F5F4F37CF13
:1008D000CA01E2E1CDB7DEB70C94D408A0E2B0E0E3
:1008E000E4E7F4E00C94C608DC01CB01898F9A8F11
:1008F000AB8FBC8F2D8F3E8F4F8F58A3BE016F5F84
:100900007F4FCE0149960E94CB078E01075F1F4F94
:10091000B801CE014D960E94CB07AE014F5E5F4FEE
:10092000B801CE0101960E944A030E94E306DC0151
:10093000CB01BC01CD01E4E0A0960C94E208A0E25A
:10094000B0E0E5EAF4E00C94C608DC01CB01898F45
:100950009A8FAB8FBC8F2D8F3E8F4F8F58A3BE01C8
:100960006F5F7F4FCE0149960E94CB078E01075FD4
:100970001F4FB801CE014D960E94CB078A8591E0AA
:1009800089278A87AE014F5E5F4FB801CE0101967D
:100990000E944A030E94E306DC01CB01BC01CD01A9
:1009A000E4E0A0960C94E208A0E2B0E0EAEDF4E006
:1009B0000C94B808DC01CB01898F9A8FAB8FBC8F68
:1009C0002D8F3E8F4F8F58A3BE016F5F7F4FCE019B
:1009D00049960E94CB0769E070E06C0F7D1FCE0145
:1009E0004D960E94CB07FE01319666247724430181
:1009F000130124018981823098F09985923058F44E
:100A000020E091818A85981321E02A8769E070E0CF
:100A10006C0F7D1FD9C0843059F4923009F45BC04B
:100A200020E091818A85981321E02183BF01CCC009
:100A3000943009F44DC0823099F3923009F3ED807F
:100A4000FE800F8118852D853E854F85588964016C
:100A500053016FE170E00CC0220F331F441F551F7C
:100A600016950795F794E7946150704077FD36C06E
:100A7000D801C70181709070A070B070892BC9F047
:100A800080E090E0220E331E441E551E22163306CF
:100A90004406550610F481E090E0AA2797FDA09542
:100AA000BA2F8A0D9B1DAC1DBD1D680E791E8A1EB6
:100AB0009B1EAA0CBB1CCC1CDD1C57FFCDCF81E0BC
:100AC00090E0A0E0B0E0A82AB92ACA2ADB2AC4CF65
:100AD000823009F095CF65E670E076C022813381DF
:100AE0008B859C85280F391F2E5F3F4FA90160E041
:100AF00091818A85981361E06A8B97FE0FC02FC0A1
:100B0000CA010197AC019C01660C771C881C991CDA
:100B100057FC41C0220C331C441C551C90E0691644
:100B200090E0790690E0890690E4990648F33C8BC2
:100B30002B8BD401C3018F779070A070B07080347C
:100B40009105A105B10581F16D8A7E8A8F8A988E03
:100B500083E0898B61E170E06C0F7D1F35C02F5FF2
:100B60003F4FA901D401C30181709070A070B07093
:100B7000892B61F0569447943794279480E090E055
:100B8000A0E0B0E8282A392A4A2A5B2A969487945A
:100B900077946794C3CF81E090E0A0E0B0E0682A4A
:100BA000792A8A2A9B2AB6CF67FC05C02114310412
:100BB0004104510449F280E490E0A0E0B0E0680E06
:100BC000791E8A1E9B1EC0CFCB010E94E306DC016A
:100BD000CB01BC01CD01E2E1A0960C94D408A8E1C0
:100BE000B0E0E5EFF5E00C94C608DC01CB01898BA1
:100BF0009A8BAB8BBC8B2D8B3E8B4F8B588FBE0152
:100C00006F5F7F4FCE0141960E94CB078E01075F39
:100C10001F4FB801CE0145960E94CB0789818230D3
:100C200018F08985823018F42FEF3FEF09C0B80122
:100C3000CE0101960E944508282F332727FD3095C5
:100C4000C901E4E068960C94E208A8E1B0E0EBE2A8
:100C5000F6E00C94C608DC01CB01898B9A8BAB8B38
:100C6000BC8B2D8B3E8B4F8B588FBE016F5F7F4FA0
:100C7000CE0141960E94CB078E01075F1F4FB8013E
:100C8000CE0145960E94CB078981823018F0898574
:100C9000823018F42FEF3FEF09C0B801CE01019662
:100CA0000E944508282F332727FD3095C901E4E02D
:100CB00068960C94E208A8E1B0E0E1E6F6E00C9456
:100CC000C608DC01CB01898B9A8BAB8BBC8B2D8B3F
:100CD0003E8B4F8B588FBE016F5F7F4FCE01419689
:100CE0000E94CB078E01075F1F4FB801CE014596CA
:100CF0000E94CB078981823018F08985823018F4F0
:100D000021E030E009C0B801CE0101960E944508FB
:100D1000282F332727FD3095C901E4E068960C940D
:100D2000E208ACE0B0E0E7E9F6E00C94C808DC01CA
:100D3000CB0189879A87AB87BC87BE016F5F7F4FE6
:100D4000CE0109960E94CB078981823011F0823052
:100D500028F460E070E080E090E031C0843039F049
:100D60002B813C8137FDF5CF2F3131056CF08A8125
:100D7000882329F060E070E080E090E820C06FEF09
:100D80007FEF8FEF9FE71BC08EE190E0821B930BFC
:100D90002D813E814F81588504C0569547953795E2
:100DA00027958A95D2F78A81882339F05095409506
:100DB000309521953F4F4F4F5F4FCA01B901E2E097
:100DC0002C960C94E408A0E0B0E0E9EEF6E00C9478
:100DD000BE08882499245401DC01FC01248135815A
:100DE000468157818181082F112760E070E08C9146
:100DF000823020F46FEF70E04061A4C0843009F4C9
:100E000064C0823009F463C02115310541055105E4
:100E100009F498C0FD0182819381FFEF82389F071A
:100E20000CF050C0A2E8EA2EAFEFFA2EE81AF90A49
:100E30008AE1E816F1040CF06BC06B0181E090E0F0
:100E4000A0E0B0E00E2C04C0880F991FAA1FBB1FA2
:100E50000A94D2F70197A109B10982239323A4230D
:100E6000B5230097A105B10519F0F1E0CF2ED12CE3
:100E700004C05695479537952795EA94D2F7C60151
:100E8000AA2797FDA095BA2F282B392B4A2B5B2B2D
:100E9000DA01C9018F779070A070B070803491052D
:100EA000A105B105D1F1215C3F4F4F4F5F4F20307D
:100EB000E0E03E07E0E04E07E0E45E0708F161E0B5
:100EC00070E01EC0803891053CF06FEF70E020E0CC
:100ED00030E040E050E036C0BC0161587F4FDA019D
:100EE000C9018F779070A070B07080349105A10512
:100EF000B105D1F0215C3F4F4F4F5F4F57FD1BC0F5
:100F000097E056954795379527959A95D1F71AC04A
:100F100020E030E040E050E0BBCF27FFC8CF205CAE
:100F20003F4F4F4F5F4FC3CF27FFE8CF205C3F4F6E
:100F30004F4F5F4FE3CF56954795379527956F5F96
:100F40007F4FDECF822E932E942F9F778A2D80782D
:100F5000A82EA92A962F9795992797958A2D8F774E
:100F6000A82EA92A76956795962F9F778B2D807846
:100F7000B82EB92A902F9795992797958B2D8F7713
:100F8000B82EB92AD501C401BC01CD01ECE0CDB722
:100F9000DEB70C94DA08CF93DF93FC01DB014081CC
:100FA00051812281622F6F7770E0221F2227221F3A
:100FB0009381892F880F822B282F3327991F9927F8
:100FC000991FED0199832115310541F44115510512
:100FD00061057105E1F482E08C9354C02F3F310527
:100FE00009F441C02F573040FD013383228383E051
:100FF0008C9387E0440F551F661F771F8A95D1F7A2
:101000007064ED014C835D836E837F833BC022E877
:101010003FEFF901C7E0440F551F661F771FCA95C0
:10102000D1F783E08C93403080E0580780E0680778
:1010300080E4780778F4440F551F661F771F21500E
:101040003040F9014030C0E05C07C0E06C07C0E40C
:101050007C0788F3ED01FB83EA83FD01448355831C
:10106000668377830FC0411551056105710519F439
:1010700084E08C9307C064FF03C081E08C93C1CFF0
:101080001C92BFCFDF91CF9108950F931F93CF9301
:10109000DF93FC01DB018081823018F09C9192305B
:1010A00018F461E070E05EC08430C1F0843001F17A
:1010B000943009F447C0823009F44BC0823009F4FF
:1010C0004EC09230A9F04181ED0189814817B9F0F5
:1010D000442389F08FEF9FEFBC0144C0943031F777
:1010E000EB018981682F77278181681B71093AC0DC
:1010F0008181882379F781E090E0BC0133C02281AF
:101100003381ED018A819B81821793070CF32817A5
:1011100039079CF00481158126813781FD016481A6
:10112000758186819781601771078207930780F226
:10113000061717072807390778F4442359F281E086
:1011400090E0DBCFFD018181882321F281E090E0F6
:10115000D4CF923009F0B2CF60E070E003C0ED016F
:101160008981F2CFCB01DF91CF911F910F9108952B
:101170002F923F924F925F926F927F928F929F92A7
:10118000AF92BF92CF92DF92EF92FF920F931F9395
:10119000CF93DF93CDB7DEB7CA1BDB0B0FB6F89446
:1011A000DEBF0FBECDBF09942A88398848885F8486
:1011B0006E847D848C849B84AA84B984C884DF80F7
:1011C000EE80FD800C811B81AA81B981CE0FD11DDB
:0E11D0000FB6F894DEBF0FBECDBFED0108953F
:0E11DE00E7E7E7E7E700000000000000000080
:00000001FF
