:0703260005493443101001EA
:0D0304007580AAC290D291C2927580FF222E
:1002F200758920758BFD758DFD7598D8758780D2AF
:020302008E2249
:05032E00D2AFD2A822AD
:10029E00E4FDFCC3ED9FEC9E50167B6C7A00EB1BCD
:1002AE008A8370011A458370F50DBD00010C80E341
:0102BE00221D
:1002D900E4FEEF339293EF25E0FFD292A294E43348
:0802E9004207C2920EBE08EAB2
:0102F10022EA
:0902BF007D017F211202C87F229B
:1002C800C2911202D9AC07AF051202D9D291AF047C
:0102D8002203
:0C031100C2911202D9E4FF1202D9D2916D
:01031D0022BD
:0B0200007B007A0079217511147F61EA
:06020B008B0E8A0F891022
:10021100C2911202D9AD07E4FCECC395115017E469
:10022100FF1202D9AB0EAA0FA9108C82758300EFC1
:0A0231001202550C80E3D291AF05D4
:01023B0022A0
:0B01C3007B007A0079497512057F2A45
:0601CE008B0F8A1089115D
:1001D400C2911202D9AD07E4FCECC395125018ABDE
:1001E4000F0511E511AA107002051014F912023C52
:0B01F400FF1202D90C80E2D291AF058F
:0101FF0022DD
:10027700C2901201C31202BF7D287F251202C87DDA
:10028700147F311202C87D077F261202C87D0F7FB7
:07029700201202C8D29022E0
:10018000C2907B007A0079497512057F301201CE4A
:100190001201C37B007A0079357512147FA0120119
:1001A000CE1202BF7D1A7F241202C87D287F25123D
:1001B00002C87D077F261202C87D0E7F201202C86A
:0301C000D29022B8
:08031E008F993099FDC299226C
:1000E7007580FFE58054AA64AA60427F0A7E0012E9
:1000F700029EE58054AAFF64AA60328F0DEFC313F6
:10010700F580F535120180AF0D12031E7F0712032C
:1001170011AD077F271202C87FF47E0112029E7578
:0D01270080FF120277E58054AAFFBFAAF8FE
:0101340022A8
:100135001203041202F21202771200E77F0712037C
:10014500118F20300606120200754E01300407E4B7
:10015500FD7FE11202C8AD207F271202C8E54E607F
:10016500D8E4F54E8521807FF47E0112029E7580CC
:0B017500FFE521C313FF12031E80BE34
:0300030002009266
:10009200C0E0C083C082C0D075D000C000C001C023
:1000A20002C003C004C005C006C0077F07120311C7
:1000B2008F20300606120200754E01300407E4FD5F
:1000C2007FE11202C8AD207F271202C8D007D006F6
:1000D200D005D004D003D002D001D000D0D0D0823D
:0500E200D083D0E032E4
:03000000020006F5
:0C000600787FE4F6D8FD75814E02004DB5
:10023C00BB010689828A83E0225002E722BBFE02C0
:09024C00E32289828A83E49322F3
:10025500F8BB010DE58229F582E5833AF583E8F0DF
:10026500225006E92582C8F622BBFE05E92582C88B
:02027500F22273
:10001200020135E493A3F8E493A34003F68001F2CE
:1000220008DFF48029E493A3F85407240CC8C333EF
:10003200C4540F4420C8834004F456800146F6DFBE
:10004200E4800B0102040810204080900326E47E25
:10005200019360BCA3FF543F30E509541FFEE493B3
:10006200A360010ECF54C025E060A840B8E493A37A
:10007200FAE493A3F8E493A3C8C582C8CAC583CAA5
:10008200F0A3C8C582C8CAC583CADFE9DEE780BE5D
:01032D0000CF
:00000001FF
