:040000000C94440018
:14005400C0CFA4B0999282F8809001020304050607080910C3
:1400680011121314151617181920212223242526272829302A
:14007C00313234431010013443101001CFE5D4E0CDBFDEBF4C
:14009000C051D0400AEA08830024E4E9F0E010E0E639F107F4
:1400A40011F00192FBCF0083E4E5F0E0A0E6B0E010E0E838A8
:1400B800F10721F0C89531960D92F9CF0E947401FFCF0E9419
:1400CC00B0014427552702C04F5F5F4F40175107D8F3442785
:1400E000552702C04F5F5F4F40175107D8F30E94B301089505
:1400F4000E94AE01442766270DC007FF02C0C29A01C0C298A3
:14010800000F440FC69AB49B01C04395C6986395683088F3D0
:14011C00042F0E94A20108950E94B001402FC798042FE2DFA5
:140130000027E0DF402FC79A0E94B30108950E94AE01622F30
:14014400402FC798042FD4DF402F062FD1DFC79A042F0E9469
:14015800A20108950E94AA016901402FA884C798042FC4DFCC
:14016C00402F55276627772708C00027BDDFFB01EC0DFD1DCF
:1401800000836F5F7F4F2A2C3324621573059CF3C79A042F8D
:140194000E94A50108950E94AA016901402FA884C798042F8E
:1401A800A5DF402F662705C0F60101916F019EDF63956A1511
:1401BC00C8F3C79A042F0E94A5010895C598C59A08EE13E056
:1401D0007CDF08950E94AE01B8012197442707E0A1DF0093FC
:1401E400950006FF07C0C59880E288839B0101E6B3DF41E0A6
:1401F8002091950007E29FDF042F21960E94A20108950E94D8
:14020C00B001A8012197C59885E088832AE830E00AE2BDDF55
:1402200080E288839A0100EAB8DFC59A08E512E04CDF219621
:140234000E94B30108952197C598C79AC69885E088832AE86D
:1402480030E000E3A6DF85E088832FE830E00AE2A0DF21E027
:14025C0001E26FDF21E002E26CDF222705E269DF20E201E3CF
:1402700066DF27E006E263DF2FE000E260DF00E717E123DFF3
:140284002196089522242BB888E18AB986E080BD87E689B9EB
:1402980020BC5B9A08950CB90895809194008430B8F4082F46
:1402AC0011270130E0E01E0749F00230E0E01E0741F003303C
:1402C000E0E01E0739F008C08EEF85BB05C08FEB85BB02C056
:1402D40087EF85BB80919400833019F42224209294000895D2
:1402E800A09784EE87BB8FEF84BB8EE18ABB22242BBA8FEB01
:1402FC0085BBC4DF9CDF1DC061DF8E0165DF0023C1F08091BB
:1403100094008F5F8093940044270EC0CE01E42FFF27E80F78
:14032400F91F0081BADF08EB1BE0CDDE08EB1BE0CADE43958C
:14033800403280F3B2DFE2CFA0960895E2E00C94B401E8E0D8
:14034C000C94B401FA92EA92DA92CA92BA92AA927A936A93E6
:140360005A934A930895E1E049915991E0FD0895699179911F
:14037400E1FD0895A990B990E2FD0895C990D990E3FD0895BD
:06038800E990F9900895D0
:00000001FF
