:040000000C94390023
:14005400C0CFA4B0999282F88090404F243019120278001068
:1400680034431010013443101001CFE5D4E0CDBFDEBFC051B2
:14007C00D0400AEA08830024EEE7F0E010E0E53AF10711F010
:140090000192FBCF0083E4E5F0E0A0E6B0E010E0E237F107CC
:1400A40021F0C89531960D92F9CF0E946301FFCF0E94AE0187
:1400B8004427552702C04F5F5F4F40175107D8F344275527CE
:1400CC0002C04F5F5F4F40175107D8F30E94B10108950E94F5
:1400E000AC01442766270DC007FF02C0C29A01C0C298000F4C
:1400F400440FC69AB49B01C04395C6986395683088F3042FC1
:140108000E94A00108950E94AE01402FC798042FE2DF0027C9
:14011C00E0DF402FC79A0E94B10108950E94AC01622F402F00
:14013000C798042FD4DF402F062FD1DFC79A042F0E94A0014B
:1401440008950E94A8016901402FA884C798042FC4DF402F16
:1401580055276627772708C00027BDDFFB01EC0DFD1D0083CF
:14016C006F5F7F4F2A2C3324621573059CF3C79A042F0E9482
:14018000A30108950E94A8016901402FA884C798042FA5DFC4
:14019400402F662705C0F60101916F019EDF63956A15C8F3EE
:1401A800C79A042F0E94A3010895C598C59A08EE13E07CDFCC
:1401BC0008950E94AC01B8012197442707E0A1DF00937E00EF
:1401D00006FF07C0C59880E288839B0101E6B3DF41E020919E
:1401E4007E0007E29FDF042F21960E94A00108952197C59843
:1401F800C79AC69885E0888324E730E000E3BEDF85E08883B9
:14020C0029E730E00AE2B8DF21E001E287DF21E002E284DFA9
:14022000222705E281DF20E201E37EDF27E006E27BDF2FE09F
:1402340000E278DF00E717E13BDF2196089522242BB888E19E
:140248008AB986E080BD87E689B920BC5B9A08950CB908953D
:14025C0080E690E0E0918100FF27E80FF91F208025BADC9A9C
:14027000DB9ADA9AD99800E510E01CDFD99A8AE690E0E0918C
:140284008000FF27E80FF91F208025BADA9800E510E00EDFFE
:14029800DA9A80E690E0E0917F00FF27E80FF91F208025BA64
:1402AC00DB9800E510E000DFDB9A86EC85BBDC9800E510E0A7
:1402C000F9DEDC9A089584EE87BB8FEF84BB8EE18ABB82EBAE
:1402D40081BB22242BBA8FEB85BBB1DF89DF2CC066DF0FE7D6
:1402E80010E069DF0023B9F020908000009181000F700295A6
:1402FC000229ACDF08EE13E0D7DE00917F00A6DF08EE13E01C
:14031000D1DE00918200A0DF08EE13E0CBDE9EDF2090800059
:14032400809181008F7082958229853318F09598979802C094
:14033800959A979AD3CF0895E2E00C94B201E8E00C94B201E2
:14034C00FA92EA92DA92CA92BA92AA927A936A935A934A9371
:140360000895E1E049915991E0FD089569917991E1FD08956E
:14037400A990B990E2FD0895C990D990E3FD0895E990F99036
:020388000895D6
:00000001FF
