:040000000C944A0012
:140054004B02470243023F023B02370233022F022B0227024A
:1400680023021F021B02170213020F020000C0CFA4B09992D4
:14007C0082F88090404F243019120278001034431010013482
:1400900043101001CFE5D4E0CDBFDEBFC051D0400AEA0883C7
:1400A4000024E0E8F0E010E0E838F10711F00192FBCF0083A3
:1400B800E4E7F0E0A0E6B0E010E0E439F10721F0C895319649
:1400CC000D92F9CF0E948F02FFCF0E94DD024427552702C08E
:1400E0004F5F5F4F40175107D8F34427552702C04F5F5F4F31
:1400F40040175107D8F30E94E00208950E94DB0244276627E6
:140108000DC007FF02C0C29A01C0C298000F440FC69AB49BC6
:14011C0001C04395C6986395683088F3042F0E94CF0208958A
:140130000E94DD02402FC798042FE2DF0027E0DF402FC79AC2
:140144000E94E00208950E94DB02622F402FC798042FD4DFC2
:14015800402F062FD1DFC79A042F0E94CF0208950E94D70220
:14016C006901402FA884C798042FC4DF402F5527662777272F
:1401800008C00027BDDFFB01EC0DFD1D00836F5F7F4F2A2C5C
:140194003324621573059CF3C79A042F0E94D20208950E9439
:1401A800D7026901402FA884C798042FA5DF402F662705C08E
:1401BC00F60101916F019EDF63956A15C8F3C79A042F0E9451
:1401D000D2020895C5982FE000E2B7DFC59A08EE13E079DF26
:1401E40008950E94DB02B8012197442707E09EDF0093800098
:1401F80006FF07C0C59880E288839B0101E6B0DF41E0209179
:14020C00800007E29CDF042F21960E94CF0208950E94DD027F
:14022000A8012197C59885E0888326E730E00AE2BADF80E298
:1402340088839A0100EAB5DFC59A08EE13E049DF21960E94C9
:14024800E00208952197C598C79AC69885E0888326E730E0C2
:14025C0000E3A3DF85E088832BE730E00AE29DDF21E001E24B
:140270006CDF21E002E269DF222705E266DF20E201E363DF65
:1402840027E006E260DF2EE000E25DDF00E717E120DF219677
:1402980008951801015010402220D9F73320C9F708950E9497
:1402AC00DD0241E08E9A969A969808EB1BE0EFDF969A8E98A6
:1402C00008E210E0EADF8699FECF8E9A969A0CE211E0E3DFA2
:1402D4000E94E00208950E94DB02442768E00DC08E9A9698A0
:1402E8004695969A8E98869B01C040688E9A02E310E0CFDF9C
:1402FC006A9580E0861780F3042F0E94CF0208950E94DB02BD
:14031000602F8E9A48E00CC0969860FF02C0969A01C09698C0
:1403240008E210E0B8DF969A66954A9580E0841788F308E0EC
:1403380010E0AFDF0E94CF020895B3DF0CECE2DF04E4E0DF31
:14034C00AEDF0CECDDDF0EEBDBDFC1DF00936000BEDF0093E6
:14036000610008950E94DB0244278FE720906100821588F407
:14037400332480E091E082199309809361002090600033243B
:1403880080E091E0821993098093600041E0809161008F7054
:14039C008F70829590916000907F92959F70982B9093870004
:1403B00014E6092F0E94A9020093860014E6009187000E94ED
:1403C400A702009385001AE00E94A902009383001AE000917C
:1403D80085000E94A702009382006091600077276F7070707E
:1403EC006030E0E07E070CF453C08FE090E0861797070CF4FB
:140400004DC002E010E09B010E94BF02F80184E590E0E80F41
:14041400F91F05901490F001099489E0809381003BC089E094
:140428008093810037C088E08093810033C088E0809381004A
:14043C002FC087E0809381002BC086E08093810027C086E090
:140450008093810023C085E0809381001FC084E08093810051
:140464001BC084E08093810017C083E08093810013C083E0AD
:14047800809381000FC082E0809381000BC081E08093810057
:14048C0007C081E08093810003C081E080938100442321F070
:1404A00081E18093840003C082E2809384000E94CF02089581
:1404B40082E690E0E0918300FF27E80FF91F208025BADC9A3E
:1404C800DB9ADA9AD99800E510E001DED99A8CE690E0E0914C
:1404DC008200FF27E80FF91F208025BADA9800E510E0F3DDBF
:1404F000DA9A82E690E0E0918100FF27E80FF91F208025BA06
:14050400DB9800E510E0E5DDDB9A86EC85BBDC9800E510E069
:14051800DEDDDC9A089584EE87BB8FEF84BB8EE18ABB222496
:14052C002BBA8FEB85BBBBDE8BDE09C004DF14DFBBDF01E8F8
:1405400010E06CDE2FEF07E200DEF6CF0895689401C0E894ED
:140554002A93FA92EA92FF24EE2420E1000FFF1CEE1CE1166D
:1405680010F0E11A03952A95B9F70EF40E2DE990F990299184
:14057C0008950A921A928A939A93029FC001129F900D039FEA
:14059000900D8C0199918991199009900895E2E00C94E102C5
:1405A400E8E00C94E102FA92EA92DA92CA92BA92AA927A9393
:1405B8006A935A934A930895E1E049915991E0FD08956991D2
:1405CC007991E1FD0895A990B990E2FD0895C990D990E3FDF6
:0805E0000895E990F9900895D7
:00000001FF
